{
  "transactions": [
    {
      "hash": "0x073a55ebf0995622ed35c2c906cfd5ac82babafe91e4734fa9e90fa1e73bed92",
      "transactionType": "CALL",
      "contractName": null,
      "contractAddress": "0x4e99472385a2522aa292b008da294a78f420a367",
      "function": "grantRole(bytes32,address)",
      "arguments": [
        "0x31e0210044b4f6757ce6aa31f9c6e8d4896d24a755014887391a926c5224d959",
        "0x4F94C14440ef38B7e551CCFB7A2ce4E464E20F14"
      ],
      "transaction": {
        "from": "0x570f581d23a2ab09fd1990279d9db6f5dce18f4a",
        "to": "0x4e99472385a2522aa292b008da294a78f420a367",
        "gas": "0x12f76",
        "value": "0x0",
        "input": "0x2f2ff15d31e0210044b4f6757ce6aa31f9c6e8d4896d24a755014887391a926c5224d9590000000000000000000000004f94c14440ef38b7e551ccfb7a2ce4e464e20f14",
        "nonce": "0x75",
        "chainId": "0x2105"
      },
      "additionalContracts": [],
      "isFixedGasLimit": false
    },
    {
      "hash": "0x96d11169687f7da39bf663c7d26446effeb4418ba6b035f54dc0e6ba8a70bb43",
      "transactionType": "CALL",
      "contractName": null,
      "contractAddress": "0x4e99472385a2522aa292b008da294a78f420a367",
      "function": "grantRole(bytes32,address)",
      "arguments": [
        "0x31e0210044b4f6757ce6aa31f9c6e8d4896d24a755014887391a926c5224d959",
        "0xA6afc2be04a1c2ED8bEC7F924307b6254fAFF750"
      ],
      "transaction": {
        "from": "0x570f581d23a2ab09fd1990279d9db6f5dce18f4a",
        "to": "0x4e99472385a2522aa292b008da294a78f420a367",
        "gas": "0x12f76",
        "value": "0x0",
        "input": "0x2f2ff15d31e0210044b4f6757ce6aa31f9c6e8d4896d24a755014887391a926c5224d959000000000000000000000000a6afc2be04a1c2ed8bec7f924307b6254faff750",
        "nonce": "0x76",
        "chainId": "0x2105"
      },
      "additionalContracts": [],
      "isFixedGasLimit": false
    },
    {
      "hash": "0x8adc62aa454786dc5d042651bac52b453a629ff3d26a0421364e718423bc35e7",
      "transactionType": "CALL",
      "contractName": null,
      "contractAddress": "0x4e99472385a2522aa292b008da294a78f420a367",
      "function": "grantRole(bytes32,address)",
      "arguments": [
        "0x31e0210044b4f6757ce6aa31f9c6e8d4896d24a755014887391a926c5224d959",
        "0x1857e926BB5e5b12e9275818B03F79cdfd799999"
      ],
      "transaction": {
        "from": "0x570f581d23a2ab09fd1990279d9db6f5dce18f4a",
        "to": "0x4e99472385a2522aa292b008da294a78f420a367",
        "gas": "0x12f76",
        "value": "0x0",
        "input": "0x2f2ff15d31e0210044b4f6757ce6aa31f9c6e8d4896d24a755014887391a926c5224d9590000000000000000000000001857e926bb5e5b12e9275818b03f79cdfd799999",
        "nonce": "0x77",
        "chainId": "0x2105"
      },
      "additionalContracts": [],
      "isFixedGasLimit": false
    },
    {
      "hash": "0xd6282de60ae5d6034fa5b6498c8b2a838557177eca0a0cedbf1b3c5d0d66a0d0",
      "transactionType": "CALL",
      "contractName": null,
      "contractAddress": "0x4f94c14440ef38b7e551ccfb7a2ce4e464e20f14",
      "function": "grantRole(bytes32,address)",
      "arguments": [
        "0xcbd69888d9fba90fe49a0c7a1d66c35e381e4ebf3a66968c85c5beacc25db59a",
        "0x570f581D23a2AB09FD1990279D9DB6f5DcE18F4A"
      ],
      "transaction": {
        "from": "0x570f581d23a2ab09fd1990279d9db6f5dce18f4a",
        "to": "0x4f94c14440ef38b7e551ccfb7a2ce4e464e20f14",
        "gas": "0x141c2",
        "value": "0x0",
        "input": "0x2f2ff15dcbd69888d9fba90fe49a0c7a1d66c35e381e4ebf3a66968c85c5beacc25db59a000000000000000000000000570f581d23a2ab09fd1990279d9db6f5dce18f4a",
        "nonce": "0x78",
        "chainId": "0x2105"
      },
      "additionalContracts": [],
      "isFixedGasLimit": false
    },
    {
      "hash": "0xa18bd962b42586f68482e75f4c7dcac3b1c92f831cdd4ce51a6876d67fdf1b50",
      "transactionType": "CALL",
      "contractName": null,
      "contractAddress": "0x4f94c14440ef38b7e551ccfb7a2ce4e464e20f14",
      "function": "grantRole(bytes32,address)",
      "arguments": [
        "0xcbd69888d9fba90fe49a0c7a1d66c35e381e4ebf3a66968c85c5beacc25db59a",
        "0x6BF125D25cC4d00FAB06C30095f8DCBe2617bBBD"
      ],
      "transaction": {
        "from": "0x570f581d23a2ab09fd1990279d9db6f5dce18f4a",
        "to": "0x4f94c14440ef38b7e551ccfb7a2ce4e464e20f14",
        "gas": "0x12fd1",
        "value": "0x0",
        "input": "0x2f2ff15dcbd69888d9fba90fe49a0c7a1d66c35e381e4ebf3a66968c85c5beacc25db59a0000000000000000000000006bf125d25cc4d00fab06c30095f8dcbe2617bbbd",
        "nonce": "0x79",
        "chainId": "0x2105"
      },
      "additionalContracts": [],
      "isFixedGasLimit": false
    },
    {
      "hash": "0x772fbd8883ab12e388e2c9a5541001a69f8cf77606fce6670836bfe94c2965c2",
      "transactionType": "CALL",
      "contractName": null,
      "contractAddress": "0x4f94c14440ef38b7e551ccfb7a2ce4e464e20f14",
      "function": "grantRole(bytes32,address)",
      "arguments": [
        "0xe6ad9a47fbda1dc18de1eb5eeb7d935e5e81b4748f3cfc61e233e64f88182060",
        "0x6BF125D25cC4d00FAB06C30095f8DCBe2617bBBD"
      ],
      "transaction": {
        "from": "0x570f581d23a2ab09fd1990279d9db6f5dce18f4a",
        "to": "0x4f94c14440ef38b7e551ccfb7a2ce4e464e20f14",
        "gas": "0x12fd1",
        "value": "0x0",
        "input": "0x2f2ff15de6ad9a47fbda1dc18de1eb5eeb7d935e5e81b4748f3cfc61e233e64f881820600000000000000000000000006bf125d25cc4d00fab06c30095f8dcbe2617bbbd",
        "nonce": "0x7a",
        "chainId": "0x2105"
      },
      "additionalContracts": [],
      "isFixedGasLimit": false
    },
    {
      "hash": "0x5b8518e1d7cea5d73f25f23cd1293d01e27c5b74aa4d58231bde65c8932c7d87",
      "transactionType": "CALL",
      "contractName": null,
      "contractAddress": "0x4f94c14440ef38b7e551ccfb7a2ce4e464e20f14",
      "function": "grantRole(bytes32,address)",
      "arguments": [
        "0xba474fc2b8347e255f10252fdae69399bac572751768da2e97a282acc34401ea",
        "0x6BF125D25cC4d00FAB06C30095f8DCBe2617bBBD"
      ],
      "transaction": {
        "from": "0x570f581d23a2ab09fd1990279d9db6f5dce18f4a",
        "to": "0x4f94c14440ef38b7e551ccfb7a2ce4e464e20f14",
        "gas": "0x12fd1",
        "value": "0x0",
        "input": "0x2f2ff15dba474fc2b8347e255f10252fdae69399bac572751768da2e97a282acc34401ea0000000000000000000000006bf125d25cc4d00fab06c30095f8dcbe2617bbbd",
        "nonce": "0x7b",
        "chainId": "0x2105"
      },
      "additionalContracts": [],
      "isFixedGasLimit": false
    },
    {
      "hash": "0x48271a6f424a5091e94329466eb553f59c2fc3814cc191efe529ef6adc359084",
      "transactionType": "CALL",
      "contractName": null,
      "contractAddress": "0xa6afc2be04a1c2ed8bec7f924307b6254faff750",
      "function": "grantRole(bytes32,address)",
      "arguments": [
        "0xcbd69888d9fba90fe49a0c7a1d66c35e381e4ebf3a66968c85c5beacc25db59a",
        "0x570f581D23a2AB09FD1990279D9DB6f5DcE18F4A"
      ],
      "transaction": {
        "from": "0x570f581d23a2ab09fd1990279d9db6f5dce18f4a",
        "to": "0xa6afc2be04a1c2ed8bec7f924307b6254faff750",
        "gas": "0x141c2",
        "value": "0x0",
        "input": "0x2f2ff15dcbd69888d9fba90fe49a0c7a1d66c35e381e4ebf3a66968c85c5beacc25db59a000000000000000000000000570f581d23a2ab09fd1990279d9db6f5dce18f4a",
        "nonce": "0x7c",
        "chainId": "0x2105"
      },
      "additionalContracts": [],
      "isFixedGasLimit": false
    },
    {
      "hash": "0x9be41a770a00cedb4a25fc2644b0230f1552e1445c537bf32ce0ddacea78ea01",
      "transactionType": "CALL",
      "contractName": null,
      "contractAddress": "0xa6afc2be04a1c2ed8bec7f924307b6254faff750",
      "function": "grantRole(bytes32,address)",
      "arguments": [
        "0xcbd69888d9fba90fe49a0c7a1d66c35e381e4ebf3a66968c85c5beacc25db59a",
        "0x6BF125D25cC4d00FAB06C30095f8DCBe2617bBBD"
      ],
      "transaction": {
        "from": "0x570f581d23a2ab09fd1990279d9db6f5dce18f4a",
        "to": "0xa6afc2be04a1c2ed8bec7f924307b6254faff750",
        "gas": "0x12fd1",
        "value": "0x0",
        "input": "0x2f2ff15dcbd69888d9fba90fe49a0c7a1d66c35e381e4ebf3a66968c85c5beacc25db59a0000000000000000000000006bf125d25cc4d00fab06c30095f8dcbe2617bbbd",
        "nonce": "0x7d",
        "chainId": "0x2105"
      },
      "additionalContracts": [],
      "isFixedGasLimit": false
    },
    {
      "hash": "0xe81f3c3ed98d3c1c80b739b868aeb5eb38503b22f6bc2e32e9ce160d54cdf3e8",
      "transactionType": "CALL",
      "contractName": null,
      "contractAddress": "0xa6afc2be04a1c2ed8bec7f924307b6254faff750",
      "function": "grantRole(bytes32,address)",
      "arguments": [
        "0xe6ad9a47fbda1dc18de1eb5eeb7d935e5e81b4748f3cfc61e233e64f88182060",
        "0x6BF125D25cC4d00FAB06C30095f8DCBe2617bBBD"
      ],
      "transaction": {
        "from": "0x570f581d23a2ab09fd1990279d9db6f5dce18f4a",
        "to": "0xa6afc2be04a1c2ed8bec7f924307b6254faff750",
        "gas": "0x12fd1",
        "value": "0x0",
        "input": "0x2f2ff15de6ad9a47fbda1dc18de1eb5eeb7d935e5e81b4748f3cfc61e233e64f881820600000000000000000000000006bf125d25cc4d00fab06c30095f8dcbe2617bbbd",
        "nonce": "0x7e",
        "chainId": "0x2105"
      },
      "additionalContracts": [],
      "isFixedGasLimit": false
    },
    {
      "hash": "0x4044d441c25e8015d786f695707bb3f38a88c16fd6c6e2f19dbd9ede099df684",
      "transactionType": "CALL",
      "contractName": null,
      "contractAddress": "0xa6afc2be04a1c2ed8bec7f924307b6254faff750",
      "function": "grantRole(bytes32,address)",
      "arguments": [
        "0xba474fc2b8347e255f10252fdae69399bac572751768da2e97a282acc34401ea",
        "0x6BF125D25cC4d00FAB06C30095f8DCBe2617bBBD"
      ],
      "transaction": {
        "from": "0x570f581d23a2ab09fd1990279d9db6f5dce18f4a",
        "to": "0xa6afc2be04a1c2ed8bec7f924307b6254faff750",
        "gas": "0x12fd1",
        "value": "0x0",
        "input": "0x2f2ff15dba474fc2b8347e255f10252fdae69399bac572751768da2e97a282acc34401ea0000000000000000000000006bf125d25cc4d00fab06c30095f8dcbe2617bbbd",
        "nonce": "0x7f",
        "chainId": "0x2105"
      },
      "additionalContracts": [],
      "isFixedGasLimit": false
    },
    {
      "hash": "0x4d7e7c4c280384c85ed819d95627674174488708b6765e8c144e112fce9b24b0",
      "transactionType": "CALL",
      "contractName": null,
      "contractAddress": "0x1857e926bb5e5b12e9275818b03f79cdfd799999",
      "function": "grantRole(bytes32,address)",
      "arguments": [
        "0xcbd69888d9fba90fe49a0c7a1d66c35e381e4ebf3a66968c85c5beacc25db59a",
        "0x570f581D23a2AB09FD1990279D9DB6f5DcE18F4A"
      ],
      "transaction": {
        "from": "0x570f581d23a2ab09fd1990279d9db6f5dce18f4a",
        "to": "0x1857e926bb5e5b12e9275818b03f79cdfd799999",
        "gas": "0x141c2",
        "value": "0x0",
        "input": "0x2f2ff15dcbd69888d9fba90fe49a0c7a1d66c35e381e4ebf3a66968c85c5beacc25db59a000000000000000000000000570f581d23a2ab09fd1990279d9db6f5dce18f4a",
        "nonce": "0x80",
        "chainId": "0x2105"
      },
      "additionalContracts": [],
      "isFixedGasLimit": false
    },
    {
      "hash": "0x295ce1a1766f146b76fb45efccfbad43718c9b6541d1a5bdbcb50a63e1542481",
      "transactionType": "CALL",
      "contractName": null,
      "contractAddress": "0x1857e926bb5e5b12e9275818b03f79cdfd799999",
      "function": "grantRole(bytes32,address)",
      "arguments": [
        "0xcbd69888d9fba90fe49a0c7a1d66c35e381e4ebf3a66968c85c5beacc25db59a",
        "0x6BF125D25cC4d00FAB06C30095f8DCBe2617bBBD"
      ],
      "transaction": {
        "from": "0x570f581d23a2ab09fd1990279d9db6f5dce18f4a",
        "to": "0x1857e926bb5e5b12e9275818b03f79cdfd799999",
        "gas": "0x12fd1",
        "value": "0x0",
        "input": "0x2f2ff15dcbd69888d9fba90fe49a0c7a1d66c35e381e4ebf3a66968c85c5beacc25db59a0000000000000000000000006bf125d25cc4d00fab06c30095f8dcbe2617bbbd",
        "nonce": "0x81",
        "chainId": "0x2105"
      },
      "additionalContracts": [],
      "isFixedGasLimit": false
    },
    {
      "hash": "0x7f2679d2e2c01b2f6e91cf3241308792d836dc518156b77badfbf31fc302ff78",
      "transactionType": "CALL",
      "contractName": null,
      "contractAddress": "0x1857e926bb5e5b12e9275818b03f79cdfd799999",
      "function": "grantRole(bytes32,address)",
      "arguments": [
        "0xe6ad9a47fbda1dc18de1eb5eeb7d935e5e81b4748f3cfc61e233e64f88182060",
        "0x6BF125D25cC4d00FAB06C30095f8DCBe2617bBBD"
      ],
      "transaction": {
        "from": "0x570f581d23a2ab09fd1990279d9db6f5dce18f4a",
        "to": "0x1857e926bb5e5b12e9275818b03f79cdfd799999",
        "gas": "0x12fd1",
        "value": "0x0",
        "input": "0x2f2ff15de6ad9a47fbda1dc18de1eb5eeb7d935e5e81b4748f3cfc61e233e64f881820600000000000000000000000006bf125d25cc4d00fab06c30095f8dcbe2617bbbd",
        "nonce": "0x82",
        "chainId": "0x2105"
      },
      "additionalContracts": [],
      "isFixedGasLimit": false
    },
    {
      "hash": "0xaa25ee05d2c73de655f91e7b53773c9aa41e88ac9cb434dc5dd0f6e5cf3a48f6",
      "transactionType": "CALL",
      "contractName": null,
      "contractAddress": "0x1857e926bb5e5b12e9275818b03f79cdfd799999",
      "function": "grantRole(bytes32,address)",
      "arguments": [
        "0xba474fc2b8347e255f10252fdae69399bac572751768da2e97a282acc34401ea",
        "0x6BF125D25cC4d00FAB06C30095f8DCBe2617bBBD"
      ],
      "transaction": {
        "from": "0x570f581d23a2ab09fd1990279d9db6f5dce18f4a",
        "to": "0x1857e926bb5e5b12e9275818b03f79cdfd799999",
        "gas": "0x12fd1",
        "value": "0x0",
        "input": "0x2f2ff15dba474fc2b8347e255f10252fdae69399bac572751768da2e97a282acc34401ea0000000000000000000000006bf125d25cc4d00fab06c30095f8dcbe2617bbbd",
        "nonce": "0x83",
        "chainId": "0x2105"
      },
      "additionalContracts": [],
      "isFixedGasLimit": false
    },
    {
      "hash": "0xf4ad239e6ecac6a8790eb71fe87a0d6dfaa76146817d2e9d5819d641d1188632",
      "transactionType": "CALL",
      "contractName": null,
      "contractAddress": "0x4f94c14440ef38b7e551ccfb7a2ce4e464e20f14",
      "function": "addPocket(address)",
      "arguments": [
        "0x75E78d6659BBc2c1599464e153607a21947A466B"
      ],
      "transaction": {
        "from": "0x570f581d23a2ab09fd1990279d9db6f5dce18f4a",
        "to": "0x4f94c14440ef38b7e551ccfb7a2ce4e464e20f14",
        "gas": "0x18019",
        "value": "0x0",
        "input": "0x120b4b8600000000000000000000000075e78d6659bbc2c1599464e153607a21947a466b",
        "nonce": "0x84",
        "chainId": "0x2105"
      },
      "additionalContracts": [],
      "isFixedGasLimit": false
    },
    {
      "hash": "0x8f00da045bbd4eb429ce3bdef7bea7ac117194db3a575f116f910ade4655772c",
      "transactionType": "CALL",
      "contractName": null,
      "contractAddress": "0x4f94c14440ef38b7e551ccfb7a2ce4e464e20f14",
      "function": "addPocket(address)",
      "arguments": [
        "0x134ba1c4E7443fC5c0bE8Ca675DF0bE611bd589C"
      ],
      "transaction": {
        "from": "0x570f581d23a2ab09fd1990279d9db6f5dce18f4a",
        "to": "0x4f94c14440ef38b7e551ccfb7a2ce4e464e20f14",
        "gas": "0x16aa3",
        "value": "0x0",
        "input": "0x120b4b86000000000000000000000000134ba1c4e7443fc5c0be8ca675df0be611bd589c",
        "nonce": "0x85",
        "chainId": "0x2105"
      },
      "additionalContracts": [],
      "isFixedGasLimit": false
    },
    {
      "hash": "0xc63069b8a183264138bb6484e8af5188e5d69cd2ca3fce1ca972eeb07eb26b0e",
      "transactionType": "CALL",
      "contractName": null,
      "contractAddress": "0xa6afc2be04a1c2ed8bec7f924307b6254faff750",
      "function": "addPocket(address)",
      "arguments": [
        "0x806c81138A52524Ce218E3C6C19873F53334BF94"
      ],
      "transaction": {
        "from": "0x570f581d23a2ab09fd1990279d9db6f5dce18f4a",
        "to": "0xa6afc2be04a1c2ed8bec7f924307b6254faff750",
        "gas": "0x18019",
        "value": "0x0",
        "input": "0x120b4b86000000000000000000000000806c81138a52524ce218e3c6c19873f53334bf94",
        "nonce": "0x86",
        "chainId": "0x2105"
      },
      "additionalContracts": [],
      "isFixedGasLimit": false
    },
    {
      "hash": "0x505a22002f4dc927d8c9c5062f628c7ecbf87aeed065aff5961589dee05ed2b2",
      "transactionType": "CALL",
      "contractName": null,
      "contractAddress": "0xa6afc2be04a1c2ed8bec7f924307b6254faff750",
      "function": "addPocket(address)",
      "arguments": [
        "0xCf041E8c66785c7BC41284C66b8aDe5A02094a6e"
      ],
      "transaction": {
        "from": "0x570f581d23a2ab09fd1990279d9db6f5dce18f4a",
        "to": "0xa6afc2be04a1c2ed8bec7f924307b6254faff750",
        "gas": "0x16aa3",
        "value": "0x0",
        "input": "0x120b4b86000000000000000000000000cf041e8c66785c7bc41284c66b8ade5a02094a6e",
        "nonce": "0x87",
        "chainId": "0x2105"
      },
      "additionalContracts": [],
      "isFixedGasLimit": false
    },
    {
      "hash": "0xcc78fcb8e36ffc1f697f83c1863ba294234266c0fb50b8664d815f398a11a431",
      "transactionType": "CALL",
      "contractName": null,
      "contractAddress": "0x1857e926bb5e5b12e9275818b03f79cdfd799999",
      "function": "addPocket(address)",
      "arguments": [
        "0xb0fC91A11d770bD7a6312944199E3a9De85057A3"
      ],
      "transaction": {
        "from": "0x570f581d23a2ab09fd1990279d9db6f5dce18f4a",
        "to": "0x1857e926bb5e5b12e9275818b03f79cdfd799999",
        "gas": "0x18019",
        "value": "0x0",
        "input": "0x120b4b86000000000000000000000000b0fc91a11d770bd7a6312944199e3a9de85057a3",
        "nonce": "0x88",
        "chainId": "0x2105"
      },
      "additionalContracts": [],
      "isFixedGasLimit": false
    },
    {
      "hash": "0x9d77b17a60a946001deeb5d335f2da3cc406fe2a0d74d1a2fcca43028bdf55b2",
      "transactionType": "CALL",
      "contractName": null,
      "contractAddress": "0x1857e926bb5e5b12e9275818b03f79cdfd799999",
      "function": "addPocket(address)",
      "arguments": [
        "0x9a0A963ce5CD1C9e5Ef5df862b42143E82f6412C"
      ],
      "transaction": {
        "from": "0x570f581d23a2ab09fd1990279d9db6f5dce18f4a",
        "to": "0x1857e926bb5e5b12e9275818b03f79cdfd799999",
        "gas": "0x16aa3",
        "value": "0x0",
        "input": "0x120b4b860000000000000000000000009a0a963ce5cd1c9e5ef5df862b42143e82f6412c",
        "nonce": "0x89",
        "chainId": "0x2105"
      },
      "additionalContracts": [],
      "isFixedGasLimit": false
    },
    {
      "hash": "0x4a36a62a3ff2bc4c628db5213ed5bcea778ed2f560e256d74f9dd09c4d7068f6",
      "transactionType": "CALL",
      "contractName": null,
      "contractAddress": "0x4f94c14440ef38b7e551ccfb7a2ce4e464e20f14",
      "function": "revokeRole(bytes32,address)",
      "arguments": [
        "0xcbd69888d9fba90fe49a0c7a1d66c35e381e4ebf3a66968c85c5beacc25db59a",
        "0x570f581D23a2AB09FD1990279D9DB6f5DcE18F4A"
      ],
      "transaction": {
        "from": "0x570f581d23a2ab09fd1990279d9db6f5dce18f4a",
        "to": "0x4f94c14440ef38b7e551ccfb7a2ce4e464e20f14",
        "gas": "0xc42c",
        "value": "0x0",
        "input": "0xd547741fcbd69888d9fba90fe49a0c7a1d66c35e381e4ebf3a66968c85c5beacc25db59a000000000000000000000000570f581d23a2ab09fd1990279d9db6f5dce18f4a",
        "nonce": "0x8a",
        "chainId": "0x2105"
      },
      "additionalContracts": [],
      "isFixedGasLimit": false
    },
    {
      "hash": "0x63bce97384a2b76116e7a8fdc3871206109597b935a3bbf319cf5e6dc291519b",
      "transactionType": "CALL",
      "contractName": null,
      "contractAddress": "0xa6afc2be04a1c2ed8bec7f924307b6254faff750",
      "function": "revokeRole(bytes32,address)",
      "arguments": [
        "0xcbd69888d9fba90fe49a0c7a1d66c35e381e4ebf3a66968c85c5beacc25db59a",
        "0x570f581D23a2AB09FD1990279D9DB6f5DcE18F4A"
      ],
      "transaction": {
        "from": "0x570f581d23a2ab09fd1990279d9db6f5dce18f4a",
        "to": "0xa6afc2be04a1c2ed8bec7f924307b6254faff750",
        "gas": "0xc42c",
        "value": "0x0",
        "input": "0xd547741fcbd69888d9fba90fe49a0c7a1d66c35e381e4ebf3a66968c85c5beacc25db59a000000000000000000000000570f581d23a2ab09fd1990279d9db6f5dce18f4a",
        "nonce": "0x8b",
        "chainId": "0x2105"
      },
      "additionalContracts": [],
      "isFixedGasLimit": false
    },
    {
      "hash": "0xefbb9d20d86e21047339622935a90e80ffb834e46aac27e8bb227d72428fea66",
      "transactionType": "CALL",
      "contractName": null,
      "contractAddress": "0x1857e926bb5e5b12e9275818b03f79cdfd799999",
      "function": "revokeRole(bytes32,address)",
      "arguments": [
        "0xcbd69888d9fba90fe49a0c7a1d66c35e381e4ebf3a66968c85c5beacc25db59a",
        "0x570f581D23a2AB09FD1990279D9DB6f5DcE18F4A"
      ],
      "transaction": {
        "from": "0x570f581d23a2ab09fd1990279d9db6f5dce18f4a",
        "to": "0x1857e926bb5e5b12e9275818b03f79cdfd799999",
        "gas": "0xc42c",
        "value": "0x0",
        "input": "0xd547741fcbd69888d9fba90fe49a0c7a1d66c35e381e4ebf3a66968c85c5beacc25db59a000000000000000000000000570f581d23a2ab09fd1990279d9db6f5dce18f4a",
        "nonce": "0x8c",
        "chainId": "0x2105"
      },
      "additionalContracts": [],
      "isFixedGasLimit": false
    },
    {
      "hash": "0x77bed03ca5c2104109981ed147298aa18eca2b464a8d8221e5217b442b80fe36",
      "transactionType": "CALL",
      "contractName": null,
      "contractAddress": "0x4f94c14440ef38b7e551ccfb7a2ce4e464e20f14",
      "function": "revokeRole(bytes32,address)",
      "arguments": [
        "0x0000000000000000000000000000000000000000000000000000000000000000",
        "0x570f581D23a2AB09FD1990279D9DB6f5DcE18F4A"
      ],
      "transaction": {
        "from": "0x570f581d23a2ab09fd1990279d9db6f5dce18f4a",
        "to": "0x4f94c14440ef38b7e551ccfb7a2ce4e464e20f14",
        "gas": "0xb68d",
        "value": "0x0",
        "input": "0xd547741f0000000000000000000000000000000000000000000000000000000000000000000000000000000000000000570f581d23a2ab09fd1990279d9db6f5dce18f4a",
        "nonce": "0x8d",
        "chainId": "0x2105"
      },
      "additionalContracts": [],
      "isFixedGasLimit": false
    },
    {
      "hash": "0x865f5b3ab0625321df97106bd4dd95ba565d8717bafc0d6f042a92cc3c881a0a",
      "transactionType": "CALL",
      "contractName": null,
      "contractAddress": "0xa6afc2be04a1c2ed8bec7f924307b6254faff750",
      "function": "revokeRole(bytes32,address)",
      "arguments": [
        "0x0000000000000000000000000000000000000000000000000000000000000000",
        "0x570f581D23a2AB09FD1990279D9DB6f5DcE18F4A"
      ],
      "transaction": {
        "from": "0x570f581d23a2ab09fd1990279d9db6f5dce18f4a",
        "to": "0xa6afc2be04a1c2ed8bec7f924307b6254faff750",
        "gas": "0xb68d",
        "value": "0x0",
        "input": "0xd547741f0000000000000000000000000000000000000000000000000000000000000000000000000000000000000000570f581d23a2ab09fd1990279d9db6f5dce18f4a",
        "nonce": "0x8e",
        "chainId": "0x2105"
      },
      "additionalContracts": [],
      "isFixedGasLimit": false
    },
    {
      "hash": "0xc861e542c699027e6159af35344c52245bbcb2e1ef8f42c09be23d1c13e0371f",
      "transactionType": "CALL",
      "contractName": null,
      "contractAddress": "0x1857e926bb5e5b12e9275818b03f79cdfd799999",
      "function": "revokeRole(bytes32,address)",
      "arguments": [
        "0x0000000000000000000000000000000000000000000000000000000000000000",
        "0x570f581D23a2AB09FD1990279D9DB6f5DcE18F4A"
      ],
      "transaction": {
        "from": "0x570f581d23a2ab09fd1990279d9db6f5dce18f4a",
        "to": "0x1857e926bb5e5b12e9275818b03f79cdfd799999",
        "gas": "0xb68d",
        "value": "0x0",
        "input": "0xd547741f0000000000000000000000000000000000000000000000000000000000000000000000000000000000000000570f581d23a2ab09fd1990279d9db6f5dce18f4a",
        "nonce": "0x8f",
        "chainId": "0x2105"
      },
      "additionalContracts": [],
      "isFixedGasLimit": false
    },
    {
      "hash": "0x3b2dc6e1228fb503eab28ec4b929f34de930f1bdd9ebe9fd5b63dbb89ffae451",
      "transactionType": "CALL",
      "contractName": null,
      "contractAddress": "0x4e99472385a2522aa292b008da294a78f420a367",
      "function": "revokeRole(bytes32,address)",
      "arguments": [
        "0x0000000000000000000000000000000000000000000000000000000000000000",
        "0x570f581D23a2AB09FD1990279D9DB6f5DcE18F4A"
      ],
      "transaction": {
        "from": "0x570f581d23a2ab09fd1990279d9db6f5dce18f4a",
        "to": "0x4e99472385a2522aa292b008da294a78f420a367",
        "gas": "0xb68b",
        "value": "0x0",
        "input": "0xd547741f0000000000000000000000000000000000000000000000000000000000000000000000000000000000000000570f581d23a2ab09fd1990279d9db6f5dce18f4a",
        "nonce": "0x90",
        "chainId": "0x2105"
      },
      "additionalContracts": [],
      "isFixedGasLimit": false
    }
  ],
  "receipts": [
    {
      "status": "0x1",
      "cumulativeGasUsed": "0x17527c1",
      "logs": [
        {
          "address": "0x4e99472385a2522aa292b008da294a78f420a367",
          "topics": [
            "0x2f8788117e7eff1d82e926ec794901d17c78024a50270940304540a733656f0d",
            "0x31e0210044b4f6757ce6aa31f9c6e8d4896d24a755014887391a926c5224d959",
            "0x0000000000000000000000004f94c14440ef38b7e551ccfb7a2ce4e464e20f14",
            "0x000000000000000000000000570f581d23a2ab09fd1990279d9db6f5dce18f4a"
          ],
          "data": "0x",
          "blockHash": "0xd0c1064a33c855eea97ace9eb8fb83a222c59e5f6cf67552344d56d6b1a2f207",
          "blockNumber": "0x16b05cf",
          "transactionHash": "0x073a55ebf0995622ed35c2c906cfd5ac82babafe91e4734fa9e90fa1e73bed92",
          "transactionIndex": "0x84",
          "logIndex": "0x19f",
          "removed": false
        }
      ],
      "logsBloom": "0x00000004000000000000000000000000000000000000000000000000000100000000000000000000000000000000000000000000002000000000000000000080040000000000000000000000000000000000000000002000000000000000000000000000000000000000000000000000000080000000000000000000000000000000000000000000000000000000000000000000002000000000000000000000000000000000000000000000000000000000000000000000001000000000000000000000000000000000000000020020000000000000000100000000002000000000000000080000000000000000000000000000000200000000000000000000",
      "type": "0x2",
      "transactionHash": "0x073a55ebf0995622ed35c2c906cfd5ac82babafe91e4734fa9e90fa1e73bed92",
      "transactionIndex": "0x84",
      "blockHash": "0xd0c1064a33c855eea97ace9eb8fb83a222c59e5f6cf67552344d56d6b1a2f207",
      "blockNumber": "0x16b05cf",
      "gasUsed": "0xdbb4",
      "effectiveGasPrice": "0x1dae01f",
      "from": "0x570f581d23a2ab09fd1990279d9db6f5dce18f4a",
      "to": "0x4e99472385a2522aa292b008da294a78f420a367",
      "contractAddress": null,
      "l1BaseFeeScalar": "0x8dd",
      "l1BlobBaseFee": "0x384cf5f4e",
      "l1BlobBaseFeeScalar": "0x101c12",
      "l1Fee": "0x1a8222c4c1d",
      "l1GasPrice": "0x78fe6f948",
      "l1GasUsed": "0x6a4"
    },
    {
      "status": "0x1",
      "cumulativeGasUsed": "0x191cb14",
      "logs": [
        {
          "address": "0x4e99472385a2522aa292b008da294a78f420a367",
          "topics": [
            "0x2f8788117e7eff1d82e926ec794901d17c78024a50270940304540a733656f0d",
            "0x31e0210044b4f6757ce6aa31f9c6e8d4896d24a755014887391a926c5224d959",
            "0x000000000000000000000000a6afc2be04a1c2ed8bec7f924307b6254faff750",
            "0x000000000000000000000000570f581d23a2ab09fd1990279d9db6f5dce18f4a"
          ],
          "data": "0x",
          "blockHash": "0xd0c1064a33c855eea97ace9eb8fb83a222c59e5f6cf67552344d56d6b1a2f207",
          "blockNumber": "0x16b05cf",
          "transactionHash": "0x96d11169687f7da39bf663c7d26446effeb4418ba6b035f54dc0e6ba8a70bb43",
          "transactionIndex": "0x8f",
          "logIndex": "0x1c6",
          "removed": false
        }
      ],
      "logsBloom": "0x00000004000000000000000000000000001000000000000000000000000000000000000000000000000000000000000000000000000000000000000000000080040000000000000000000000000000000000000000000000000000000000000000000000000000000000000000000000000080000000000000000000000000000000000000000000000000000000000000000000002000000000000000000000000000000000000000000000020000000000002000000000001000000000000000000000000000000000000000020020000000000000000100000000002000000000000000080000000000000000000000000000000200000000000000000000",
      "type": "0x2",
      "transactionHash": "0x96d11169687f7da39bf663c7d26446effeb4418ba6b035f54dc0e6ba8a70bb43",
      "transactionIndex": "0x8f",
      "blockHash": "0xd0c1064a33c855eea97ace9eb8fb83a222c59e5f6cf67552344d56d6b1a2f207",
      "blockNumber": "0x16b05cf",
      "gasUsed": "0xdbb4",
      "effectiveGasPrice": "0x1dae01f",
      "from": "0x570f581d23a2ab09fd1990279d9db6f5dce18f4a",
      "to": "0x4e99472385a2522aa292b008da294a78f420a367",
      "contractAddress": null,
      "l1BaseFeeScalar": "0x8dd",
      "l1BlobBaseFee": "0x384cf5f4e",
      "l1BlobBaseFeeScalar": "0x101c12",
      "l1Fee": "0x1a8222c4c1d",
      "l1GasPrice": "0x78fe6f948",
      "l1GasUsed": "0x6a4"
    },
    {
      "status": "0x1",
      "cumulativeGasUsed": "0x192a6c8",
      "logs": [
        {
          "address": "0x4e99472385a2522aa292b008da294a78f420a367",
          "topics": [
            "0x2f8788117e7eff1d82e926ec794901d17c78024a50270940304540a733656f0d",
            "0x31e0210044b4f6757ce6aa31f9c6e8d4896d24a755014887391a926c5224d959",
            "0x0000000000000000000000001857e926bb5e5b12e9275818b03f79cdfd799999",
            "0x000000000000000000000000570f581d23a2ab09fd1990279d9db6f5dce18f4a"
          ],
          "data": "0x",
          "blockHash": "0xd0c1064a33c855eea97ace9eb8fb83a222c59e5f6cf67552344d56d6b1a2f207",
          "blockNumber": "0x16b05cf",
          "transactionHash": "0x8adc62aa454786dc5d042651bac52b453a629ff3d26a0421364e718423bc35e7",
          "transactionIndex": "0x90",
          "logIndex": "0x1c7",
          "removed": false
        }
      ],
      "logsBloom": "0x00000004000000000000000000000000000000000000000000000000000100000000000000000000000000000000000000000000000000000000000000000080040000000000000000000000000000000000000000000000000000000000000000000000000000000000000000000000000080000000000000000000000000000000000000000000000000000000000000000000002000000000000000000000000000000000000000000000000000000000000000000000001000000000000000000000000000000000000000020020000000000000000108000000002000000000000000080008000000000000000000000000000200000000000000000000",
      "type": "0x2",
      "transactionHash": "0x8adc62aa454786dc5d042651bac52b453a629ff3d26a0421364e718423bc35e7",
      "transactionIndex": "0x90",
      "blockHash": "0xd0c1064a33c855eea97ace9eb8fb83a222c59e5f6cf67552344d56d6b1a2f207",
      "blockNumber": "0x16b05cf",
      "gasUsed": "0xdbb4",
      "effectiveGasPrice": "0x1dae01f",
      "from": "0x570f581d23a2ab09fd1990279d9db6f5dce18f4a",
      "to": "0x4e99472385a2522aa292b008da294a78f420a367",
      "contractAddress": null,
      "l1BaseFeeScalar": "0x8dd",
      "l1BlobBaseFee": "0x384cf5f4e",
      "l1BlobBaseFeeScalar": "0x101c12",
      "l1Fee": "0x1a8222c4c1d",
      "l1GasPrice": "0x78fe6f948",
      "l1GasUsed": "0x6a4"
    },
    {
      "status": "0x1",
      "cumulativeGasUsed": "0x19382ca",
      "logs": [
        {
          "address": "0x4f94c14440ef38b7e551ccfb7a2ce4e464e20f14",
          "topics": [
            "0x2f8788117e7eff1d82e926ec794901d17c78024a50270940304540a733656f0d",
            "0xcbd69888d9fba90fe49a0c7a1d66c35e381e4ebf3a66968c85c5beacc25db59a",
            "0x000000000000000000000000570f581d23a2ab09fd1990279d9db6f5dce18f4a",
            "0x000000000000000000000000570f581d23a2ab09fd1990279d9db6f5dce18f4a"
          ],
          "data": "0x",
          "blockHash": "0xd0c1064a33c855eea97ace9eb8fb83a222c59e5f6cf67552344d56d6b1a2f207",
          "blockNumber": "0x16b05cf",
          "transactionHash": "0xd6282de60ae5d6034fa5b6498c8b2a838557177eca0a0cedbf1b3c5d0d66a0d0",
          "transactionIndex": "0x91",
          "logIndex": "0x1c8",
          "removed": false
        }
      ],
      "logsBloom": "0x00000004000000000000000000000000000000000000000000000000000000000000000000000000000000200000000000000000000000000000000800000080040000000000000000000000000000000000000000000000000000000000000000000000000000004000000000000000000000000000000000000000000000000000000000000000000000000000000000000000000000000000000000000000000000000000000000000200000000000000000000000000001000000000000000000000000000000000000000000000000000000000000100000000002000000000000000000000000000000080000000000000000000000000000000000004",
      "type": "0x2",
      "transactionHash": "0xd6282de60ae5d6034fa5b6498c8b2a838557177eca0a0cedbf1b3c5d0d66a0d0",
      "transactionIndex": "0x91",
      "blockHash": "0xd0c1064a33c855eea97ace9eb8fb83a222c59e5f6cf67552344d56d6b1a2f207",
      "blockNumber": "0x16b05cf",
      "gasUsed": "0xdc02",
      "effectiveGasPrice": "0x1dae01f",
      "from": "0x570f581d23a2ab09fd1990279d9db6f5dce18f4a",
      "to": "0x4f94c14440ef38b7e551ccfb7a2ce4e464e20f14",
      "contractAddress": null,
      "l1BaseFeeScalar": "0x8dd",
      "l1BlobBaseFee": "0x384cf5f4e",
      "l1BlobBaseFeeScalar": "0x101c12",
      "l1Fee": "0x1a8222c4c1d",
      "l1GasPrice": "0x78fe6f948",
      "l1GasUsed": "0x6a4"
    },
    {
      "status": "0x1",
      "cumulativeGasUsed": "0x1951494",
      "logs": [
        {
          "address": "0x4f94c14440ef38b7e551ccfb7a2ce4e464e20f14",
          "topics": [
            "0x2f8788117e7eff1d82e926ec794901d17c78024a50270940304540a733656f0d",
            "0xcbd69888d9fba90fe49a0c7a1d66c35e381e4ebf3a66968c85c5beacc25db59a",
            "0x0000000000000000000000006bf125d25cc4d00fab06c30095f8dcbe2617bbbd",
            "0x000000000000000000000000570f581d23a2ab09fd1990279d9db6f5dce18f4a"
          ],
          "data": "0x",
          "blockHash": "0xd0c1064a33c855eea97ace9eb8fb83a222c59e5f6cf67552344d56d6b1a2f207",
          "blockNumber": "0x16b05cf",
          "transactionHash": "0xa18bd962b42586f68482e75f4c7dcac3b1c92f831cdd4ce51a6876d67fdf1b50",
          "transactionIndex": "0x93",
          "logIndex": "0x1ca",
          "removed": false
        }
      ],
      "logsBloom": "0x00000004100000000100000000000000000000000000000000000000000000000000000000000000000000200000000000000000000000000000000800000080040000000000000000000000000000000000000000000000000000000000000000000000000000004000000000000000000000000000000000000000000000000000000000000000000000000000000000000000000000000000000000000000000000000000000000000200000000000000000000000000001000000000000000000000000000000000000000000000000000000000000100000000002000000000000000002000000000000080000000000000000000000000000000000004",
      "type": "0x2",
      "transactionHash": "0xa18bd962b42586f68482e75f4c7dcac3b1c92f831cdd4ce51a6876d67fdf1b50",
      "transactionIndex": "0x93",
      "blockHash": "0xd0c1064a33c855eea97ace9eb8fb83a222c59e5f6cf67552344d56d6b1a2f207",
      "blockNumber": "0x16b05cf",
      "gasUsed": "0xdbf6",
      "effectiveGasPrice": "0x1dae01f",
      "from": "0x570f581d23a2ab09fd1990279d9db6f5dce18f4a",
      "to": "0x4f94c14440ef38b7e551ccfb7a2ce4e464e20f14",
      "contractAddress": null,
      "l1BaseFeeScalar": "0x8dd",
      "l1BlobBaseFee": "0x384cf5f4e",
      "l1BlobBaseFeeScalar": "0x101c12",
      "l1Fee": "0x1a8222c4c1d",
      "l1GasPrice": "0x78fe6f948",
      "l1GasUsed": "0x6a4"
    },
    {
      "status": "0x1",
      "cumulativeGasUsed": "0x195f08a",
      "logs": [
        {
          "address": "0x4f94c14440ef38b7e551ccfb7a2ce4e464e20f14",
          "topics": [
            "0x2f8788117e7eff1d82e926ec794901d17c78024a50270940304540a733656f0d",
            "0xe6ad9a47fbda1dc18de1eb5eeb7d935e5e81b4748f3cfc61e233e64f88182060",
            "0x0000000000000000000000006bf125d25cc4d00fab06c30095f8dcbe2617bbbd",
            "0x000000000000000000000000570f581d23a2ab09fd1990279d9db6f5dce18f4a"
          ],
          "data": "0x",
          "blockHash": "0xd0c1064a33c855eea97ace9eb8fb83a222c59e5f6cf67552344d56d6b1a2f207",
          "blockNumber": "0x16b05cf",
          "transactionHash": "0x772fbd8883ab12e388e2c9a5541001a69f8cf77606fce6670836bfe94c2965c2",
          "transactionIndex": "0x94",
          "logIndex": "0x1cb",
          "removed": false
        }
      ],
      "logsBloom": "0x00000004100000000100000000000000000000000000000000000000000000000000000000000000000000200000000000000000000000000000000800000080040000000000000000000000000000000000000000000000000000000000000000000000000000004000000000000000000000000000000000000000000000000000000000000000000000000000000000000000000000000000000000000000000000000000000000000000000000000000000000000000001000000000000000000000000000000000000000000000000000000000000100000000002000000008004000002000000000000000000000080000000000000000000000000000",
      "type": "0x2",
      "transactionHash": "0x772fbd8883ab12e388e2c9a5541001a69f8cf77606fce6670836bfe94c2965c2",
      "transactionIndex": "0x94",
      "blockHash": "0xd0c1064a33c855eea97ace9eb8fb83a222c59e5f6cf67552344d56d6b1a2f207",
      "blockNumber": "0x16b05cf",
      "gasUsed": "0xdbf6",
      "effectiveGasPrice": "0x1dae01f",
      "from": "0x570f581d23a2ab09fd1990279d9db6f5dce18f4a",
      "to": "0x4f94c14440ef38b7e551ccfb7a2ce4e464e20f14",
      "contractAddress": null,
      "l1BaseFeeScalar": "0x8dd",
      "l1BlobBaseFee": "0x384cf5f4e",
      "l1BlobBaseFeeScalar": "0x101c12",
      "l1Fee": "0x1a8222c4c1d",
      "l1GasPrice": "0x78fe6f948",
      "l1GasUsed": "0x6a4"
    },
    {
      "status": "0x1",
      "cumulativeGasUsed": "0x1a6d912",
      "logs": [
        {
          "address": "0x4f94c14440ef38b7e551ccfb7a2ce4e464e20f14",
          "topics": [
            "0x2f8788117e7eff1d82e926ec794901d17c78024a50270940304540a733656f0d",
            "0xba474fc2b8347e255f10252fdae69399bac572751768da2e97a282acc34401ea",
            "0x0000000000000000000000006bf125d25cc4d00fab06c30095f8dcbe2617bbbd",
            "0x000000000000000000000000570f581d23a2ab09fd1990279d9db6f5dce18f4a"
          ],
          "data": "0x",
          "blockHash": "0xd0c1064a33c855eea97ace9eb8fb83a222c59e5f6cf67552344d56d6b1a2f207",
          "blockNumber": "0x16b05cf",
          "transactionHash": "0x5b8518e1d7cea5d73f25f23cd1293d01e27c5b74aa4d58231bde65c8932c7d87",
          "transactionIndex": "0x9c",
          "logIndex": "0x1e8",
          "removed": false
        }
      ],
      "logsBloom": "0x00000004100000000100000000000000400000000000000000000000000000000000000000000000000000200000000000000000000000000000000800000080040000000000000000000000000000000000000000000000000040000000000000000000000000004000000000000000000000000000000000000000000000000000000000000000000000000000000000000000100000000000000000000000000000000000000000000000000000000000000000000000001000000000000000000000000000000000000000000000000000000000000100000000002000000000000000002000000000000000000000000000000000000000000000000000",
      "type": "0x2",
      "transactionHash": "0x5b8518e1d7cea5d73f25f23cd1293d01e27c5b74aa4d58231bde65c8932c7d87",
      "transactionIndex": "0x9c",
      "blockHash": "0xd0c1064a33c855eea97ace9eb8fb83a222c59e5f6cf67552344d56d6b1a2f207",
      "blockNumber": "0x16b05cf",
      "gasUsed": "0xdbf6",
      "effectiveGasPrice": "0x1dae01f",
      "from": "0x570f581d23a2ab09fd1990279d9db6f5dce18f4a",
      "to": "0x4f94c14440ef38b7e551ccfb7a2ce4e464e20f14",
      "contractAddress": null,
      "l1BaseFeeScalar": "0x8dd",
      "l1BlobBaseFee": "0x384cf5f4e",
      "l1BlobBaseFeeScalar": "0x101c12",
      "l1Fee": "0x1a8222c4c1d",
      "l1GasPrice": "0x78fe6f948",
      "l1GasUsed": "0x6a4"
    },
    {
      "status": "0x1",
      "cumulativeGasUsed": "0x1a7b514",
      "logs": [
        {
          "address": "0xa6afc2be04a1c2ed8bec7f924307b6254faff750",
          "topics": [
            "0x2f8788117e7eff1d82e926ec794901d17c78024a50270940304540a733656f0d",
            "0xcbd69888d9fba90fe49a0c7a1d66c35e381e4ebf3a66968c85c5beacc25db59a",
            "0x000000000000000000000000570f581d23a2ab09fd1990279d9db6f5dce18f4a",
            "0x000000000000000000000000570f581d23a2ab09fd1990279d9db6f5dce18f4a"
          ],
          "data": "0x",
          "blockHash": "0xd0c1064a33c855eea97ace9eb8fb83a222c59e5f6cf67552344d56d6b1a2f207",
          "blockNumber": "0x16b05cf",
          "transactionHash": "0x48271a6f424a5091e94329466eb553f59c2fc3814cc191efe529ef6adc359084",
          "transactionIndex": "0x9d",
          "logIndex": "0x1e9",
          "removed": false
        }
      ],
      "logsBloom": "0x00000004000000000000000000000000000000000000000000000000000000000000000000000000000000000000000000000000000000000000000000000080040000000000000000000000000000000000000000000000000000000000000000000000000000000000000000000000000000000000000000000000000000000000000000000000000000000000000000000000008000000000000020000000000000000000000000000200000000000000000000000000001000000000000000080000000000000000000000000000000000000000000100000000002000000000000000000000000000000080000000000000000000000000000000000004",
      "type": "0x2",
      "transactionHash": "0x48271a6f424a5091e94329466eb553f59c2fc3814cc191efe529ef6adc359084",
      "transactionIndex": "0x9d",
      "blockHash": "0xd0c1064a33c855eea97ace9eb8fb83a222c59e5f6cf67552344d56d6b1a2f207",
      "blockNumber": "0x16b05cf",
      "gasUsed": "0xdc02",
      "effectiveGasPrice": "0x1dae01f",
      "from": "0x570f581d23a2ab09fd1990279d9db6f5dce18f4a",
      "to": "0xa6afc2be04a1c2ed8bec7f924307b6254faff750",
      "contractAddress": null,
      "l1BaseFeeScalar": "0x8dd",
      "l1BlobBaseFee": "0x384cf5f4e",
      "l1BlobBaseFeeScalar": "0x101c12",
      "l1Fee": "0x1a8222c4c1d",
      "l1GasPrice": "0x78fe6f948",
      "l1GasUsed": "0x6a4"
    },
    {
      "status": "0x1",
      "cumulativeGasUsed": "0x1ae9f8b",
      "logs": [
        {
          "address": "0xa6afc2be04a1c2ed8bec7f924307b6254faff750",
          "topics": [
            "0x2f8788117e7eff1d82e926ec794901d17c78024a50270940304540a733656f0d",
            "0xcbd69888d9fba90fe49a0c7a1d66c35e381e4ebf3a66968c85c5beacc25db59a",
            "0x0000000000000000000000006bf125d25cc4d00fab06c30095f8dcbe2617bbbd",
            "0x000000000000000000000000570f581d23a2ab09fd1990279d9db6f5dce18f4a"
          ],
          "data": "0x",
          "blockHash": "0xd0c1064a33c855eea97ace9eb8fb83a222c59e5f6cf67552344d56d6b1a2f207",
          "blockNumber": "0x16b05cf",
          "transactionHash": "0x9be41a770a00cedb4a25fc2644b0230f1552e1445c537bf32ce0ddacea78ea01",
          "transactionIndex": "0x9f",
          "logIndex": "0x1f8",
          "removed": false
        }
      ],
      "logsBloom": "0x00000004100000000100000000000000000000000000000000000000000000000000000000000000000000000000000000000000000000000000000000000080040000000000000000000000000000000000000000000000000000000000000000000000000000000000000000000000000000000000000000000000000000000000000000000000000000000000000000000000008000000000000020000000000000000000000000000200000000000000000000000000001000000000000000080000000000000000000000000000000000000000000100000000002000000000000000002000000000000080000000000000000000000000000000000004",
      "type": "0x2",
      "transactionHash": "0x9be41a770a00cedb4a25fc2644b0230f1552e1445c537bf32ce0ddacea78ea01",
      "transactionIndex": "0x9f",
      "blockHash": "0xd0c1064a33c855eea97ace9eb8fb83a222c59e5f6cf67552344d56d6b1a2f207",
      "blockNumber": "0x16b05cf",
      "gasUsed": "0xdbf6",
      "effectiveGasPrice": "0x1dae01f",
      "from": "0x570f581d23a2ab09fd1990279d9db6f5dce18f4a",
      "to": "0xa6afc2be04a1c2ed8bec7f924307b6254faff750",
      "contractAddress": null,
      "l1BaseFeeScalar": "0x8dd",
      "l1BlobBaseFee": "0x384cf5f4e",
      "l1BlobBaseFeeScalar": "0x101c12",
      "l1Fee": "0x1a8222c4c1d",
      "l1GasPrice": "0x78fe6f948",
      "l1GasUsed": "0x6a4"
    },
    {
      "status": "0x1",
      "cumulativeGasUsed": "0x1b276ca",
      "logs": [
        {
          "address": "0xa6afc2be04a1c2ed8bec7f924307b6254faff750",
          "topics": [
            "0x2f8788117e7eff1d82e926ec794901d17c78024a50270940304540a733656f0d",
            "0xe6ad9a47fbda1dc18de1eb5eeb7d935e5e81b4748f3cfc61e233e64f88182060",
            "0x0000000000000000000000006bf125d25cc4d00fab06c30095f8dcbe2617bbbd",
            "0x000000000000000000000000570f581d23a2ab09fd1990279d9db6f5dce18f4a"
          ],
          "data": "0x",
          "blockHash": "0xd0c1064a33c855eea97ace9eb8fb83a222c59e5f6cf67552344d56d6b1a2f207",
          "blockNumber": "0x16b05cf",
          "transactionHash": "0xe81f3c3ed98d3c1c80b739b868aeb5eb38503b22f6bc2e32e9ce160d54cdf3e8",
          "transactionIndex": "0xa3",
          "logIndex": "0x201",
          "removed": false
        }
      ],
      "logsBloom": "0x00000004100000000100000000000000000000000000000000000000000000000000000000000000000000000000000000000000000000000000000000000080040000000000000000000000000000000000000000000000000000000000000000000000000000000000000000000000000000000000000000000000000000000000000000000000000000000000000000000000008000000000000020000000000000000000000000000000000000000000000000000000001000000000000000080000000000000000000000000000000000000000000100000000002000000008004000002000000000000000000000080000000000000000000000000000",
      "type": "0x2",
      "transactionHash": "0xe81f3c3ed98d3c1c80b739b868aeb5eb38503b22f6bc2e32e9ce160d54cdf3e8",
      "transactionIndex": "0xa3",
      "blockHash": "0xd0c1064a33c855eea97ace9eb8fb83a222c59e5f6cf67552344d56d6b1a2f207",
      "blockNumber": "0x16b05cf",
      "gasUsed": "0xdbf6",
      "effectiveGasPrice": "0x1dae01f",
      "from": "0x570f581d23a2ab09fd1990279d9db6f5dce18f4a",
      "to": "0xa6afc2be04a1c2ed8bec7f924307b6254faff750",
      "contractAddress": null,
      "l1BaseFeeScalar": "0x8dd",
      "l1BlobBaseFee": "0x384cf5f4e",
      "l1BlobBaseFeeScalar": "0x101c12",
      "l1Fee": "0x1a8222c4c1d",
      "l1GasPrice": "0x78fe6f948",
      "l1GasUsed": "0x6a4"
    },
    {
      "status": "0x1",
      "cumulativeGasUsed": "0x1b7da7f",
      "logs": [
        {
          "address": "0xa6afc2be04a1c2ed8bec7f924307b6254faff750",
          "topics": [
            "0x2f8788117e7eff1d82e926ec794901d17c78024a50270940304540a733656f0d",
            "0xba474fc2b8347e255f10252fdae69399bac572751768da2e97a282acc34401ea",
            "0x0000000000000000000000006bf125d25cc4d00fab06c30095f8dcbe2617bbbd",
            "0x000000000000000000000000570f581d23a2ab09fd1990279d9db6f5dce18f4a"
          ],
          "data": "0x",
          "blockHash": "0xd0c1064a33c855eea97ace9eb8fb83a222c59e5f6cf67552344d56d6b1a2f207",
          "blockNumber": "0x16b05cf",
          "transactionHash": "0x4044d441c25e8015d786f695707bb3f38a88c16fd6c6e2f19dbd9ede099df684",
          "transactionIndex": "0xa5",
          "logIndex": "0x207",
          "removed": false
        }
      ],
      "logsBloom": "0x00000004100000000100000000000000400000000000000000000000000000000000000000000000000000000000000000000000000000000000000000000080040000000000000000000000000000000000000000000000000040000000000000000000000000000000000000000000000000000000000000000000000000000000000000000000000000000000000000000000108000000000000020000000000000000000000000000000000000000000000000000000001000000000000000080000000000000000000000000000000000000000000100000000002000000000000000002000000000000000000000000000000000000000000000000000",
      "type": "0x2",
      "transactionHash": "0x4044d441c25e8015d786f695707bb3f38a88c16fd6c6e2f19dbd9ede099df684",
      "transactionIndex": "0xa5",
      "blockHash": "0xd0c1064a33c855eea97ace9eb8fb83a222c59e5f6cf67552344d56d6b1a2f207",
      "blockNumber": "0x16b05cf",
      "gasUsed": "0xdbf6",
      "effectiveGasPrice": "0x1dae01f",
      "from": "0x570f581d23a2ab09fd1990279d9db6f5dce18f4a",
      "to": "0xa6afc2be04a1c2ed8bec7f924307b6254faff750",
      "contractAddress": null,
      "l1BaseFeeScalar": "0x8dd",
      "l1BlobBaseFee": "0x384cf5f4e",
      "l1BlobBaseFeeScalar": "0x101c12",
      "l1Fee": "0x1a8222c4c1d",
      "l1GasPrice": "0x78fe6f948",
      "l1GasUsed": "0x6a4"
    },
    {
      "status": "0x1",
      "cumulativeGasUsed": "0x1b8b681",
      "logs": [
        {
          "address": "0x1857e926bb5e5b12e9275818b03f79cdfd799999",
          "topics": [
            "0x2f8788117e7eff1d82e926ec794901d17c78024a50270940304540a733656f0d",
            "0xcbd69888d9fba90fe49a0c7a1d66c35e381e4ebf3a66968c85c5beacc25db59a",
            "0x000000000000000000000000570f581d23a2ab09fd1990279d9db6f5dce18f4a",
            "0x000000000000000000000000570f581d23a2ab09fd1990279d9db6f5dce18f4a"
          ],
          "data": "0x",
          "blockHash": "0xd0c1064a33c855eea97ace9eb8fb83a222c59e5f6cf67552344d56d6b1a2f207",
          "blockNumber": "0x16b05cf",
          "transactionHash": "0x4d7e7c4c280384c85ed819d95627674174488708b6765e8c144e112fce9b24b0",
          "transactionIndex": "0xa6",
          "logIndex": "0x208",
          "removed": false
        }
      ],
      "logsBloom": "0x00000004000000000000000000000000000000000000000000000000000000000000000000000000000000000000000000000000000000000000000000000080040000000000000000000000000000000000000000000000000000000000000000000000000000000000000000000000000000000000000000000000000000000000000000000000000000000000000200000000000000000000000000000000000000000000000000000200000000000000000000000000001000000000000000000000000000008000000000000000000000000000000100000000002020000000000000000000000000000080000000000000000000000000000000000004",
      "type": "0x2",
      "transactionHash": "0x4d7e7c4c280384c85ed819d95627674174488708b6765e8c144e112fce9b24b0",
      "transactionIndex": "0xa6",
      "blockHash": "0xd0c1064a33c855eea97ace9eb8fb83a222c59e5f6cf67552344d56d6b1a2f207",
      "blockNumber": "0x16b05cf",
      "gasUsed": "0xdc02",
      "effectiveGasPrice": "0x1dae01f",
      "from": "0x570f581d23a2ab09fd1990279d9db6f5dce18f4a",
      "to": "0x1857e926bb5e5b12e9275818b03f79cdfd799999",
      "contractAddress": null,
      "l1BaseFeeScalar": "0x8dd",
      "l1BlobBaseFee": "0x384cf5f4e",
      "l1BlobBaseFeeScalar": "0x101c12",
      "l1Fee": "0x1ab78824747",
      "l1GasPrice": "0x78fe6f948",
      "l1GasUsed": "0x6b2"
    },
    {
      "status": "0x1",
      "cumulativeGasUsed": "0x1b99277",
      "logs": [
        {
          "address": "0x1857e926bb5e5b12e9275818b03f79cdfd799999",
          "topics": [
            "0x2f8788117e7eff1d82e926ec794901d17c78024a50270940304540a733656f0d",
            "0xcbd69888d9fba90fe49a0c7a1d66c35e381e4ebf3a66968c85c5beacc25db59a",
            "0x0000000000000000000000006bf125d25cc4d00fab06c30095f8dcbe2617bbbd",
            "0x000000000000000000000000570f581d23a2ab09fd1990279d9db6f5dce18f4a"
          ],
          "data": "0x",
          "blockHash": "0xd0c1064a33c855eea97ace9eb8fb83a222c59e5f6cf67552344d56d6b1a2f207",
          "blockNumber": "0x16b05cf",
          "transactionHash": "0x295ce1a1766f146b76fb45efccfbad43718c9b6541d1a5bdbcb50a63e1542481",
          "transactionIndex": "0xa7",
          "logIndex": "0x209",
          "removed": false
        }
      ],
      "logsBloom": "0x00000004100000000100000000000000000000000000000000000000000000000000000000000000000000000000000000000000000000000000000000000080040000000000000000000000000000000000000000000000000000000000000000000000000000000000000000000000000000000000000000000000000000000000000000000000000000000000000200000000000000000000000000000000000000000000000000000200000000000000000000000000001000000000000000000000000000008000000000000000000000000000000100000000002020000000000000002000000000000080000000000000000000000000000000000004",
      "type": "0x2",
      "transactionHash": "0x295ce1a1766f146b76fb45efccfbad43718c9b6541d1a5bdbcb50a63e1542481",
      "transactionIndex": "0xa7",
      "blockHash": "0xd0c1064a33c855eea97ace9eb8fb83a222c59e5f6cf67552344d56d6b1a2f207",
      "blockNumber": "0x16b05cf",
      "gasUsed": "0xdbf6",
      "effectiveGasPrice": "0x1dae01f",
      "from": "0x570f581d23a2ab09fd1990279d9db6f5dce18f4a",
      "to": "0x1857e926bb5e5b12e9275818b03f79cdfd799999",
      "contractAddress": null,
      "l1BaseFeeScalar": "0x8dd",
      "l1BlobBaseFee": "0x384cf5f4e",
      "l1BlobBaseFeeScalar": "0x101c12",
      "l1Fee": "0x1ab78824747",
      "l1GasPrice": "0x78fe6f948",
      "l1GasUsed": "0x6b2"
    },
    {
      "status": "0x1",
      "cumulativeGasUsed": "0x1ba6e6d",
      "logs": [
        {
          "address": "0x1857e926bb5e5b12e9275818b03f79cdfd799999",
          "topics": [
            "0x2f8788117e7eff1d82e926ec794901d17c78024a50270940304540a733656f0d",
            "0xe6ad9a47fbda1dc18de1eb5eeb7d935e5e81b4748f3cfc61e233e64f88182060",
            "0x0000000000000000000000006bf125d25cc4d00fab06c30095f8dcbe2617bbbd",
            "0x000000000000000000000000570f581d23a2ab09fd1990279d9db6f5dce18f4a"
          ],
          "data": "0x",
          "blockHash": "0xd0c1064a33c855eea97ace9eb8fb83a222c59e5f6cf67552344d56d6b1a2f207",
          "blockNumber": "0x16b05cf",
          "transactionHash": "0x7f2679d2e2c01b2f6e91cf3241308792d836dc518156b77badfbf31fc302ff78",
          "transactionIndex": "0xa8",
          "logIndex": "0x20a",
          "removed": false
        }
      ],
      "logsBloom": "0x00000004100000000100000000000000000000000000000000000000000000000000000000000000000000000000000000000000000000000000000000000080040000000000000000000000000000000000000000000000000000000000000000000000000000000000000000000000000000000000000000000000000000000000000000000000000000000000000200000000000000000000000000000000000000000000000000000000000000000000000000000000001000000000000000000000000000008000000000000000000000000000000100000000002020000008004000002000000000000000000000080000000000000000000000000000",
      "type": "0x2",
      "transactionHash": "0x7f2679d2e2c01b2f6e91cf3241308792d836dc518156b77badfbf31fc302ff78",
      "transactionIndex": "0xa8",
      "blockHash": "0xd0c1064a33c855eea97ace9eb8fb83a222c59e5f6cf67552344d56d6b1a2f207",
      "blockNumber": "0x16b05cf",
      "gasUsed": "0xdbf6",
      "effectiveGasPrice": "0x1dae01f",
      "from": "0x570f581d23a2ab09fd1990279d9db6f5dce18f4a",
      "to": "0x1857e926bb5e5b12e9275818b03f79cdfd799999",
      "contractAddress": null,
      "l1BaseFeeScalar": "0x8dd",
      "l1BlobBaseFee": "0x384cf5f4e",
      "l1BlobBaseFeeScalar": "0x101c12",
      "l1Fee": "0x1ab78824747",
      "l1GasPrice": "0x78fe6f948",
      "l1GasUsed": "0x6b2"
    },
    {
      "status": "0x1",
      "cumulativeGasUsed": "0x1d7a5f1",
      "logs": [
        {
          "address": "0x1857e926bb5e5b12e9275818b03f79cdfd799999",
          "topics": [
            "0x2f8788117e7eff1d82e926ec794901d17c78024a50270940304540a733656f0d",
            "0xba474fc2b8347e255f10252fdae69399bac572751768da2e97a282acc34401ea",
            "0x0000000000000000000000006bf125d25cc4d00fab06c30095f8dcbe2617bbbd",
            "0x000000000000000000000000570f581d23a2ab09fd1990279d9db6f5dce18f4a"
          ],
          "data": "0x",
          "blockHash": "0x38764e341823481cb1ad27bccad86fce855b90c205370f477a6daffff413be15",
          "blockNumber": "0x16b05d0",
          "transactionHash": "0xaa25ee05d2c73de655f91e7b53773c9aa41e88ac9cb434dc5dd0f6e5cf3a48f6",
          "transactionIndex": "0xb8",
          "logIndex": "0x2d1",
          "removed": false
        }
      ],
      "logsBloom": "0x00000004100000000100000000000000400000000000000000000000000000000000000000000000000000000000000000000000000000000000000000000080040000000000000000000000000000000000000000000000000040000000000000000000000000000000000000000000000000000000000000000000000000000000000000000000000000000000000200000000100000000000000000000000000000000000000000000000000000000000000000000000001000000000000000000000000000008000000000000000000000000000000100000000002020000000000000002000000000000000000000000000000000000000000000000000",
      "type": "0x2",
      "transactionHash": "0xaa25ee05d2c73de655f91e7b53773c9aa41e88ac9cb434dc5dd0f6e5cf3a48f6",
      "transactionIndex": "0xb8",
      "blockHash": "0x38764e341823481cb1ad27bccad86fce855b90c205370f477a6daffff413be15",
      "blockNumber": "0x16b05d0",
      "gasUsed": "0xdbf6",
      "effectiveGasPrice": "0x1db0c79",
      "from": "0x570f581d23a2ab09fd1990279d9db6f5dce18f4a",
      "to": "0x1857e926bb5e5b12e9275818b03f79cdfd799999",
      "contractAddress": null,
      "l1BaseFeeScalar": "0x8dd",
      "l1BlobBaseFee": "0x320b8540d",
      "l1BlobBaseFeeScalar": "0x101c12",
      "l1Fee": "0x17fb8c6a8c8",
      "l1GasPrice": "0x7af733b4c",
      "l1GasUsed": "0x6b2"
    },
    {
      "status": "0x1",
      "cumulativeGasUsed": "0x1d8ac93",
      "logs": [
        {
          "address": "0x4f94c14440ef38b7e551ccfb7a2ce4e464e20f14",
          "topics": [
            "0xdfbde0e8fc1c52ab3adee2eb2585df55ad05aa9c142896238a855d4544851ab9"
          ],
          "data": "0x000000000000000000000000000000000000000000000000000000000000000100000000000000000000000075e78d6659bbc2c1599464e153607a21947a466b",
          "blockHash": "0x38764e341823481cb1ad27bccad86fce855b90c205370f477a6daffff413be15",
          "blockNumber": "0x16b05d0",
          "transactionHash": "0xf4ad239e6ecac6a8790eb71fe87a0d6dfaa76146817d2e9d5819d641d1188632",
          "transactionIndex": "0xb9",
          "logIndex": "0x2d2",
          "removed": false
        }
      ],
      "logsBloom": "0x00000000000000000000000000000000000000000000000000000000000000000000000000000000000000200000000000000000000000000000000800000000000000000000000000000000000000000000000000000000000000000000000001000000000000004000000000000000000000000000000000000000000000000000000000000000000000000000000000000000000000000000000000000000000000000000000000000000000000000000000000000000000000000001000000000000000000000000000000000000000000000000000000000000000000000000000000000000000000002000000000000000000000000000000000000000",
      "type": "0x2",
      "transactionHash": "0xf4ad239e6ecac6a8790eb71fe87a0d6dfaa76146817d2e9d5819d641d1188632",
      "transactionIndex": "0xb9",
      "blockHash": "0x38764e341823481cb1ad27bccad86fce855b90c205370f477a6daffff413be15",
      "blockNumber": "0x16b05d0",
      "gasUsed": "0x106a2",
      "effectiveGasPrice": "0x1db0c79",
      "from": "0x570f581d23a2ab09fd1990279d9db6f5dce18f4a",
      "to": "0x4f94c14440ef38b7e551ccfb7a2ce4e464e20f14",
      "contractAddress": null,
      "l1BaseFeeScalar": "0x8dd",
      "l1BlobBaseFee": "0x320b8540d",
      "l1BlobBaseFeeScalar": "0x101c12",
      "l1Fee": "0x1661f9bf62d",
      "l1GasPrice": "0x7af733b4c",
      "l1GasUsed": "0x640"
    },
    {
      "status": "0x1",
      "cumulativeGasUsed": "0x1d9b31f",
      "logs": [
        {
          "address": "0x4f94c14440ef38b7e551ccfb7a2ce4e464e20f14",
          "topics": [
            "0xdfbde0e8fc1c52ab3adee2eb2585df55ad05aa9c142896238a855d4544851ab9"
          ],
          "data": "0x0000000000000000000000000000000000000000000000000000000000000002000000000000000000000000134ba1c4e7443fc5c0be8ca675df0be611bd589c",
          "blockHash": "0x38764e341823481cb1ad27bccad86fce855b90c205370f477a6daffff413be15",
          "blockNumber": "0x16b05d0",
          "transactionHash": "0x8f00da045bbd4eb429ce3bdef7bea7ac117194db3a575f116f910ade4655772c",
          "transactionIndex": "0xba",
          "logIndex": "0x2d3",
          "removed": false
        }
      ],
      "logsBloom": "0x00000000000000000000000000000000000000000000000000000000000000000000000000000000000000200000000000000000000000000000000800000000000000000000000000000000000000000000000000000000000000000000000001000000000000004000000000000000000000000000000000000000000000000000000000000000000000000000000000000000000000000000000000000000000000000000000000000000000000000000000000000000000000000001000000000000000000000000000000000000000000000000000000000000000000000000000000000000000000002000000000000000000000000000000000000000",
      "type": "0x2",
      "transactionHash": "0x8f00da045bbd4eb429ce3bdef7bea7ac117194db3a575f116f910ade4655772c",
      "transactionIndex": "0xba",
      "blockHash": "0x38764e341823481cb1ad27bccad86fce855b90c205370f477a6daffff413be15",
      "blockNumber": "0x16b05d0",
      "gasUsed": "0x1068c",
      "effectiveGasPrice": "0x1db0c79",
      "from": "0x570f581d23a2ab09fd1990279d9db6f5dce18f4a",
      "to": "0x4f94c14440ef38b7e551ccfb7a2ce4e464e20f14",
      "contractAddress": null,
      "l1BaseFeeScalar": "0x8dd",
      "l1BlobBaseFee": "0x320b8540d",
      "l1BlobBaseFeeScalar": "0x101c12",
      "l1Fee": "0x1661f9bf62d",
      "l1GasPrice": "0x7af733b4c",
      "l1GasUsed": "0x640"
    },
    {
      "status": "0x1",
      "cumulativeGasUsed": "0x1e0c1d7",
      "logs": [
        {
          "address": "0xa6afc2be04a1c2ed8bec7f924307b6254faff750",
          "topics": [
            "0xdfbde0e8fc1c52ab3adee2eb2585df55ad05aa9c142896238a855d4544851ab9"
          ],
          "data": "0x0000000000000000000000000000000000000000000000000000000000000001000000000000000000000000806c81138a52524ce218e3c6c19873f53334bf94",
          "blockHash": "0x38764e341823481cb1ad27bccad86fce855b90c205370f477a6daffff413be15",
          "blockNumber": "0x16b05d0",
          "transactionHash": "0xc63069b8a183264138bb6484e8af5188e5d69cd2ca3fce1ca972eeb07eb26b0e",
          "transactionIndex": "0xbf",
          "logIndex": "0x2dd",
          "removed": false
        }
      ],
      "logsBloom": "0x00000000000000000000000000000000000000000000000000000000000000000000000000000000000000000000000000000000000000000000000000000000000000000000000000000000000000000000000000000000000000000000000001000000000000000000000000000000000000000000000000000000000000000000000000000000000000000000000000000000008000000000000020000000000000000000000000000000000000000000000000000000000000000001000000080000000000000000000000000000000000000000000000000000000000000000000000000000000000002000000000000000000000000000000000000000",
      "type": "0x2",
      "transactionHash": "0xc63069b8a183264138bb6484e8af5188e5d69cd2ca3fce1ca972eeb07eb26b0e",
      "transactionIndex": "0xbf",
      "blockHash": "0x38764e341823481cb1ad27bccad86fce855b90c205370f477a6daffff413be15",
      "blockNumber": "0x16b05d0",
      "gasUsed": "0x106a2",
      "effectiveGasPrice": "0x1db0c79",
      "from": "0x570f581d23a2ab09fd1990279d9db6f5dce18f4a",
      "to": "0xa6afc2be04a1c2ed8bec7f924307b6254faff750",
      "contractAddress": null,
      "l1BaseFeeScalar": "0x8dd",
      "l1BlobBaseFee": "0x320b8540d",
      "l1BlobBaseFeeScalar": "0x101c12",
      "l1Fee": "0x1661f9bf62d",
      "l1GasPrice": "0x7af733b4c",
      "l1GasUsed": "0x640"
    },
    {
      "status": "0x1",
      "cumulativeGasUsed": "0x1e1c863",
      "logs": [
        {
          "address": "0xa6afc2be04a1c2ed8bec7f924307b6254faff750",
          "topics": [
            "0xdfbde0e8fc1c52ab3adee2eb2585df55ad05aa9c142896238a855d4544851ab9"
          ],
          "data": "0x0000000000000000000000000000000000000000000000000000000000000002000000000000000000000000cf041e8c66785c7bc41284c66b8ade5a02094a6e",
          "blockHash": "0x38764e341823481cb1ad27bccad86fce855b90c205370f477a6daffff413be15",
          "blockNumber": "0x16b05d0",
          "transactionHash": "0x505a22002f4dc927d8c9c5062f628c7ecbf87aeed065aff5961589dee05ed2b2",
          "transactionIndex": "0xc0",
          "logIndex": "0x2de",
          "removed": false
        }
      ],
      "logsBloom": "0x00000000000000000000000000000000000000000000000000000000000000000000000000000000000000000000000000000000000000000000000000000000000000000000000000000000000000000000000000000000000000000000000001000000000000000000000000000000000000000000000000000000000000000000000000000000000000000000000000000000008000000000000020000000000000000000000000000000000000000000000000000000000000000001000000080000000000000000000000000000000000000000000000000000000000000000000000000000000000002000000000000000000000000000000000000000",
      "type": "0x2",
      "transactionHash": "0x505a22002f4dc927d8c9c5062f628c7ecbf87aeed065aff5961589dee05ed2b2",
      "transactionIndex": "0xc0",
      "blockHash": "0x38764e341823481cb1ad27bccad86fce855b90c205370f477a6daffff413be15",
      "blockNumber": "0x16b05d0",
      "gasUsed": "0x1068c",
      "effectiveGasPrice": "0x1db0c79",
      "from": "0x570f581d23a2ab09fd1990279d9db6f5dce18f4a",
      "to": "0xa6afc2be04a1c2ed8bec7f924307b6254faff750",
      "contractAddress": null,
      "l1BaseFeeScalar": "0x8dd",
      "l1BlobBaseFee": "0x320b8540d",
      "l1BlobBaseFeeScalar": "0x101c12",
      "l1Fee": "0x1661f9bf62d",
      "l1GasPrice": "0x7af733b4c",
      "l1GasUsed": "0x640"
    },
    {
      "status": "0x1",
      "cumulativeGasUsed": "0x2b6bbbf",
      "logs": [
        {
          "address": "0x1857e926bb5e5b12e9275818b03f79cdfd799999",
          "topics": [
            "0xdfbde0e8fc1c52ab3adee2eb2585df55ad05aa9c142896238a855d4544851ab9"
          ],
          "data": "0x0000000000000000000000000000000000000000000000000000000000000001000000000000000000000000b0fc91a11d770bd7a6312944199e3a9de85057a3",
          "blockHash": "0x38764e341823481cb1ad27bccad86fce855b90c205370f477a6daffff413be15",
          "blockNumber": "0x16b05d0",
          "transactionHash": "0xcc78fcb8e36ffc1f697f83c1863ba294234266c0fb50b8664d815f398a11a431",
          "transactionIndex": "0xd2",
          "logIndex": "0x379",
          "removed": false
        }
      ],
      "logsBloom": "0x00000000000000000000000000000000000000000000000000000000000000000000000000000000000000000000000000000000000000000000000000000000000000000000000000000000000000000000000000000000000000000000000001000000000000000000000000000000000000000000000000000000000000000000000000000000000000000000000200000000000000000000000000000000000000000000000000000000000000000000000000000000000000000001000000000000000000008000000000000000000000000000000000000000000020000000000000000000000000002000000000000000000000000000000000000000",
      "type": "0x2",
      "transactionHash": "0xcc78fcb8e36ffc1f697f83c1863ba294234266c0fb50b8664d815f398a11a431",
      "transactionIndex": "0xd2",
      "blockHash": "0x38764e341823481cb1ad27bccad86fce855b90c205370f477a6daffff413be15",
      "blockNumber": "0x16b05d0",
      "gasUsed": "0x106a2",
      "effectiveGasPrice": "0x1db0c79",
      "from": "0x570f581d23a2ab09fd1990279d9db6f5dce18f4a",
      "to": "0x1857e926bb5e5b12e9275818b03f79cdfd799999",
      "contractAddress": null,
      "l1BaseFeeScalar": "0x8dd",
      "l1BlobBaseFee": "0x320b8540d",
      "l1BlobBaseFeeScalar": "0x101c12",
      "l1Fee": "0x1661f9bf62d",
      "l1GasPrice": "0x7af733b4c",
      "l1GasUsed": "0x640"
    },
    {
      "status": "0x1",
      "cumulativeGasUsed": "0x2b7c24b",
      "logs": [
        {
          "address": "0x1857e926bb5e5b12e9275818b03f79cdfd799999",
          "topics": [
            "0xdfbde0e8fc1c52ab3adee2eb2585df55ad05aa9c142896238a855d4544851ab9"
          ],
          "data": "0x00000000000000000000000000000000000000000000000000000000000000020000000000000000000000009a0a963ce5cd1c9e5ef5df862b42143e82f6412c",
          "blockHash": "0x38764e341823481cb1ad27bccad86fce855b90c205370f477a6daffff413be15",
          "blockNumber": "0x16b05d0",
          "transactionHash": "0x9d77b17a60a946001deeb5d335f2da3cc406fe2a0d74d1a2fcca43028bdf55b2",
          "transactionIndex": "0xd3",
          "logIndex": "0x37a",
          "removed": false
        }
      ],
      "logsBloom": "0x00000000000000000000000000000000000000000000000000000000000000000000000000000000000000000000000000000000000000000000000000000000000000000000000000000000000000000000000000000000000000000000000001000000000000000000000000000000000000000000000000000000000000000000000000000000000000000000000200000000000000000000000000000000000000000000000000000000000000000000000000000000000000000001000000000000000000008000000000000000000000000000000000000000000020000000000000000000000000002000000000000000000000000000000000000000",
      "type": "0x2",
      "transactionHash": "0x9d77b17a60a946001deeb5d335f2da3cc406fe2a0d74d1a2fcca43028bdf55b2",
      "transactionIndex": "0xd3",
      "blockHash": "0x38764e341823481cb1ad27bccad86fce855b90c205370f477a6daffff413be15",
      "blockNumber": "0x16b05d0",
      "gasUsed": "0x1068c",
      "effectiveGasPrice": "0x1db0c79",
      "from": "0x570f581d23a2ab09fd1990279d9db6f5dce18f4a",
      "to": "0x1857e926bb5e5b12e9275818b03f79cdfd799999",
      "contractAddress": null,
      "l1BaseFeeScalar": "0x8dd",
      "l1BlobBaseFee": "0x320b8540d",
      "l1BlobBaseFeeScalar": "0x101c12",
      "l1Fee": "0x1661f9bf62d",
      "l1GasPrice": "0x7af733b4c",
      "l1GasUsed": "0x640"
    },
    {
      "status": "0x1",
      "cumulativeGasUsed": "0x2b8486e",
      "logs": [
        {
          "address": "0x4f94c14440ef38b7e551ccfb7a2ce4e464e20f14",
          "topics": [
            "0xf6391f5c32d9c69d2a47ea670b442974b53935d1edc7fd64eb21e047a839171b",
            "0xcbd69888d9fba90fe49a0c7a1d66c35e381e4ebf3a66968c85c5beacc25db59a",
            "0x000000000000000000000000570f581d23a2ab09fd1990279d9db6f5dce18f4a",
            "0x000000000000000000000000570f581d23a2ab09fd1990279d9db6f5dce18f4a"
          ],
          "data": "0x",
          "blockHash": "0x38764e341823481cb1ad27bccad86fce855b90c205370f477a6daffff413be15",
          "blockNumber": "0x16b05d0",
          "transactionHash": "0x4a36a62a3ff2bc4c628db5213ed5bcea778ed2f560e256d74f9dd09c4d7068f6",
          "transactionIndex": "0xd4",
          "logIndex": "0x37b",
          "removed": false
        }
      ],
      "logsBloom": "0x00000000000000000000000000000000000000000000000000000000000000000000000000000000000000200000000000200000000000000000000800000080040000000000000000000000000000000000000000000000000000000000000040000000000000004000000000000000000000000000000000000000000000000000000040000000000000000000000000000000000000000000000000000000000000000000000000000200000000000000000000000000000000000000000000000000000000000000000000000000000000000000000000000000002000000000000000000000000000000080000000000000000000000000000000000004",
      "type": "0x2",
      "transactionHash": "0x4a36a62a3ff2bc4c628db5213ed5bcea778ed2f560e256d74f9dd09c4d7068f6",
      "transactionIndex": "0xd4",
      "blockHash": "0x38764e341823481cb1ad27bccad86fce855b90c205370f477a6daffff413be15",
      "blockNumber": "0x16b05d0",
      "gasUsed": "0x8623",
      "effectiveGasPrice": "0x1db0c79",
      "from": "0x570f581d23a2ab09fd1990279d9db6f5dce18f4a",
      "to": "0x4f94c14440ef38b7e551ccfb7a2ce4e464e20f14",
      "contractAddress": null,
      "l1BaseFeeScalar": "0x8dd",
      "l1BlobBaseFee": "0x320b8540d",
      "l1BlobBaseFeeScalar": "0x101c12",
      "l1Fee": "0x17cb9e046e5",
      "l1GasPrice": "0x7af733b4c",
      "l1GasUsed": "0x6a4"
    },
    {
      "status": "0x1",
      "cumulativeGasUsed": "0x2bb9bc3",
      "logs": [
        {
          "address": "0xa6afc2be04a1c2ed8bec7f924307b6254faff750",
          "topics": [
            "0xf6391f5c32d9c69d2a47ea670b442974b53935d1edc7fd64eb21e047a839171b",
            "0xcbd69888d9fba90fe49a0c7a1d66c35e381e4ebf3a66968c85c5beacc25db59a",
            "0x000000000000000000000000570f581d23a2ab09fd1990279d9db6f5dce18f4a",
            "0x000000000000000000000000570f581d23a2ab09fd1990279d9db6f5dce18f4a"
          ],
          "data": "0x",
          "blockHash": "0x38764e341823481cb1ad27bccad86fce855b90c205370f477a6daffff413be15",
          "blockNumber": "0x16b05d0",
          "transactionHash": "0x63bce97384a2b76116e7a8fdc3871206109597b935a3bbf319cf5e6dc291519b",
          "transactionIndex": "0xd8",
          "logIndex": "0x384",
          "removed": false
        }
      ],
      "logsBloom": "0x00000000000000000000000000000000000000000000000000000000000000000000000000000000000000000000000000200000000000000000000000000080040000000000000000000000000000000000000000000000000000000000000040000000000000000000000000000000000000000000000000000000000000000000000040000000000000000000000000000000008000000000000020000000000000000000000000000200000000000000000000000000000000000000000000080000000000000000000000000000000000000000000000000000002000000000000000000000000000000080000000000000000000000000000000000004",
      "type": "0x2",
      "transactionHash": "0x63bce97384a2b76116e7a8fdc3871206109597b935a3bbf319cf5e6dc291519b",
      "transactionIndex": "0xd8",
      "blockHash": "0x38764e341823481cb1ad27bccad86fce855b90c205370f477a6daffff413be15",
      "blockNumber": "0x16b05d0",
      "gasUsed": "0x8623",
      "effectiveGasPrice": "0x1db0c79",
      "from": "0x570f581d23a2ab09fd1990279d9db6f5dce18f4a",
      "to": "0xa6afc2be04a1c2ed8bec7f924307b6254faff750",
      "contractAddress": null,
      "l1BaseFeeScalar": "0x8dd",
      "l1BlobBaseFee": "0x320b8540d",
      "l1BlobBaseFeeScalar": "0x101c12",
      "l1Fee": "0x17cb9e046e5",
      "l1GasPrice": "0x7af733b4c",
      "l1GasUsed": "0x6a4"
    },
    {
      "status": "0x1",
      "cumulativeGasUsed": "0x111c264",
      "logs": [
        {
          "address": "0x1857e926bb5e5b12e9275818b03f79cdfd799999",
          "topics": [
            "0xf6391f5c32d9c69d2a47ea670b442974b53935d1edc7fd64eb21e047a839171b",
            "0xcbd69888d9fba90fe49a0c7a1d66c35e381e4ebf3a66968c85c5beacc25db59a",
            "0x000000000000000000000000570f581d23a2ab09fd1990279d9db6f5dce18f4a",
            "0x000000000000000000000000570f581d23a2ab09fd1990279d9db6f5dce18f4a"
          ],
          "data": "0x",
          "blockHash": "0x6a1e3fac8defbd972509830e3152e9b9ed71dc5c5095d6dbf4fd59ede368c281",
          "blockNumber": "0x16b05d1",
          "transactionHash": "0xefbb9d20d86e21047339622935a90e80ffb834e46aac27e8bb227d72428fea66",
          "transactionIndex": "0x60",
          "logIndex": "0x14d",
          "removed": false
        }
      ],
      "logsBloom": "0x00000000000000000000000000000000000000000000000000000000000000000000000000000000000000000000000000200000000000000000000000000080040000000000000000000000000000000000000000000000000000000000000040000000000000000000000000000000000000000000000000000000000000000000000040000000000000000000000200000000000000000000000000000000000000000000000000000200000000000000000000000000000000000000000000000000000000008000000000000000000000000000000000000000002020000000000000000000000000000080000000000000000000000000000000000004",
      "type": "0x2",
      "transactionHash": "0xefbb9d20d86e21047339622935a90e80ffb834e46aac27e8bb227d72428fea66",
      "transactionIndex": "0x60",
      "blockHash": "0x6a1e3fac8defbd972509830e3152e9b9ed71dc5c5095d6dbf4fd59ede368c281",
      "blockNumber": "0x16b05d1",
      "gasUsed": "0x8623",
      "effectiveGasPrice": "0x1dbbd9c",
      "from": "0x570f581d23a2ab09fd1990279d9db6f5dce18f4a",
      "to": "0x1857e926bb5e5b12e9275818b03f79cdfd799999",
      "contractAddress": null,
      "l1BaseFeeScalar": "0x8dd",
      "l1BlobBaseFee": "0x320b8540d",
      "l1BlobBaseFeeScalar": "0x101c12",
      "l1Fee": "0x17cb9e046e5",
      "l1GasPrice": "0x7af733b4c",
      "l1GasUsed": "0x6a4"
    },
    {
      "status": "0x1",
      "cumulativeGasUsed": "0x1123f37",
      "logs": [
        {
          "address": "0x4f94c14440ef38b7e551ccfb7a2ce4e464e20f14",
          "topics": [
            "0xf6391f5c32d9c69d2a47ea670b442974b53935d1edc7fd64eb21e047a839171b",
            "0x0000000000000000000000000000000000000000000000000000000000000000",
            "0x000000000000000000000000570f581d23a2ab09fd1990279d9db6f5dce18f4a",
            "0x000000000000000000000000570f581d23a2ab09fd1990279d9db6f5dce18f4a"
          ],
          "data": "0x",
          "blockHash": "0x6a1e3fac8defbd972509830e3152e9b9ed71dc5c5095d6dbf4fd59ede368c281",
          "blockNumber": "0x16b05d1",
          "transactionHash": "0x77bed03ca5c2104109981ed147298aa18eca2b464a8d8221e5217b442b80fe36",
          "transactionIndex": "0x61",
          "logIndex": "0x14e",
          "removed": false
        }
      ],
      "logsBloom": "0x00000000000000000000000000000000000000000000000000000000000000000000000000000000000000200000000000200000000000000000000800000080040000000000000000000000000000000000000000000000000000000000000040000000020000004000000000000800000000000000000000000000000000000000000040000000000000000000000000000000000000000000000000000000000000000000000000000000000000000000000000000000000000000000000000000000000000000000000000000000000000000000000000000000002020000000000000000000000000000000000000000000000000000000000000000000",
      "type": "0x2",
      "transactionHash": "0x77bed03ca5c2104109981ed147298aa18eca2b464a8d8221e5217b442b80fe36",
      "transactionIndex": "0x61",
      "blockHash": "0x6a1e3fac8defbd972509830e3152e9b9ed71dc5c5095d6dbf4fd59ede368c281",
      "blockNumber": "0x16b05d1",
      "gasUsed": "0x7cd3",
      "effectiveGasPrice": "0x1dbbd9c",
      "from": "0x570f581d23a2ab09fd1990279d9db6f5dce18f4a",
      "to": "0x4f94c14440ef38b7e551ccfb7a2ce4e464e20f14",
      "contractAddress": null,
      "l1BaseFeeScalar": "0x8dd",
      "l1BlobBaseFee": "0x320b8540d",
      "l1BlobBaseFeeScalar": "0x101c12",
      "l1Fee": "0x1661f9bf62d",
      "l1GasPrice": "0x7af733b4c",
      "l1GasUsed": "0x640"
    },
    {
      "status": "0x1",
      "cumulativeGasUsed": "0x11a594d",
      "logs": [
        {
          "address": "0xa6afc2be04a1c2ed8bec7f924307b6254faff750",
          "topics": [
            "0xf6391f5c32d9c69d2a47ea670b442974b53935d1edc7fd64eb21e047a839171b",
            "0x0000000000000000000000000000000000000000000000000000000000000000",
            "0x000000000000000000000000570f581d23a2ab09fd1990279d9db6f5dce18f4a",
            "0x000000000000000000000000570f581d23a2ab09fd1990279d9db6f5dce18f4a"
          ],
          "data": "0x",
          "blockHash": "0x6a1e3fac8defbd972509830e3152e9b9ed71dc5c5095d6dbf4fd59ede368c281",
          "blockNumber": "0x16b05d1",
          "transactionHash": "0x865f5b3ab0625321df97106bd4dd95ba565d8717bafc0d6f042a92cc3c881a0a",
          "transactionIndex": "0x65",
          "logIndex": "0x15f",
          "removed": false
        }
      ],
      "logsBloom": "0x00000000000000000000000000000000000000000000000000000000000000000000000000000000000000000000000000200000000000000000000000000080040000000000000000000000000000000000000000000000000000000000000040000000020000000000000000000800000000000000000000000000000000000000000040000000000000000000000000000000008000000000000020000000000000000000000000000000000000000000000000000000000000000000000000080000000000000000000000000000000000000000000000000000002020000000000000000000000000000000000000000000000000000000000000000000",
      "type": "0x2",
      "transactionHash": "0x865f5b3ab0625321df97106bd4dd95ba565d8717bafc0d6f042a92cc3c881a0a",
      "transactionIndex": "0x65",
      "blockHash": "0x6a1e3fac8defbd972509830e3152e9b9ed71dc5c5095d6dbf4fd59ede368c281",
      "blockNumber": "0x16b05d1",
      "gasUsed": "0x7cd3",
      "effectiveGasPrice": "0x1dbbd9c",
      "from": "0x570f581d23a2ab09fd1990279d9db6f5dce18f4a",
      "to": "0xa6afc2be04a1c2ed8bec7f924307b6254faff750",
      "contractAddress": null,
      "l1BaseFeeScalar": "0x8dd",
      "l1BlobBaseFee": "0x320b8540d",
      "l1BlobBaseFeeScalar": "0x101c12",
      "l1Fee": "0x1661f9bf62d",
      "l1GasPrice": "0x7af733b4c",
      "l1GasUsed": "0x640"
    },
    {
      "status": "0x1",
      "cumulativeGasUsed": "0x11ad620",
      "logs": [
        {
          "address": "0x1857e926bb5e5b12e9275818b03f79cdfd799999",
          "topics": [
            "0xf6391f5c32d9c69d2a47ea670b442974b53935d1edc7fd64eb21e047a839171b",
            "0x0000000000000000000000000000000000000000000000000000000000000000",
            "0x000000000000000000000000570f581d23a2ab09fd1990279d9db6f5dce18f4a",
            "0x000000000000000000000000570f581d23a2ab09fd1990279d9db6f5dce18f4a"
          ],
          "data": "0x",
          "blockHash": "0x6a1e3fac8defbd972509830e3152e9b9ed71dc5c5095d6dbf4fd59ede368c281",
          "blockNumber": "0x16b05d1",
          "transactionHash": "0xc861e542c699027e6159af35344c52245bbcb2e1ef8f42c09be23d1c13e0371f",
          "transactionIndex": "0x66",
          "logIndex": "0x160",
          "removed": false
        }
      ],
      "logsBloom": "0x00000000000000000000000000000000000000000000000000000000000000000000000000000000000000000000000000200000000000000000000000000080040000000000000000000000000000000000000000000000000000000000000040000000020000000000000000000800000000000000000000000000000000000000000040000000000000000000000200000000000000000000000000000000000000000000000000000000000000000000000000000000000000000000000000000000000000008000000000000000000000000000000000000000002020000000000000000000000000000000000000000000000000000000000000000000",
      "type": "0x2",
      "transactionHash": "0xc861e542c699027e6159af35344c52245bbcb2e1ef8f42c09be23d1c13e0371f",
      "transactionIndex": "0x66",
      "blockHash": "0x6a1e3fac8defbd972509830e3152e9b9ed71dc5c5095d6dbf4fd59ede368c281",
      "blockNumber": "0x16b05d1",
      "gasUsed": "0x7cd3",
      "effectiveGasPrice": "0x1dbbd9c",
      "from": "0x570f581d23a2ab09fd1990279d9db6f5dce18f4a",
      "to": "0x1857e926bb5e5b12e9275818b03f79cdfd799999",
      "contractAddress": null,
      "l1BaseFeeScalar": "0x8dd",
      "l1BlobBaseFee": "0x320b8540d",
      "l1BlobBaseFeeScalar": "0x101c12",
      "l1Fee": "0x1661f9bf62d",
      "l1GasPrice": "0x7af733b4c",
      "l1GasUsed": "0x640"
    },
    {
      "status": "0x1",
      "cumulativeGasUsed": "0x11d926a",
      "logs": [
        {
          "address": "0x4e99472385a2522aa292b008da294a78f420a367",
          "topics": [
            "0xf6391f5c32d9c69d2a47ea670b442974b53935d1edc7fd64eb21e047a839171b",
            "0x0000000000000000000000000000000000000000000000000000000000000000",
            "0x000000000000000000000000570f581d23a2ab09fd1990279d9db6f5dce18f4a",
            "0x000000000000000000000000570f581d23a2ab09fd1990279d9db6f5dce18f4a"
          ],
          "data": "0x",
          "blockHash": "0x6a1e3fac8defbd972509830e3152e9b9ed71dc5c5095d6dbf4fd59ede368c281",
          "blockNumber": "0x16b05d1",
          "transactionHash": "0x3b2dc6e1228fb503eab28ec4b929f34de930f1bdd9ebe9fd5b63dbb89ffae451",
          "transactionIndex": "0x68",
          "logIndex": "0x164",
          "removed": false
        }
      ],
      "logsBloom": "0x00000000000000000000000000000000000000000000000000000000000000000000000000000000000000000000000000200000000000000000000000000080040000000000000000000000000000000000000000000000000000000000000040000000020000000000000000000800000000000000000000000000000000000000000040000000000000000000000000000000002000000000000000000000000000000000000000000000000000000000000000000000000000000000000000000000000000000000000000000020000000000000000000000000002020000000000000000000000000000000000000000000000200000000000000000000",
      "type": "0x2",
      "transactionHash": "0x3b2dc6e1228fb503eab28ec4b929f34de930f1bdd9ebe9fd5b63dbb89ffae451",
      "transactionIndex": "0x68",
      "blockHash": "0x6a1e3fac8defbd972509830e3152e9b9ed71dc5c5095d6dbf4fd59ede368c281",
      "blockNumber": "0x16b05d1",
      "gasUsed": "0x7cd1",
      "effectiveGasPrice": "0x1dbbd9c",
      "from": "0x570f581d23a2ab09fd1990279d9db6f5dce18f4a",
      "to": "0x4e99472385a2522aa292b008da294a78f420a367",
      "contractAddress": null,
      "l1BaseFeeScalar": "0x8dd",
      "l1BlobBaseFee": "0x320b8540d",
      "l1BlobBaseFeeScalar": "0x101c12",
      "l1Fee": "0x1661f9bf62d",
      "l1GasPrice": "0x7af733b4c",
      "l1GasUsed": "0x640"
    }
  ],
  "libraries": [],
  "pending": [],
  "returns": {},
  "timestamp": 1734371463,
  "chain": 8453,
  "commit": "8fdbc2d"
}