{
  "transactions": [
    {
      "hash": "0x91b38544e8027935d968d829271677f2aabaf04a7735471bb02e3e7782146b9c",
      "transactionType": "CALL",
      "contractName": null,
      "contractAddress": "0xfe9723ab9dc30c0c960f7e104133bf2ae063a2e6",
      "function": "mint(address,uint256)",
      "arguments": [
        "0x30Abf2e1ac3A52c8c3F99078d1D52667d656C84B",
        "10000000000000000"
      ],
      "transaction": {
        "from": "0x30abf2e1ac3a52c8c3f99078d1d52667d656c84b",
        "to": "0xfe9723ab9dc30c0c960f7e104133bf2ae063a2e6",
        "gas": "0xb836",
        "value": "0x0",
        "input": "0x40c10f1900000000000000000000000030abf2e1ac3a52c8c3f99078d1d52667d656c84b000000000000000000000000000000000000000000000000002386f26fc10000",
        "nonce": "0x4b",
        "chainId": "0xaa36a7"
      },
      "additionalContracts": [],
      "isFixedGasLimit": false
    },
    {
      "hash": "0x8c424d670af1322d933eed856a78d313828e8a82db2d64a02549a3cdfb85562e",
      "transactionType": "CALL",
      "contractName": null,
      "contractAddress": "0xfe9723ab9dc30c0c960f7e104133bf2ae063a2e6",
      "function": "approve(address,uint256)",
      "arguments": [
        "0xb5FAA226AE5227015dB79D874De4Fe92eeb590cA",
        "10000000000000000"
      ],
      "transaction": {
        "from": "0x30abf2e1ac3a52c8c3f99078d1d52667d656c84b",
        "to": "0xfe9723ab9dc30c0c960f7e104133bf2ae063a2e6",
        "gas": "0x9d94",
        "value": "0x0",
        "input": "0x095ea7b3000000000000000000000000b5faa226ae5227015db79d874de4fe92eeb590ca000000000000000000000000000000000000000000000000002386f26fc10000",
        "nonce": "0x4c",
        "chainId": "0xaa36a7"
      },
      "additionalContracts": [],
      "isFixedGasLimit": false
    },
    {
      "hash": "0xc2dab670b5fd5043b3d3e65b22f377bf665c7df75bc7d64cb10da501029334bc",
      "transactionType": "CALL",
      "contractName": null,
      "contractAddress": "0xb5faa226ae5227015db79d874de4fe92eeb590ca",
      "function": "deposit(uint96,uint256)",
      "arguments": [
        "1",
        "10000000000000000"
      ],
      "transaction": {
        "from": "0x30abf2e1ac3a52c8c3f99078d1d52667d656c84b",
        "to": "0xb5faa226ae5227015db79d874de4fe92eeb590ca",
        "gas": "0x1425f",
        "value": "0x0",
        "input": "0x1a5368000000000000000000000000000000000000000000000000000000000000000001000000000000000000000000000000000000000000000000002386f26fc10000",
        "nonce": "0x4d",
        "chainId": "0xaa36a7"
      },
      "additionalContracts": [],
      "isFixedGasLimit": false
    },
    {
      "hash": "0xe6a9de3ddbea5126921e74b472e646508bf05f729e2ca03e4cf04633851c1394",
      "transactionType": "CALL",
      "contractName": null,
      "contractAddress": "0xb5faa226ae5227015db79d874de4fe92eeb590ca",
      "function": "mint(uint96,uint256)",
      "arguments": [
        "1",
        "1000000000000000000"
      ],
      "transaction": {
        "from": "0x30abf2e1ac3a52c8c3f99078d1d52667d656c84b",
        "to": "0xb5faa226ae5227015db79d874de4fe92eeb590ca",
        "gas": "0x27e32",
        "value": "0x0",
        "input": "0x1ffe7f2800000000000000000000000000000000000000000000000000000000000000010000000000000000000000000000000000000000000000000de0b6b3a7640000",
        "nonce": "0x4e",
        "chainId": "0xaa36a7"
      },
      "additionalContracts": [],
      "isFixedGasLimit": false
    }
  ],
  "receipts": [
    {
      "status": "0x1",
      "cumulativeGasUsed": "0x8b46f3",
      "logs": [
        {
          "address": "0xfe9723ab9dc30c0c960f7e104133bf2ae063a2e6",
          "topics": [
            "0xddf252ad1be2c89b69c2b068fc378daa952ba7f163c4a11628f55a4df523b3ef",
            "0x0000000000000000000000000000000000000000000000000000000000000000",
            "0x00000000000000000000000030abf2e1ac3a52c8c3f99078d1d52667d656c84b"
          ],
          "data": "0x000000000000000000000000000000000000000000000000002386f26fc10000",
          "blockHash": "0x071840dbd10bba98aba881affb6df7bfb40f1fd22da637b0891bec3c4035687f",
          "blockNumber": "0x6bfccd",
          "transactionHash": "0x91b38544e8027935d968d829271677f2aabaf04a7735471bb02e3e7782146b9c",
          "transactionIndex": "0x39",
          "logIndex": "0x83",
          "removed": false
        }
      ],
      "logsBloom": "0x00000000000000000000000000000000000000000000000000000000000000000000000000000000020000000000000000000000000000000000000000000000000000000000000000000008000000000000000000400000000000000000080000000000020000000000000000000800000000000000000000000010000000004000000000000000000000000000000000000000000000000000000000000000000000000000000000000000000000000000000000000000000000000000000000000002000000000000000000008000000000000000000000000000200020000000000000000000000000000000000000000000000000000000000000000000",
      "type": "0x2",
      "transactionHash": "0x91b38544e8027935d968d829271677f2aabaf04a7735471bb02e3e7782146b9c",
      "transactionIndex": "0x39",
      "blockHash": "0x071840dbd10bba98aba881affb6df7bfb40f1fd22da637b0891bec3c4035687f",
      "blockNumber": "0x6bfccd",
      "gasUsed": "0x855f",
      "effectiveGasPrice": "0x1d5274cc",
      "from": "0x30abf2e1ac3a52c8c3f99078d1d52667d656c84b",
      "to": "0xfe9723ab9dc30c0c960f7e104133bf2ae063a2e6",
      "contractAddress": null
    },
    {
      "status": "0x1",
      "cumulativeGasUsed": "0x8c3a07",
      "logs": [
        {
          "address": "0xfe9723ab9dc30c0c960f7e104133bf2ae063a2e6",
          "topics": [
            "0x8c5be1e5ebec7d5bd14f71427d1e84f3dd0314c0f7b2291e5b200ac8c7c3b925",
            "0x00000000000000000000000030abf2e1ac3a52c8c3f99078d1d52667d656c84b",
            "0x000000000000000000000000b5faa226ae5227015db79d874de4fe92eeb590ca"
          ],
          "data": "0x000000000000000000000000000000000000000000000000002386f26fc10000",
          "blockHash": "0x071840dbd10bba98aba881affb6df7bfb40f1fd22da637b0891bec3c4035687f",
          "blockNumber": "0x6bfccd",
          "transactionHash": "0x8c424d670af1322d933eed856a78d313828e8a82db2d64a02549a3cdfb85562e",
          "transactionIndex": "0x3b",
          "logIndex": "0x85",
          "removed": false
        }
      ],
      "logsBloom": "0x00000000000000000000000000000000000000000000000000000000000000000000000000000800020000000000000000000000000000000000000000200000000000000000000000400000000000000000000000400000000000000000080000000000000000000000000000000000000000000000000000000000000000004000000000000000000000000000000000000000000000000000000000000000020000000000000000000000008000000000000000000000000000000000000000000000000000000000000000008000000000000000000000000000200000000010000000000000000000000000000000000000000000000000000000000000",
      "type": "0x2",
      "transactionHash": "0x8c424d670af1322d933eed856a78d313828e8a82db2d64a02549a3cdfb85562e",
      "transactionIndex": "0x3b",
      "blockHash": "0x071840dbd10bba98aba881affb6df7bfb40f1fd22da637b0891bec3c4035687f",
      "blockNumber": "0x6bfccd",
      "gasUsed": "0x7216",
      "effectiveGasPrice": "0x1d5274cc",
      "from": "0x30abf2e1ac3a52c8c3f99078d1d52667d656c84b",
      "to": "0xfe9723ab9dc30c0c960f7e104133bf2ae063a2e6",
      "contractAddress": null
    },
    {
      "status": "0x1",
      "cumulativeGasUsed": "0x8d236c",
      "logs": [
        {
          "address": "0xfe9723ab9dc30c0c960f7e104133bf2ae063a2e6",
          "topics": [
            "0xddf252ad1be2c89b69c2b068fc378daa952ba7f163c4a11628f55a4df523b3ef",
            "0x00000000000000000000000030abf2e1ac3a52c8c3f99078d1d52667d656c84b",
            "0x0000000000000000000000006489641a0e14315103a87fef87608fdd48da1631"
          ],
          "data": "0x000000000000000000000000000000000000000000000000002386f26fc10000",
          "blockHash": "0x071840dbd10bba98aba881affb6df7bfb40f1fd22da637b0891bec3c4035687f",
          "blockNumber": "0x6bfccd",
          "transactionHash": "0xc2dab670b5fd5043b3d3e65b22f377bf665c7df75bc7d64cb10da501029334bc",
          "transactionIndex": "0x3c",
          "logIndex": "0x86",
          "removed": false
        },
        {
          "address": "0x6489641a0e14315103a87fef87608fdd48da1631",
          "topics": [
            "0x36af321ec8d3c75236829c5317affd40ddb308863a1236d2d277a4025cccee1e",
            "0x00000000000000000000000030abf2e1ac3a52c8c3f99078d1d52667d656c84b"
          ],
          "data": "0x000000000000000000000000000000000000000000000000002386f26fc10000000000000000000000000000000000000000000000000000002386f26fc1000000000000000000000000000000000000000000000000021e19e0c9bab2400000",
          "blockHash": "0x071840dbd10bba98aba881affb6df7bfb40f1fd22da637b0891bec3c4035687f",
          "blockNumber": "0x6bfccd",
          "transactionHash": "0xc2dab670b5fd5043b3d3e65b22f377bf665c7df75bc7d64cb10da501029334bc",
          "transactionIndex": "0x3c",
          "logIndex": "0x87",
          "removed": false
        },
        {
          "address": "0xb5faa226ae5227015db79d874de4fe92eeb590ca",
          "topics": [
            "0xfa07395bf3306a65fff8d4c8ffd11ad7e4a35bd7c10e2e296da2085b63d8c1e9",
            "0x00000000000000000000000030abf2e1ac3a52c8c3f99078d1d52667d656c84b",
            "0x0000000000000000000000000000000000000000000000000000000000000001"
          ],
          "data": "0x000000000000000000000000000000000000000000000000002386f26fc1000000000000000000000000000000000000000000000000021e19e0c9bab2400000",
          "blockHash": "0x071840dbd10bba98aba881affb6df7bfb40f1fd22da637b0891bec3c4035687f",
          "blockNumber": "0x6bfccd",
          "transactionHash": "0xc2dab670b5fd5043b3d3e65b22f377bf665c7df75bc7d64cb10da501029334bc",
          "transactionIndex": "0x3c",
          "logIndex": "0x88",
          "removed": false
        }
      ],
      "logsBloom": "0x00000000000000000000000000000000000000400000000008000000000000004000002000080000020000000000000000000000000000000000000000040000000000000000000000000208000000000000000001440000000000000000080000000000000000000000000000000000000000000000000000000010000000004000000000000000000000000000000000000040000000000000008000020040000000000000000000000000000000000000000000000000000000000004000000000002000000000000000000008000000100000000000000000000200440000000000000000000000000000000000000000000000000000000000080000000",
      "type": "0x2",
      "transactionHash": "0xc2dab670b5fd5043b3d3e65b22f377bf665c7df75bc7d64cb10da501029334bc",
      "transactionIndex": "0x3c",
      "blockHash": "0x071840dbd10bba98aba881affb6df7bfb40f1fd22da637b0891bec3c4035687f",
      "blockNumber": "0x6bfccd",
      "gasUsed": "0xe965",
      "effectiveGasPrice": "0x1d5274cc",
      "from": "0x30abf2e1ac3a52c8c3f99078d1d52667d656c84b",
      "to": "0xb5faa226ae5227015db79d874de4fe92eeb590ca",
      "contractAddress": null
    },
    {
      "status": "0x1",
      "cumulativeGasUsed": "0x8f4380",
      "logs": [
        {
          "address": "0x30a465f72ed6792e2f605d365f34d2ae21898ddf",
          "topics": [
            "0xddf252ad1be2c89b69c2b068fc378daa952ba7f163c4a11628f55a4df523b3ef",
            "0x0000000000000000000000000000000000000000000000000000000000000000",
            "0x00000000000000000000000030abf2e1ac3a52c8c3f99078d1d52667d656c84b"
          ],
          "data": "0x0000000000000000000000000000000000000000000000000de0b6b3a7640000",
          "blockHash": "0x071840dbd10bba98aba881affb6df7bfb40f1fd22da637b0891bec3c4035687f",
          "blockNumber": "0x6bfccd",
          "transactionHash": "0xe6a9de3ddbea5126921e74b472e646508bf05f729e2ca03e4cf04633851c1394",
          "transactionIndex": "0x3e",
          "logIndex": "0x89",
          "removed": false
        },
        {
          "address": "0x30a465f72ed6792e2f605d365f34d2ae21898ddf",
          "topics": [
            "0x9d228d69b5fdb8d273a2336f8fb8612d039631024ea9bf09c424a9503aa078f0",
            "0x000000000000000000000000b5faa226ae5227015db79d874de4fe92eeb590ca",
            "0x00000000000000000000000030abf2e1ac3a52c8c3f99078d1d52667d656c84b"
          ],
          "data": "0x0000000000000000000000000000000000000000000000000de0b6b3a7640000",
          "blockHash": "0x071840dbd10bba98aba881affb6df7bfb40f1fd22da637b0891bec3c4035687f",
          "blockNumber": "0x6bfccd",
          "transactionHash": "0xe6a9de3ddbea5126921e74b472e646508bf05f729e2ca03e4cf04633851c1394",
          "transactionIndex": "0x3e",
          "logIndex": "0x8a",
          "removed": false
        },
        {
          "address": "0xb5faa226ae5227015db79d874de4fe92eeb590ca",
          "topics": [
            "0xa686754bee56eb58efe4f09f95bd4509ce7e02f4e4bfe6e241ff5bdee8989b1a",
            "0x00000000000000000000000030abf2e1ac3a52c8c3f99078d1d52667d656c84b",
            "0x0000000000000000000000000000000000000000000000000000000000000001"
          ],
          "data": "0x0000000000000000000000000000000000000000000000000de0b6b3a7640000",
          "blockHash": "0x071840dbd10bba98aba881affb6df7bfb40f1fd22da637b0891bec3c4035687f",
          "blockNumber": "0x6bfccd",
          "transactionHash": "0xe6a9de3ddbea5126921e74b472e646508bf05f729e2ca03e4cf04633851c1394",
          "transactionIndex": "0x3e",
          "logIndex": "0x8b",
          "removed": false
        }
      ],
      "logsBloom": "0x00800000000000000000000000080000000000000000000000000000000800000000000000080810000000000000004000000000000000000000000000040000000000000000000000400008000000000000000200040000000000000000080020000000020000000000000000000800000000000000000000000010000000000000000000000000000000000000000000000000000000000000208000000000000000000000000000000000008000000000000000000000000000000004000000000002000000000000000001008000000000000000000000000000200060000000000000000000000000000000000000000000000000000000000000000000",
      "type": "0x2",
      "transactionHash": "0xe6a9de3ddbea5126921e74b472e646508bf05f729e2ca03e4cf04633851c1394",
      "transactionIndex": "0x3e",
      "blockHash": "0x071840dbd10bba98aba881affb6df7bfb40f1fd22da637b0891bec3c4035687f",
      "blockNumber": "0x6bfccd",
      "gasUsed": "0x1ce0c",
      "effectiveGasPrice": "0x1d5274cc",
      "from": "0x30abf2e1ac3a52c8c3f99078d1d52667d656c84b",
      "to": "0xb5faa226ae5227015db79d874de4fe92eeb590ca",
      "contractAddress": null
    }
  ],
  "libraries": [],
  "pending": [],
  "returns": {},
  "timestamp": 1731610766,
  "chain": 11155111,
  "commit": "19cff44"
}