{
  "transactions": [
    {
      "hash": "0x9a8a83b8b900f3d347bffea3153356a777a8ead391e2fa0253dc971977c1b3c4",
      "transactionType": "CALL",
      "contractName": null,
      "contractAddress": "0xfe9723ab9dc30c0c960f7e104133bf2ae063a2e6",
      "function": "mint(address,uint256)",
      "arguments": [
        "0x30Abf2e1ac3A52c8c3F99078d1D52667d656C84B",
        "100000000000"
      ],
      "transaction": {
        "from": "0x30abf2e1ac3a52c8c3f99078d1d52667d656c84b",
        "to": "0xfe9723ab9dc30c0c960f7e104133bf2ae063a2e6",
        "gas": "0x1865d",
        "value": "0x0",
        "input": "0x40c10f1900000000000000000000000030abf2e1ac3a52c8c3f99078d1d52667d656c84b000000000000000000000000000000000000000000000000000000174876e800",
        "nonce": "0x47",
        "chainId": "0xaa36a7"
      },
      "additionalContracts": [],
      "isFixedGasLimit": false
    },
    {
      "hash": "0xce157560e37724f33055e2d9855d8b4ffaba1d13b2bbf5f733da0debc2e389cb",
      "transactionType": "CALL",
      "contractName": null,
      "contractAddress": "0xfe9723ab9dc30c0c960f7e104133bf2ae063a2e6",
      "function": "approve(address,uint256)",
      "arguments": [
        "0xb5FAA226AE5227015dB79D874De4Fe92eeb590cA",
        "10000000000"
      ],
      "transaction": {
        "from": "0x30abf2e1ac3a52c8c3f99078d1d52667d656c84b",
        "to": "0xfe9723ab9dc30c0c960f7e104133bf2ae063a2e6",
        "gas": "0xf9c7",
        "value": "0x0",
        "input": "0x095ea7b3000000000000000000000000b5faa226ae5227015db79d874de4fe92eeb590ca00000000000000000000000000000000000000000000000000000002540be400",
        "nonce": "0x48",
        "chainId": "0xaa36a7"
      },
      "additionalContracts": [],
      "isFixedGasLimit": false
    },
    {
      "hash": "0x2da7448cb080b16a68f867b8bae0fad0b2d4490bceec892978aa73054b3b90cf",
      "transactionType": "CALL",
      "contractName": null,
      "contractAddress": "0xb5faa226ae5227015db79d874de4fe92eeb590ca",
      "function": "deposit(uint96,uint256)",
      "arguments": [
        "1",
        "1000000000"
      ],
      "transaction": {
        "from": "0x30abf2e1ac3a52c8c3f99078d1d52667d656c84b",
        "to": "0xb5faa226ae5227015db79d874de4fe92eeb590ca",
        "gas": "0x26b44",
        "value": "0x0",
        "input": "0x1a5368000000000000000000000000000000000000000000000000000000000000000001000000000000000000000000000000000000000000000000000000003b9aca00",
        "nonce": "0x49",
        "chainId": "0xaa36a7"
      },
      "additionalContracts": [],
      "isFixedGasLimit": false
    },
    {
      "hash": "0x82b0837c17ecd709b088bb2a018e7b6501eaa4096b1ac8ca68bc84209137e2c0",
      "transactionType": "CALL",
      "contractName": null,
      "contractAddress": "0xb5faa226ae5227015db79d874de4fe92eeb590ca",
      "function": "mint(uint96,uint256)",
      "arguments": [
        "1",
        "1"
      ],
      "transaction": {
        "from": "0x30abf2e1ac3a52c8c3f99078d1d52667d656c84b",
        "to": "0xb5faa226ae5227015db79d874de4fe92eeb590ca",
        "gas": "0x44b30",
        "value": "0x0",
        "input": "0x1ffe7f2800000000000000000000000000000000000000000000000000000000000000010000000000000000000000000000000000000000000000000000000000000001",
        "nonce": "0x4a",
        "chainId": "0xaa36a7"
      },
      "additionalContracts": [],
      "isFixedGasLimit": false
    }
  ],
  "receipts": [
    {
      "status": "0x1",
      "cumulativeGasUsed": "0x1119910",
      "logs": [
        {
          "address": "0xfe9723ab9dc30c0c960f7e104133bf2ae063a2e6",
          "topics": [
            "0xddf252ad1be2c89b69c2b068fc378daa952ba7f163c4a11628f55a4df523b3ef",
            "0x0000000000000000000000000000000000000000000000000000000000000000",
            "0x00000000000000000000000030abf2e1ac3a52c8c3f99078d1d52667d656c84b"
          ],
          "data": "0x000000000000000000000000000000000000000000000000000000174876e800",
          "blockHash": "0x120365b6479149d3a43a746000474fe18dbd6946dd458ee1da435e3f8524fc97",
          "blockNumber": "0x6bfcb4",
          "transactionHash": "0x9a8a83b8b900f3d347bffea3153356a777a8ead391e2fa0253dc971977c1b3c4",
          "transactionIndex": "0xa1",
          "logIndex": "0xf8",
          "removed": false
        }
      ],
      "logsBloom": "0x00000000000000000000000000000000000000000000000000000000000000000000000000000000020000000000000000000000000000000000000000000000000000000000000000000008000000000000000000400000000000000000080000000000020000000000000000000800000000000000000000000010000000004000000000000000000000000000000000000000000000000000000000000000000000000000000000000000000000000000000000000000000000000000000000000002000000000000000000008000000000000000000000000000200020000000000000000000000000000000000000000000000000000000000000000000",
      "type": "0x2",
      "transactionHash": "0x9a8a83b8b900f3d347bffea3153356a777a8ead391e2fa0253dc971977c1b3c4",
      "transactionIndex": "0xa1",
      "blockHash": "0x120365b6479149d3a43a746000474fe18dbd6946dd458ee1da435e3f8524fc97",
      "blockNumber": "0x6bfcb4",
      "gasUsed": "0x10aeb",
      "effectiveGasPrice": "0x19a61c31",
      "from": "0x30abf2e1ac3a52c8c3f99078d1d52667d656c84b",
      "to": "0xfe9723ab9dc30c0c960f7e104133bf2ae063a2e6",
      "contractAddress": null
    },
    {
      "status": "0x1",
      "cumulativeGasUsed": "0x11b69f7",
      "logs": [
        {
          "address": "0xfe9723ab9dc30c0c960f7e104133bf2ae063a2e6",
          "topics": [
            "0x8c5be1e5ebec7d5bd14f71427d1e84f3dd0314c0f7b2291e5b200ac8c7c3b925",
            "0x00000000000000000000000030abf2e1ac3a52c8c3f99078d1d52667d656c84b",
            "0x000000000000000000000000b5faa226ae5227015db79d874de4fe92eeb590ca"
          ],
          "data": "0x00000000000000000000000000000000000000000000000000000002540be400",
          "blockHash": "0x120365b6479149d3a43a746000474fe18dbd6946dd458ee1da435e3f8524fc97",
          "blockNumber": "0x6bfcb4",
          "transactionHash": "0xce157560e37724f33055e2d9855d8b4ffaba1d13b2bbf5f733da0debc2e389cb",
          "transactionIndex": "0xa3",
          "logIndex": "0xfe",
          "removed": false
        }
      ],
      "logsBloom": "0x00000000000000000000000000000000000000000000000000000000000000000000000000000800020000000000000000000000000000000000000000200000000000000000000000400000000000000000000000400000000000000000080000000000000000000000000000000000000000000000000000000000000000004000000000000000000000000000000000000000000000000000000000000000020000000000000000000000008000000000000000000000000000000000000000000000000000000000000000008000000000000000000000000000200000000010000000000000000000000000000000000000000000000000000000000000",
      "type": "0x2",
      "transactionHash": "0xce157560e37724f33055e2d9855d8b4ffaba1d13b2bbf5f733da0debc2e389cb",
      "transactionIndex": "0xa3",
      "blockHash": "0x120365b6479149d3a43a746000474fe18dbd6946dd458ee1da435e3f8524fc97",
      "blockNumber": "0x6bfcb4",
      "gasUsed": "0xb4d6",
      "effectiveGasPrice": "0x19a61c31",
      "from": "0x30abf2e1ac3a52c8c3f99078d1d52667d656c84b",
      "to": "0xfe9723ab9dc30c0c960f7e104133bf2ae063a2e6",
      "contractAddress": null
    },
    {
      "status": "0x1",
      "cumulativeGasUsed": "0x11d2a4e",
      "logs": [
        {
          "address": "0xfe9723ab9dc30c0c960f7e104133bf2ae063a2e6",
          "topics": [
            "0xddf252ad1be2c89b69c2b068fc378daa952ba7f163c4a11628f55a4df523b3ef",
            "0x00000000000000000000000030abf2e1ac3a52c8c3f99078d1d52667d656c84b",
            "0x0000000000000000000000006489641a0e14315103a87fef87608fdd48da1631"
          ],
          "data": "0x000000000000000000000000000000000000000000000000000000003b9aca00",
          "blockHash": "0x120365b6479149d3a43a746000474fe18dbd6946dd458ee1da435e3f8524fc97",
          "blockNumber": "0x6bfcb4",
          "transactionHash": "0x2da7448cb080b16a68f867b8bae0fad0b2d4490bceec892978aa73054b3b90cf",
          "transactionIndex": "0xa4",
          "logIndex": "0xff",
          "removed": false
        },
        {
          "address": "0x6489641a0e14315103a87fef87608fdd48da1631",
          "topics": [
            "0x36af321ec8d3c75236829c5317affd40ddb308863a1236d2d277a4025cccee1e",
            "0x00000000000000000000000030abf2e1ac3a52c8c3f99078d1d52667d656c84b"
          ],
          "data": "0x000000000000000000000000000000000000000000000000000000003b9aca00000000000000000000000000000000000000000000000000000000003b9aca0000000000000000000000000000000000000000000000000000038d7ea4c68000",
          "blockHash": "0x120365b6479149d3a43a746000474fe18dbd6946dd458ee1da435e3f8524fc97",
          "blockNumber": "0x6bfcb4",
          "transactionHash": "0x2da7448cb080b16a68f867b8bae0fad0b2d4490bceec892978aa73054b3b90cf",
          "transactionIndex": "0xa4",
          "logIndex": "0x100",
          "removed": false
        },
        {
          "address": "0xb5faa226ae5227015db79d874de4fe92eeb590ca",
          "topics": [
            "0xfa07395bf3306a65fff8d4c8ffd11ad7e4a35bd7c10e2e296da2085b63d8c1e9",
            "0x00000000000000000000000030abf2e1ac3a52c8c3f99078d1d52667d656c84b",
            "0x0000000000000000000000000000000000000000000000000000000000000001"
          ],
          "data": "0x000000000000000000000000000000000000000000000000000000003b9aca0000000000000000000000000000000000000000000000000000038d7ea4c68000",
          "blockHash": "0x120365b6479149d3a43a746000474fe18dbd6946dd458ee1da435e3f8524fc97",
          "blockNumber": "0x6bfcb4",
          "transactionHash": "0x2da7448cb080b16a68f867b8bae0fad0b2d4490bceec892978aa73054b3b90cf",
          "transactionIndex": "0xa4",
          "logIndex": "0x101",
          "removed": false
        }
      ],
      "logsBloom": "0x00000000000000000000000000000000000000400000000008000000000000004000002000080000020000000000000000000000000000000000000000040000000000000000000000000208000000000000000001440000000000000000080000000000000000000000000000000000000000000000000000000010000000004000000000000000000000000000000000000040000000000000008000020040000000000000000000000000000000000000000000000000000000000004000000000002000000000000000000008000000100000000000000000000200440000000000000000000000000000000000000000000000000000000000080000000",
      "type": "0x2",
      "transactionHash": "0x2da7448cb080b16a68f867b8bae0fad0b2d4490bceec892978aa73054b3b90cf",
      "transactionIndex": "0xa4",
      "blockHash": "0x120365b6479149d3a43a746000474fe18dbd6946dd458ee1da435e3f8524fc97",
      "blockNumber": "0x6bfcb4",
      "gasUsed": "0x1c057",
      "effectiveGasPrice": "0x19a61c31",
      "from": "0x30abf2e1ac3a52c8c3f99078d1d52667d656c84b",
      "to": "0xb5faa226ae5227015db79d874de4fe92eeb590ca",
      "contractAddress": null
    },
    {
      "status": "0x1",
      "cumulativeGasUsed": "0x1262265",
      "logs": [
        {
          "address": "0x30a465f72ed6792e2f605d365f34d2ae21898ddf",
          "topics": [
            "0xddf252ad1be2c89b69c2b068fc378daa952ba7f163c4a11628f55a4df523b3ef",
            "0x0000000000000000000000000000000000000000000000000000000000000000",
            "0x00000000000000000000000030abf2e1ac3a52c8c3f99078d1d52667d656c84b"
          ],
          "data": "0x0000000000000000000000000000000000000000000000000000000000000001",
          "blockHash": "0x120365b6479149d3a43a746000474fe18dbd6946dd458ee1da435e3f8524fc97",
          "blockNumber": "0x6bfcb4",
          "transactionHash": "0x82b0837c17ecd709b088bb2a018e7b6501eaa4096b1ac8ca68bc84209137e2c0",
          "transactionIndex": "0xa6",
          "logIndex": "0x104",
          "removed": false
        },
        {
          "address": "0x30a465f72ed6792e2f605d365f34d2ae21898ddf",
          "topics": [
            "0x9d228d69b5fdb8d273a2336f8fb8612d039631024ea9bf09c424a9503aa078f0",
            "0x000000000000000000000000b5faa226ae5227015db79d874de4fe92eeb590ca",
            "0x00000000000000000000000030abf2e1ac3a52c8c3f99078d1d52667d656c84b"
          ],
          "data": "0x0000000000000000000000000000000000000000000000000000000000000001",
          "blockHash": "0x120365b6479149d3a43a746000474fe18dbd6946dd458ee1da435e3f8524fc97",
          "blockNumber": "0x6bfcb4",
          "transactionHash": "0x82b0837c17ecd709b088bb2a018e7b6501eaa4096b1ac8ca68bc84209137e2c0",
          "transactionIndex": "0xa6",
          "logIndex": "0x105",
          "removed": false
        },
        {
          "address": "0xb5faa226ae5227015db79d874de4fe92eeb590ca",
          "topics": [
            "0xa686754bee56eb58efe4f09f95bd4509ce7e02f4e4bfe6e241ff5bdee8989b1a",
            "0x00000000000000000000000030abf2e1ac3a52c8c3f99078d1d52667d656c84b",
            "0x0000000000000000000000000000000000000000000000000000000000000001"
          ],
          "data": "0x0000000000000000000000000000000000000000000000000000000000000001",
          "blockHash": "0x120365b6479149d3a43a746000474fe18dbd6946dd458ee1da435e3f8524fc97",
          "blockNumber": "0x6bfcb4",
          "transactionHash": "0x82b0837c17ecd709b088bb2a018e7b6501eaa4096b1ac8ca68bc84209137e2c0",
          "transactionIndex": "0xa6",
          "logIndex": "0x106",
          "removed": false
        }
      ],
      "logsBloom": "0x00800000000000000000000000080000000000000000000000000000000800000000000000080810000000000000004000000000000000000000000000040000000000000000000000400008000000000000000200040000000000000000080020000000020000000000000000000800000000000000000000000010000000000000000000000000000000000000000000000000000000000000208000000000000000000000000000000000008000000000000000000000000000000004000000000002000000000000000001008000000000000000000000000000200060000000000000000000000000000000000000000000000000000000000000000000",
      "type": "0x2",
      "transactionHash": "0x82b0837c17ecd709b088bb2a018e7b6501eaa4096b1ac8ca68bc84209137e2c0",
      "transactionIndex": "0xa6",
      "blockHash": "0x120365b6479149d3a43a746000474fe18dbd6946dd458ee1da435e3f8524fc97",
      "blockNumber": "0x6bfcb4",
      "gasUsed": "0x31bcc",
      "effectiveGasPrice": "0x19a61c31",
      "from": "0x30abf2e1ac3a52c8c3f99078d1d52667d656c84b",
      "to": "0xb5faa226ae5227015db79d874de4fe92eeb590ca",
      "contractAddress": null
    }
  ],
  "libraries": [],
  "pending": [],
  "returns": {},
  "timestamp": 1731610452,
  "chain": 11155111,
  "commit": "19cff44"
}