{
  "transactions": [
    {
      "hash": "0x70d2319d1b6090d5f56f0b989b6b72cbec7a1c6deefa14069f9622e3d4c7762e",
      "transactionType": "CALL",
      "contractName": "USDC",
      "contractAddress": "0xfe9723ab9dc30c0c960f7e104133bf2ae063a2e6",
      "function": "mint(address,uint256)",
      "arguments": [
        "0x30Abf2e1ac3A52c8c3F99078d1D52667d656C84B",
        "1000000000000"
      ],
      "transaction": {
        "from": "0x30abf2e1ac3a52c8c3f99078d1d52667d656c84b",
        "to": "0xfe9723ab9dc30c0c960f7e104133bf2ae063a2e6",
        "gas": "0xc2fc",
        "value": "0x0",
        "input": "0x40c10f1900000000000000000000000030abf2e1ac3a52c8c3f99078d1d52667d656c84b000000000000000000000000000000000000000000000000000000e8d4a51000",
        "nonce": "0x4f",
        "chainId": "0xaa36a7"
      },
      "additionalContracts": [],
      "isFixedGasLimit": false
    },
    {
      "hash": "0xbfdcd72a0b4a95e762836fa86032c306895402447a727963f2c9a6ada4b4f274",
      "transactionType": "CALL",
      "contractName": "USDC",
      "contractAddress": "0xfe9723ab9dc30c0c960f7e104133bf2ae063a2e6",
      "function": "approve(address,uint256)",
      "arguments": [
        "0xb5FAA226AE5227015dB79D874De4Fe92eeb590cA",
        "1000000000000"
      ],
      "transaction": {
        "from": "0x30abf2e1ac3a52c8c3f99078d1d52667d656c84b",
        "to": "0xfe9723ab9dc30c0c960f7e104133bf2ae063a2e6",
        "gas": "0xf9c7",
        "value": "0x0",
        "input": "0x095ea7b3000000000000000000000000b5faa226ae5227015db79d874de4fe92eeb590ca000000000000000000000000000000000000000000000000000000e8d4a51000",
        "nonce": "0x50",
        "chainId": "0xaa36a7"
      },
      "additionalContracts": [],
      "isFixedGasLimit": false
    },
    {
      "hash": "0xa2fd4183fa72e717ca1af212f8ada96a43197255f6f37a9c42f123e06b35c2b9",
      "transactionType": "CALL",
      "contractName": null,
      "contractAddress": "0xb5faa226ae5227015db79d874de4fe92eeb590ca",
      "function": "multicall(bytes[])",
      "arguments": [
        "[0x1a5368000000000000000000000000000000000000000000000000000000000000000001000000000000000000000000000000000000000000000000000000e8d4a51000, 0x1ffe7f2800000000000000000000000000000000000000000000000000000000000000010000000000000000000000000000000000000000000000000de0b6b3a7640000]"
      ],
      "transaction": {
        "from": "0x30abf2e1ac3a52c8c3f99078d1d52667d656c84b",
        "to": "0xb5faa226ae5227015db79d874de4fe92eeb590ca",
        "gas": "0x38984",
        "value": "0x0",
        "input": "0xac9650d800000000000000000000000000000000000000000000000000000000000000200000000000000000000000000000000000000000000000000000000000000002000000000000000000000000000000000000000000000000000000000000004000000000000000000000000000000000000000000000000000000000000000c000000000000000000000000000000000000000000000000000000000000000441a5368000000000000000000000000000000000000000000000000000000000000000001000000000000000000000000000000000000000000000000000000e8d4a510000000000000000000000000000000000000000000000000000000000000000000000000000000000000000000000000000000000000000000000000441ffe7f2800000000000000000000000000000000000000000000000000000000000000010000000000000000000000000000000000000000000000000de0b6b3a764000000000000000000000000000000000000000000000000000000000000",
        "nonce": "0x51",
        "chainId": "0xaa36a7"
      },
      "additionalContracts": [],
      "isFixedGasLimit": false
    }
  ],
  "receipts": [
    {
      "status": "0x1",
      "cumulativeGasUsed": "0xb129f8",
      "logs": [
        {
          "address": "0xfe9723ab9dc30c0c960f7e104133bf2ae063a2e6",
          "topics": [
            "0xddf252ad1be2c89b69c2b068fc378daa952ba7f163c4a11628f55a4df523b3ef",
            "0x0000000000000000000000000000000000000000000000000000000000000000",
            "0x00000000000000000000000030abf2e1ac3a52c8c3f99078d1d52667d656c84b"
          ],
          "data": "0x000000000000000000000000000000000000000000000000000000e8d4a51000",
          "blockHash": "0xcbc990506756675e801a2f99ac9d028bfb0b582b697199a678eefe6f426622fc",
          "blockNumber": "0x6c1677",
          "transactionHash": "0x70d2319d1b6090d5f56f0b989b6b72cbec7a1c6deefa14069f9622e3d4c7762e",
          "transactionIndex": "0x51",
          "logIndex": "0x6d",
          "removed": false
        }
      ],
      "logsBloom": "0x00000000000000000000000000000000000000000000000000000000000000000000000000000000020000000000000000000000000000000000000000000000000000000000000000000008000000000000000000400000000000000000080000000000020000000000000000000800000000000000000000000010000000004000000000000000000000000000000000000000000000000000000000000000000000000000000000000000000000000000000000000000000000000000000000000002000000000000000000008000000000000000000000000000200020000000000000000000000000000000000000000000000000000000000000000000",
      "type": "0x2",
      "transactionHash": "0x70d2319d1b6090d5f56f0b989b6b72cbec7a1c6deefa14069f9622e3d4c7762e",
      "transactionIndex": "0x51",
      "blockHash": "0xcbc990506756675e801a2f99ac9d028bfb0b582b697199a678eefe6f426622fc",
      "blockNumber": "0x6c1677",
      "gasUsed": "0x8553",
      "effectiveGasPrice": "0x3fe69a77",
      "from": "0x30abf2e1ac3a52c8c3f99078d1d52667d656c84b",
      "to": "0xfe9723ab9dc30c0c960f7e104133bf2ae063a2e6",
      "contractAddress": null
    },
    {
      "status": "0x1",
      "cumulativeGasUsed": "0xb24fd6",
      "logs": [
        {
          "address": "0xfe9723ab9dc30c0c960f7e104133bf2ae063a2e6",
          "topics": [
            "0x8c5be1e5ebec7d5bd14f71427d1e84f3dd0314c0f7b2291e5b200ac8c7c3b925",
            "0x00000000000000000000000030abf2e1ac3a52c8c3f99078d1d52667d656c84b",
            "0x000000000000000000000000b5faa226ae5227015db79d874de4fe92eeb590ca"
          ],
          "data": "0x000000000000000000000000000000000000000000000000000000e8d4a51000",
          "blockHash": "0xcbc990506756675e801a2f99ac9d028bfb0b582b697199a678eefe6f426622fc",
          "blockNumber": "0x6c1677",
          "transactionHash": "0xbfdcd72a0b4a95e762836fa86032c306895402447a727963f2c9a6ada4b4f274",
          "transactionIndex": "0x53",
          "logIndex": "0x6e",
          "removed": false
        }
      ],
      "logsBloom": "0x00000000000000000000000000000000000000000000000000000000000000000000000000000800020000000000000000000000000000000000000000200000000000000000000000400000000000000000000000400000000000000000080000000000000000000000000000000000000000000000000000000000000000004000000000000000000000000000000000000000000000000000000000000000020000000000000000000000008000000000000000000000000000000000000000000000000000000000000000008000000000000000000000000000200000000010000000000000000000000000000000000000000000000000000000000000",
      "type": "0x2",
      "transactionHash": "0xbfdcd72a0b4a95e762836fa86032c306895402447a727963f2c9a6ada4b4f274",
      "transactionIndex": "0x53",
      "blockHash": "0xcbc990506756675e801a2f99ac9d028bfb0b582b697199a678eefe6f426622fc",
      "blockNumber": "0x6c1677",
      "gasUsed": "0xb4d6",
      "effectiveGasPrice": "0x3fe69a77",
      "from": "0x30abf2e1ac3a52c8c3f99078d1d52667d656c84b",
      "to": "0xfe9723ab9dc30c0c960f7e104133bf2ae063a2e6",
      "contractAddress": null
    },
    {
      "status": "0x1",
      "cumulativeGasUsed": "0xb4df6a",
      "logs": [
        {
          "address": "0xfe9723ab9dc30c0c960f7e104133bf2ae063a2e6",
          "topics": [
            "0xddf252ad1be2c89b69c2b068fc378daa952ba7f163c4a11628f55a4df523b3ef",
            "0x00000000000000000000000030abf2e1ac3a52c8c3f99078d1d52667d656c84b",
            "0x0000000000000000000000006489641a0e14315103a87fef87608fdd48da1631"
          ],
          "data": "0x000000000000000000000000000000000000000000000000000000e8d4a51000",
          "blockHash": "0xcbc990506756675e801a2f99ac9d028bfb0b582b697199a678eefe6f426622fc",
          "blockNumber": "0x6c1677",
          "transactionHash": "0xa2fd4183fa72e717ca1af212f8ada96a43197255f6f37a9c42f123e06b35c2b9",
          "transactionIndex": "0x54",
          "logIndex": "0x6f",
          "removed": false
        },
        {
          "address": "0x6489641a0e14315103a87fef87608fdd48da1631",
          "topics": [
            "0x36af321ec8d3c75236829c5317affd40ddb308863a1236d2d277a4025cccee1e",
            "0x00000000000000000000000030abf2e1ac3a52c8c3f99078d1d52667d656c84b"
          ],
          "data": "0x000000000000000000000000000000000000000000000000000000e8d4a51000000000000000000000000000000000000000000000000000000000e8d4a510000000000000000000000000000000000000000000000000000de0b6b3a7640000",
          "blockHash": "0xcbc990506756675e801a2f99ac9d028bfb0b582b697199a678eefe6f426622fc",
          "blockNumber": "0x6c1677",
          "transactionHash": "0xa2fd4183fa72e717ca1af212f8ada96a43197255f6f37a9c42f123e06b35c2b9",
          "transactionIndex": "0x54",
          "logIndex": "0x70",
          "removed": false
        },
        {
          "address": "0xb5faa226ae5227015db79d874de4fe92eeb590ca",
          "topics": [
            "0xfa07395bf3306a65fff8d4c8ffd11ad7e4a35bd7c10e2e296da2085b63d8c1e9",
            "0x00000000000000000000000030abf2e1ac3a52c8c3f99078d1d52667d656c84b",
            "0x0000000000000000000000000000000000000000000000000000000000000001"
          ],
          "data": "0x000000000000000000000000000000000000000000000000000000e8d4a510000000000000000000000000000000000000000000000000000de0b6b3a7640000",
          "blockHash": "0xcbc990506756675e801a2f99ac9d028bfb0b582b697199a678eefe6f426622fc",
          "blockNumber": "0x6c1677",
          "transactionHash": "0xa2fd4183fa72e717ca1af212f8ada96a43197255f6f37a9c42f123e06b35c2b9",
          "transactionIndex": "0x54",
          "logIndex": "0x71",
          "removed": false
        },
        {
          "address": "0x30a465f72ed6792e2f605d365f34d2ae21898ddf",
          "topics": [
            "0xddf252ad1be2c89b69c2b068fc378daa952ba7f163c4a11628f55a4df523b3ef",
            "0x0000000000000000000000000000000000000000000000000000000000000000",
            "0x00000000000000000000000030abf2e1ac3a52c8c3f99078d1d52667d656c84b"
          ],
          "data": "0x0000000000000000000000000000000000000000000000000de0b6b3a7640000",
          "blockHash": "0xcbc990506756675e801a2f99ac9d028bfb0b582b697199a678eefe6f426622fc",
          "blockNumber": "0x6c1677",
          "transactionHash": "0xa2fd4183fa72e717ca1af212f8ada96a43197255f6f37a9c42f123e06b35c2b9",
          "transactionIndex": "0x54",
          "logIndex": "0x72",
          "removed": false
        },
        {
          "address": "0x30a465f72ed6792e2f605d365f34d2ae21898ddf",
          "topics": [
            "0x9d228d69b5fdb8d273a2336f8fb8612d039631024ea9bf09c424a9503aa078f0",
            "0x000000000000000000000000b5faa226ae5227015db79d874de4fe92eeb590ca",
            "0x00000000000000000000000030abf2e1ac3a52c8c3f99078d1d52667d656c84b"
          ],
          "data": "0x0000000000000000000000000000000000000000000000000de0b6b3a7640000",
          "blockHash": "0xcbc990506756675e801a2f99ac9d028bfb0b582b697199a678eefe6f426622fc",
          "blockNumber": "0x6c1677",
          "transactionHash": "0xa2fd4183fa72e717ca1af212f8ada96a43197255f6f37a9c42f123e06b35c2b9",
          "transactionIndex": "0x54",
          "logIndex": "0x73",
          "removed": false
        },
        {
          "address": "0xb5faa226ae5227015db79d874de4fe92eeb590ca",
          "topics": [
            "0xa686754bee56eb58efe4f09f95bd4509ce7e02f4e4bfe6e241ff5bdee8989b1a",
            "0x00000000000000000000000030abf2e1ac3a52c8c3f99078d1d52667d656c84b",
            "0x0000000000000000000000000000000000000000000000000000000000000001"
          ],
          "data": "0x0000000000000000000000000000000000000000000000000de0b6b3a7640000",
          "blockHash": "0xcbc990506756675e801a2f99ac9d028bfb0b582b697199a678eefe6f426622fc",
          "blockNumber": "0x6c1677",
          "transactionHash": "0xa2fd4183fa72e717ca1af212f8ada96a43197255f6f37a9c42f123e06b35c2b9",
          "transactionIndex": "0x54",
          "logIndex": "0x74",
          "removed": false
        }
      ],
      "logsBloom": "0x00800000000000000000000000080000000000400000000008000000000800004000002000080810020000000000004000000000000000000000000000040000000000000000000000400208000000000000000201440000000000000000080020000000020000000000000000000800000000000000000000000010000000004000000000000000000000000000000000000040000000000000208000020040000000000000000000000000008000000000000000000000000000000004000000000002000000000000000001008000000100000000000000000000200460000000000000000000000000000000000000000000000000000000000080000000",
      "type": "0x2",
      "transactionHash": "0xa2fd4183fa72e717ca1af212f8ada96a43197255f6f37a9c42f123e06b35c2b9",
      "transactionIndex": "0x54",
      "blockHash": "0xcbc990506756675e801a2f99ac9d028bfb0b582b697199a678eefe6f426622fc",
      "blockNumber": "0x6c1677",
      "gasUsed": "0x28f94",
      "effectiveGasPrice": "0x3fe69a77",
      "from": "0x30abf2e1ac3a52c8c3f99078d1d52667d656c84b",
      "to": "0xb5faa226ae5227015db79d874de4fe92eeb590ca",
      "contractAddress": null
    }
  ],
  "libraries": [],
  "pending": [],
  "returns": {},
  "timestamp": 1731694539,
  "chain": 11155111,
  "commit": "d649af8"
}