{
  "transactions": [
    {
      "hash": "0x74ff41193241e89cebdb8bd904d6cd7aa7333817b8c87f91e534e797da9f9981",
      "transactionType": "CALL",
      "contractName": null,
      "contractAddress": "0x94a9d9ac8a22534e3faca9f4e7f2e2cf85d5e4c8",
      "function": "approve(address,uint256)",
      "arguments": [
        "0x921BFC7bb73D4B28bD06D944072B7F4437c5DAF7",
        "1000000000000"
      ],
      "transaction": {
        "from": "0x30abf2e1ac3a52c8c3f99078d1d52667d656c84b",
        "to": "0x94a9d9ac8a22534e3faca9f4e7f2e2cf85d5e4c8",
        "gas": "0x9d27",
        "value": "0x0",
        "input": "0x095ea7b3000000000000000000000000921bfc7bb73d4b28bd06d944072b7f4437c5daf7000000000000000000000000000000000000000000000000000000e8d4a51000",
        "nonce": "0x83",
        "chainId": "0xaa36a7"
      },
      "additionalContracts": [],
      "isFixedGasLimit": false
    },
    {
      "hash": "0xfb03128186e924107e0e9c1d268e24102c265ab914e0d522fed19319fcd51de3",
      "transactionType": "CALL",
      "contractName": null,
      "contractAddress": "0x921bfc7bb73d4b28bd06d944072b7f4437c5daf7",
      "function": "multicall(bytes[])",
      "arguments": [
        "[0x1a5368000000000000000000000000000000000000000000000000000000000000000002000000000000000000000000000000000000000000000000000000003b9aca00, 0x1ffe7f2800000000000000000000000000000000000000000000000000000000000000020000000000000000000000000000000000000000000000000de0b6b3a7640000]"
      ],
      "transaction": {
        "from": "0x30abf2e1ac3a52c8c3f99078d1d52667d656c84b",
        "to": "0x921bfc7bb73d4b28bd06d944072b7f4437c5daf7",
        "gas": "0x50acc",
        "value": "0x0",
        "input": "0xac9650d800000000000000000000000000000000000000000000000000000000000000200000000000000000000000000000000000000000000000000000000000000002000000000000000000000000000000000000000000000000000000000000004000000000000000000000000000000000000000000000000000000000000000c000000000000000000000000000000000000000000000000000000000000000441a5368000000000000000000000000000000000000000000000000000000000000000002000000000000000000000000000000000000000000000000000000003b9aca000000000000000000000000000000000000000000000000000000000000000000000000000000000000000000000000000000000000000000000000441ffe7f2800000000000000000000000000000000000000000000000000000000000000020000000000000000000000000000000000000000000000000de0b6b3a764000000000000000000000000000000000000000000000000000000000000",
        "nonce": "0x84",
        "chainId": "0xaa36a7"
      },
      "additionalContracts": [],
      "isFixedGasLimit": false
    }
  ],
  "receipts": [
    {
      "status": "0x1",
      "cumulativeGasUsed": "0xc16dcb",
      "logs": [
        {
          "address": "0x94a9d9ac8a22534e3faca9f4e7f2e2cf85d5e4c8",
          "topics": [
            "0x8c5be1e5ebec7d5bd14f71427d1e84f3dd0314c0f7b2291e5b200ac8c7c3b925",
            "0x00000000000000000000000030abf2e1ac3a52c8c3f99078d1d52667d656c84b",
            "0x000000000000000000000000921bfc7bb73d4b28bd06d944072b7f4437c5daf7"
          ],
          "data": "0x000000000000000000000000000000000000000000000000000000e8d4a51000",
          "blockHash": "0x16c048269f6d595bf0c6c65472d26f34a4564c16b4b096f4e33667cdbe04532d",
          "blockNumber": "0x6d5382",
          "transactionHash": "0x74ff41193241e89cebdb8bd904d6cd7aa7333817b8c87f91e534e797da9f9981",
          "transactionIndex": "0xde",
          "logIndex": "0x62",
          "removed": false
        }
      ],
      "logsBloom": "0x01000000000000000000000000000000000000000000000000000000000000000000000000000000000000000000000000000000000000000000000000200000000000000000000000000000000000000000000000000000000008000000080000000000000000000000000000000000000000040000000000000000000000000000000000000000000000000000000000000000000000000000000000000000020000000100000800004000000000000000000000000000000000000000000000000000000000000000000000008000000000000000000000000000200000000010000000000000000000000000000000000000000000000000000000000000",
      "type": "0x2",
      "transactionHash": "0x74ff41193241e89cebdb8bd904d6cd7aa7333817b8c87f91e534e797da9f9981",
      "transactionIndex": "0xde",
      "blockHash": "0x16c048269f6d595bf0c6c65472d26f34a4564c16b4b096f4e33667cdbe04532d",
      "blockNumber": "0x6d5382",
      "gasUsed": "0x71c7",
      "effectiveGasPrice": "0x142d10cec",
      "from": "0x30abf2e1ac3a52c8c3f99078d1d52667d656c84b",
      "to": "0x94a9d9ac8a22534e3faca9f4e7f2e2cf85d5e4c8",
      "contractAddress": null
    },
    {
      "status": "0x1",
      "cumulativeGasUsed": "0xc67aef",
      "logs": [
        {
          "address": "0x94a9d9ac8a22534e3faca9f4e7f2e2cf85d5e4c8",
          "topics": [
            "0xddf252ad1be2c89b69c2b068fc378daa952ba7f163c4a11628f55a4df523b3ef",
            "0x00000000000000000000000030abf2e1ac3a52c8c3f99078d1d52667d656c84b",
            "0x00000000000000000000000009be3d91cb4dd9ca5a24ffd13f3db7a9f059c2d5"
          ],
          "data": "0x000000000000000000000000000000000000000000000000000000003b9aca00",
          "blockHash": "0x16c048269f6d595bf0c6c65472d26f34a4564c16b4b096f4e33667cdbe04532d",
          "blockNumber": "0x6d5382",
          "transactionHash": "0xfb03128186e924107e0e9c1d268e24102c265ab914e0d522fed19319fcd51de3",
          "transactionIndex": "0xe3",
          "logIndex": "0x63",
          "removed": false
        },
        {
          "address": "0x94a9d9ac8a22534e3faca9f4e7f2e2cf85d5e4c8",
          "topics": [
            "0x8c5be1e5ebec7d5bd14f71427d1e84f3dd0314c0f7b2291e5b200ac8c7c3b925",
            "0x00000000000000000000000030abf2e1ac3a52c8c3f99078d1d52667d656c84b",
            "0x000000000000000000000000921bfc7bb73d4b28bd06d944072b7f4437c5daf7"
          ],
          "data": "0x000000000000000000000000000000000000000000000000000000e8990a4600",
          "blockHash": "0x16c048269f6d595bf0c6c65472d26f34a4564c16b4b096f4e33667cdbe04532d",
          "blockNumber": "0x6d5382",
          "transactionHash": "0xfb03128186e924107e0e9c1d268e24102c265ab914e0d522fed19319fcd51de3",
          "transactionIndex": "0xe3",
          "logIndex": "0x64",
          "removed": false
        },
        {
          "address": "0x09be3d91cb4dd9ca5a24ffd13f3db7a9f059c2d5",
          "topics": [
            "0x36af321ec8d3c75236829c5317affd40ddb308863a1236d2d277a4025cccee1e",
            "0x00000000000000000000000030abf2e1ac3a52c8c3f99078d1d52667d656c84b"
          ],
          "data": "0x000000000000000000000000000000000000000000000000000000003b9aca00000000000000000000000000000000000000000000000000000000003b9aca0000000000000000000000000000000000000000000000000000038d7ea4c68000",
          "blockHash": "0x16c048269f6d595bf0c6c65472d26f34a4564c16b4b096f4e33667cdbe04532d",
          "blockNumber": "0x6d5382",
          "transactionHash": "0xfb03128186e924107e0e9c1d268e24102c265ab914e0d522fed19319fcd51de3",
          "transactionIndex": "0xe3",
          "logIndex": "0x65",
          "removed": false
        },
        {
          "address": "0x921bfc7bb73d4b28bd06d944072b7f4437c5daf7",
          "topics": [
            "0xfa07395bf3306a65fff8d4c8ffd11ad7e4a35bd7c10e2e296da2085b63d8c1e9",
            "0x00000000000000000000000030abf2e1ac3a52c8c3f99078d1d52667d656c84b",
            "0x0000000000000000000000000000000000000000000000000000000000000002"
          ],
          "data": "0x000000000000000000000000000000000000000000000000000000003b9aca0000000000000000000000000000000000000000000000000000038d7ea4c68000",
          "blockHash": "0x16c048269f6d595bf0c6c65472d26f34a4564c16b4b096f4e33667cdbe04532d",
          "blockNumber": "0x6d5382",
          "transactionHash": "0xfb03128186e924107e0e9c1d268e24102c265ab914e0d522fed19319fcd51de3",
          "transactionIndex": "0xe3",
          "logIndex": "0x66",
          "removed": false
        },
        {
          "address": "0x4444238f07ca5d8a0efe67b1e9ad6231a258f5e4",
          "topics": [
            "0xddf252ad1be2c89b69c2b068fc378daa952ba7f163c4a11628f55a4df523b3ef",
            "0x0000000000000000000000000000000000000000000000000000000000000000",
            "0x00000000000000000000000030abf2e1ac3a52c8c3f99078d1d52667d656c84b"
          ],
          "data": "0x0000000000000000000000000000000000000000000000000de0b6b3a7640000",
          "blockHash": "0x16c048269f6d595bf0c6c65472d26f34a4564c16b4b096f4e33667cdbe04532d",
          "blockNumber": "0x6d5382",
          "transactionHash": "0xfb03128186e924107e0e9c1d268e24102c265ab914e0d522fed19319fcd51de3",
          "transactionIndex": "0xe3",
          "logIndex": "0x67",
          "removed": false
        },
        {
          "address": "0x4444238f07ca5d8a0efe67b1e9ad6231a258f5e4",
          "topics": [
            "0x9d228d69b5fdb8d273a2336f8fb8612d039631024ea9bf09c424a9503aa078f0",
            "0x000000000000000000000000921bfc7bb73d4b28bd06d944072b7f4437c5daf7",
            "0x00000000000000000000000030abf2e1ac3a52c8c3f99078d1d52667d656c84b"
          ],
          "data": "0x0000000000000000000000000000000000000000000000000de0b6b3a7640000",
          "blockHash": "0x16c048269f6d595bf0c6c65472d26f34a4564c16b4b096f4e33667cdbe04532d",
          "blockNumber": "0x6d5382",
          "transactionHash": "0xfb03128186e924107e0e9c1d268e24102c265ab914e0d522fed19319fcd51de3",
          "transactionIndex": "0xe3",
          "logIndex": "0x68",
          "removed": false
        },
        {
          "address": "0x921bfc7bb73d4b28bd06d944072b7f4437c5daf7",
          "topics": [
            "0xa686754bee56eb58efe4f09f95bd4509ce7e02f4e4bfe6e241ff5bdee8989b1a",
            "0x00000000000000000000000030abf2e1ac3a52c8c3f99078d1d52667d656c84b",
            "0x0000000000000000000000000000000000000000000000000000000000000002"
          ],
          "data": "0x0000000000000000000000000000000000000000000000000de0b6b3a7640000",
          "blockHash": "0x16c048269f6d595bf0c6c65472d26f34a4564c16b4b096f4e33667cdbe04532d",
          "blockNumber": "0x6d5382",
          "transactionHash": "0xfb03128186e924107e0e9c1d268e24102c265ab914e0d522fed19319fcd51de3",
          "transactionIndex": "0xe3",
          "logIndex": "0x69",
          "removed": false
        }
      ],
      "logsBloom": "0x05801000001000080000000000000000000000000000000000000000000800004000002000000010000000000000004000000000000800000000000080200000000000000000000000000a08000000000000000200000000000008000000080000001000020000000000040000000800000000040000000000000010000000000000000800000000000000000000000000000040000000000000200000100040020000000100000800004100000000000000000000000000000000000000000000000002000000000000000000008000000000000000000000000000200020000430000000000000000000000000000000000000008000000000000080000000",
      "type": "0x2",
      "transactionHash": "0xfb03128186e924107e0e9c1d268e24102c265ab914e0d522fed19319fcd51de3",
      "transactionIndex": "0xe3",
      "blockHash": "0x16c048269f6d595bf0c6c65472d26f34a4564c16b4b096f4e33667cdbe04532d",
      "blockNumber": "0x6d5382",
      "gasUsed": "0x3a684",
      "effectiveGasPrice": "0x142d10cec",
      "from": "0x30abf2e1ac3a52c8c3f99078d1d52667d656c84b",
      "to": "0x921bfc7bb73d4b28bd06d944072b7f4437c5daf7",
      "contractAddress": null
    }
  ],
  "libraries": [],
  "pending": [],
  "returns": {},
  "timestamp": 1732731494,
  "chain": 11155111,
  "commit": "446add2"
}