{
  "transactions": [
    {
      "hash": "0x9c3058665bc1623975cd0ba10e1057f8b12b3530b1a7d2c5102dc283e8bfb683",
      "transactionType": "CALL",
      "contractName": null,
      "contractAddress": "0x94a9d9ac8a22534e3faca9f4e7f2e2cf85d5e4c8",
      "function": "approve(address,uint256)",
      "arguments": [
        "0x921BFC7bb73D4B28bD06D944072B7F4437c5DAF7",
        "1000000000000"
      ],
      "transaction": {
        "from": "0x30abf2e1ac3a52c8c3f99078d1d52667d656c84b",
        "to": "0x94a9d9ac8a22534e3faca9f4e7f2e2cf85d5e4c8",
        "gas": "0x10816",
        "value": "0x0",
        "input": "0x095ea7b3000000000000000000000000921bfc7bb73d4b28bd06d944072b7f4437c5daf7000000000000000000000000000000000000000000000000000000e8d4a51000",
        "nonce": "0x77",
        "chainId": "0xaa36a7"
      },
      "additionalContracts": [],
      "isFixedGasLimit": false
    },
    {
      "hash": "0xd767740d2d2f4e9929206ec36eca7465da956bb977fb58bc34218c05a6982946",
      "transactionType": "CALL",
      "contractName": null,
      "contractAddress": "0x921bfc7bb73d4b28bd06d944072b7f4437c5daf7",
      "function": "multicall(bytes[])",
      "arguments": [
        "[0x1a5368000000000000000000000000000000000000000000000000000000000000000001000000000000000000000000000000000000000000000000000000003b9aca00, 0x1ffe7f2800000000000000000000000000000000000000000000000000000000000000010000000000000000000000000000000000000000000000000de0b6b3a7640000]"
      ],
      "transaction": {
        "from": "0x30abf2e1ac3a52c8c3f99078d1d52667d656c84b",
        "to": "0x921bfc7bb73d4b28bd06d944072b7f4437c5daf7",
        "gas": "0x9c422",
        "value": "0x0",
        "input": "0xac9650d800000000000000000000000000000000000000000000000000000000000000200000000000000000000000000000000000000000000000000000000000000002000000000000000000000000000000000000000000000000000000000000004000000000000000000000000000000000000000000000000000000000000000c000000000000000000000000000000000000000000000000000000000000000441a5368000000000000000000000000000000000000000000000000000000000000000001000000000000000000000000000000000000000000000000000000003b9aca000000000000000000000000000000000000000000000000000000000000000000000000000000000000000000000000000000000000000000000000441ffe7f2800000000000000000000000000000000000000000000000000000000000000010000000000000000000000000000000000000000000000000de0b6b3a764000000000000000000000000000000000000000000000000000000000000",
        "nonce": "0x78",
        "chainId": "0xaa36a7"
      },
      "additionalContracts": [],
      "isFixedGasLimit": false
    }
  ],
  "receipts": [
    {
      "status": "0x1",
      "cumulativeGasUsed": "0x961676",
      "logs": [
        {
          "address": "0x94a9d9ac8a22534e3faca9f4e7f2e2cf85d5e4c8",
          "topics": [
            "0x8c5be1e5ebec7d5bd14f71427d1e84f3dd0314c0f7b2291e5b200ac8c7c3b925",
            "0x00000000000000000000000030abf2e1ac3a52c8c3f99078d1d52667d656c84b",
            "0x000000000000000000000000921bfc7bb73d4b28bd06d944072b7f4437c5daf7"
          ],
          "data": "0x000000000000000000000000000000000000000000000000000000e8d4a51000",
          "blockHash": "0xc85acd4fec17a4d02be029093d43f8be593011be31e6dc761e097c858cad32e4",
          "blockNumber": "0x6d5358",
          "transactionHash": "0x9c3058665bc1623975cd0ba10e1057f8b12b3530b1a7d2c5102dc283e8bfb683",
          "transactionIndex": "0x114",
          "logIndex": "0x3f",
          "removed": false
        }
      ],
      "logsBloom": "0x01000000000000000000000000000000000000000000000000000000000000000000000000000000000000000000000000000000000000000000000000200000000000000000000000000000000000000000000000000000000008000000080000000000000000000000000000000000000000040000000000000000000000000000000000000000000000000000000000000000000000000000000000000000020000000100000800004000000000000000000000000000000000000000000000000000000000000000000000008000000000000000000000000000200000000010000000000000000000000000000000000000000000000000000000000000",
      "type": "0x2",
      "transactionHash": "0x9c3058665bc1623975cd0ba10e1057f8b12b3530b1a7d2c5102dc283e8bfb683",
      "transactionIndex": "0x114",
      "blockHash": "0xc85acd4fec17a4d02be029093d43f8be593011be31e6dc761e097c858cad32e4",
      "blockNumber": "0x6d5358",
      "gasUsed": "0xb493",
      "effectiveGasPrice": "0x103b446f0",
      "from": "0x30abf2e1ac3a52c8c3f99078d1d52667d656c84b",
      "to": "0x94a9d9ac8a22534e3faca9f4e7f2e2cf85d5e4c8",
      "contractAddress": null
    },
    {
      "status": "0x1",
      "cumulativeGasUsed": "0x9d2884",
      "logs": [
        {
          "address": "0x94a9d9ac8a22534e3faca9f4e7f2e2cf85d5e4c8",
          "topics": [
            "0xddf252ad1be2c89b69c2b068fc378daa952ba7f163c4a11628f55a4df523b3ef",
            "0x00000000000000000000000030abf2e1ac3a52c8c3f99078d1d52667d656c84b",
            "0x000000000000000000000000f69834897e3617a87ecd58a7999e422ff0e3915c"
          ],
          "data": "0x000000000000000000000000000000000000000000000000000000003b9aca00",
          "blockHash": "0xc85acd4fec17a4d02be029093d43f8be593011be31e6dc761e097c858cad32e4",
          "blockNumber": "0x6d5358",
          "transactionHash": "0xd767740d2d2f4e9929206ec36eca7465da956bb977fb58bc34218c05a6982946",
          "transactionIndex": "0x115",
          "logIndex": "0x40",
          "removed": false
        },
        {
          "address": "0x94a9d9ac8a22534e3faca9f4e7f2e2cf85d5e4c8",
          "topics": [
            "0x8c5be1e5ebec7d5bd14f71427d1e84f3dd0314c0f7b2291e5b200ac8c7c3b925",
            "0x00000000000000000000000030abf2e1ac3a52c8c3f99078d1d52667d656c84b",
            "0x000000000000000000000000921bfc7bb73d4b28bd06d944072b7f4437c5daf7"
          ],
          "data": "0x000000000000000000000000000000000000000000000000000000e8990a4600",
          "blockHash": "0xc85acd4fec17a4d02be029093d43f8be593011be31e6dc761e097c858cad32e4",
          "blockNumber": "0x6d5358",
          "transactionHash": "0xd767740d2d2f4e9929206ec36eca7465da956bb977fb58bc34218c05a6982946",
          "transactionIndex": "0x115",
          "logIndex": "0x41",
          "removed": false
        },
        {
          "address": "0x6ae43d3271ff6888e7fc43fd7321a503ff738951",
          "topics": [
            "0x804c9b842b2748a22bb64b345453a3de7ca54a6ca45ce00d415894979e22897a",
            "0x00000000000000000000000094a9d9ac8a22534e3faca9f4e7f2e2cf85d5e4c8"
          ],
          "data": "0x0000000000000000000000000000000000000000015d91b588b6583b3d5c93a3000000000000000000000000000000000000000001c4176327815119e8995b30000000000000000000000000000000000000000001b7af0386634f2d79995b30000000000000000000000000000000000000000003d52f3d89a59b2fe71376be00000000000000000000000000000000000000000404035079a8bf1fc38530d6",
          "blockHash": "0xc85acd4fec17a4d02be029093d43f8be593011be31e6dc761e097c858cad32e4",
          "blockNumber": "0x6d5358",
          "transactionHash": "0xd767740d2d2f4e9929206ec36eca7465da956bb977fb58bc34218c05a6982946",
          "transactionIndex": "0x115",
          "logIndex": "0x42",
          "removed": false
        },
        {
          "address": "0x94a9d9ac8a22534e3faca9f4e7f2e2cf85d5e4c8",
          "topics": [
            "0xddf252ad1be2c89b69c2b068fc378daa952ba7f163c4a11628f55a4df523b3ef",
            "0x000000000000000000000000f69834897e3617a87ecd58a7999e422ff0e3915c",
            "0x00000000000000000000000016da4541ad1807f4443d92d26044c1147406eb80"
          ],
          "data": "0x000000000000000000000000000000000000000000000000000000003b9aca00",
          "blockHash": "0xc85acd4fec17a4d02be029093d43f8be593011be31e6dc761e097c858cad32e4",
          "blockNumber": "0x6d5358",
          "transactionHash": "0xd767740d2d2f4e9929206ec36eca7465da956bb977fb58bc34218c05a6982946",
          "transactionIndex": "0x115",
          "logIndex": "0x43",
          "removed": false
        },
        {
          "address": "0x94a9d9ac8a22534e3faca9f4e7f2e2cf85d5e4c8",
          "topics": [
            "0x8c5be1e5ebec7d5bd14f71427d1e84f3dd0314c0f7b2291e5b200ac8c7c3b925",
            "0x000000000000000000000000f69834897e3617a87ecd58a7999e422ff0e3915c",
            "0x0000000000000000000000006ae43d3271ff6888e7fc43fd7321a503ff738951"
          ],
          "data": "0xffffffffffffffffffffffffffffffffffffffffffffffffffffffffc46535ff",
          "blockHash": "0xc85acd4fec17a4d02be029093d43f8be593011be31e6dc761e097c858cad32e4",
          "blockNumber": "0x6d5358",
          "transactionHash": "0xd767740d2d2f4e9929206ec36eca7465da956bb977fb58bc34218c05a6982946",
          "transactionIndex": "0x115",
          "logIndex": "0x44",
          "removed": false
        },
        {
          "address": "0x16da4541ad1807f4443d92d26044c1147406eb80",
          "topics": [
            "0xddf252ad1be2c89b69c2b068fc378daa952ba7f163c4a11628f55a4df523b3ef",
            "0x0000000000000000000000000000000000000000000000000000000000000000",
            "0x000000000000000000000000f69834897e3617a87ecd58a7999e422ff0e3915c"
          ],
          "data": "0x000000000000000000000000000000000000000000000000000000003b9aca00",
          "blockHash": "0xc85acd4fec17a4d02be029093d43f8be593011be31e6dc761e097c858cad32e4",
          "blockNumber": "0x6d5358",
          "transactionHash": "0xd767740d2d2f4e9929206ec36eca7465da956bb977fb58bc34218c05a6982946",
          "transactionIndex": "0x115",
          "logIndex": "0x45",
          "removed": false
        },
        {
          "address": "0x16da4541ad1807f4443d92d26044c1147406eb80",
          "topics": [
            "0x458f5fa412d0f69b08dd84872b0215675cc67bc1d5b6fd93300a1c3878b86196",
            "0x000000000000000000000000f69834897e3617a87ecd58a7999e422ff0e3915c",
            "0x000000000000000000000000f69834897e3617a87ecd58a7999e422ff0e3915c"
          ],
          "data": "0x000000000000000000000000000000000000000000000000000000003b9aca000000000000000000000000000000000000000000000000000000000000000000000000000000000000000000000000000000000003d52f3d89a59b2fe71376be",
          "blockHash": "0xc85acd4fec17a4d02be029093d43f8be593011be31e6dc761e097c858cad32e4",
          "blockNumber": "0x6d5358",
          "transactionHash": "0xd767740d2d2f4e9929206ec36eca7465da956bb977fb58bc34218c05a6982946",
          "transactionIndex": "0x115",
          "logIndex": "0x46",
          "removed": false
        },
        {
          "address": "0x6ae43d3271ff6888e7fc43fd7321a503ff738951",
          "topics": [
            "0x00058a56ea94653cdf4f152d227ace22d4c00ad99e2a43f58cb7d9e3feb295f2",
            "0x00000000000000000000000094a9d9ac8a22534e3faca9f4e7f2e2cf85d5e4c8",
            "0x000000000000000000000000f69834897e3617a87ecd58a7999e422ff0e3915c"
          ],
          "data": "0x",
          "blockHash": "0xc85acd4fec17a4d02be029093d43f8be593011be31e6dc761e097c858cad32e4",
          "blockNumber": "0x6d5358",
          "transactionHash": "0xd767740d2d2f4e9929206ec36eca7465da956bb977fb58bc34218c05a6982946",
          "transactionIndex": "0x115",
          "logIndex": "0x47",
          "removed": false
        },
        {
          "address": "0x6ae43d3271ff6888e7fc43fd7321a503ff738951",
          "topics": [
            "0x2b627736bca15cd5381dcf80b0bf11fd197d01a037c52b927a881a10fb73ba61",
            "0x00000000000000000000000094a9d9ac8a22534e3faca9f4e7f2e2cf85d5e4c8",
            "0x000000000000000000000000f69834897e3617a87ecd58a7999e422ff0e3915c",
            "0x0000000000000000000000000000000000000000000000000000000000000000"
          ],
          "data": "0x000000000000000000000000f69834897e3617a87ecd58a7999e422ff0e3915c000000000000000000000000000000000000000000000000000000003b9aca00",
          "blockHash": "0xc85acd4fec17a4d02be029093d43f8be593011be31e6dc761e097c858cad32e4",
          "blockNumber": "0x6d5358",
          "transactionHash": "0xd767740d2d2f4e9929206ec36eca7465da956bb977fb58bc34218c05a6982946",
          "transactionIndex": "0x115",
          "logIndex": "0x48",
          "removed": false
        },
        {
          "address": "0xf69834897e3617a87ecd58a7999e422ff0e3915c",
          "topics": [
            "0x36af321ec8d3c75236829c5317affd40ddb308863a1236d2d277a4025cccee1e",
            "0x00000000000000000000000030abf2e1ac3a52c8c3f99078d1d52667d656c84b"
          ],
          "data": "0x000000000000000000000000000000000000000000000000000000003b9aca00000000000000000000000000000000000000000000000000000000003b9aca0000000000000000000000000000000000000000000000000000038d7ea4c68000",
          "blockHash": "0xc85acd4fec17a4d02be029093d43f8be593011be31e6dc761e097c858cad32e4",
          "blockNumber": "0x6d5358",
          "transactionHash": "0xd767740d2d2f4e9929206ec36eca7465da956bb977fb58bc34218c05a6982946",
          "transactionIndex": "0x115",
          "logIndex": "0x49",
          "removed": false
        },
        {
          "address": "0x921bfc7bb73d4b28bd06d944072b7f4437c5daf7",
          "topics": [
            "0xfa07395bf3306a65fff8d4c8ffd11ad7e4a35bd7c10e2e296da2085b63d8c1e9",
            "0x00000000000000000000000030abf2e1ac3a52c8c3f99078d1d52667d656c84b",
            "0x0000000000000000000000000000000000000000000000000000000000000001"
          ],
          "data": "0x000000000000000000000000000000000000000000000000000000003b9aca0000000000000000000000000000000000000000000000000000038d7ea4c68000",
          "blockHash": "0xc85acd4fec17a4d02be029093d43f8be593011be31e6dc761e097c858cad32e4",
          "blockNumber": "0x6d5358",
          "transactionHash": "0xd767740d2d2f4e9929206ec36eca7465da956bb977fb58bc34218c05a6982946",
          "transactionIndex": "0x115",
          "logIndex": "0x4a",
          "removed": false
        },
        {
          "address": "0x4444238f07ca5d8a0efe67b1e9ad6231a258f5e4",
          "topics": [
            "0xddf252ad1be2c89b69c2b068fc378daa952ba7f163c4a11628f55a4df523b3ef",
            "0x0000000000000000000000000000000000000000000000000000000000000000",
            "0x00000000000000000000000030abf2e1ac3a52c8c3f99078d1d52667d656c84b"
          ],
          "data": "0x0000000000000000000000000000000000000000000000000de0b6b3a7640000",
          "blockHash": "0xc85acd4fec17a4d02be029093d43f8be593011be31e6dc761e097c858cad32e4",
          "blockNumber": "0x6d5358",
          "transactionHash": "0xd767740d2d2f4e9929206ec36eca7465da956bb977fb58bc34218c05a6982946",
          "transactionIndex": "0x115",
          "logIndex": "0x4b",
          "removed": false
        },
        {
          "address": "0x4444238f07ca5d8a0efe67b1e9ad6231a258f5e4",
          "topics": [
            "0x9d228d69b5fdb8d273a2336f8fb8612d039631024ea9bf09c424a9503aa078f0",
            "0x000000000000000000000000921bfc7bb73d4b28bd06d944072b7f4437c5daf7",
            "0x00000000000000000000000030abf2e1ac3a52c8c3f99078d1d52667d656c84b"
          ],
          "data": "0x0000000000000000000000000000000000000000000000000de0b6b3a7640000",
          "blockHash": "0xc85acd4fec17a4d02be029093d43f8be593011be31e6dc761e097c858cad32e4",
          "blockNumber": "0x6d5358",
          "transactionHash": "0xd767740d2d2f4e9929206ec36eca7465da956bb977fb58bc34218c05a6982946",
          "transactionIndex": "0x115",
          "logIndex": "0x4c",
          "removed": false
        },
        {
          "address": "0x921bfc7bb73d4b28bd06d944072b7f4437c5daf7",
          "topics": [
            "0xa686754bee56eb58efe4f09f95bd4509ce7e02f4e4bfe6e241ff5bdee8989b1a",
            "0x00000000000000000000000030abf2e1ac3a52c8c3f99078d1d52667d656c84b",
            "0x0000000000000000000000000000000000000000000000000000000000000001"
          ],
          "data": "0x0000000000000000000000000000000000000000000000000de0b6b3a7640000",
          "blockHash": "0xc85acd4fec17a4d02be029093d43f8be593011be31e6dc761e097c858cad32e4",
          "blockNumber": "0x6d5358",
          "transactionHash": "0xd767740d2d2f4e9929206ec36eca7465da956bb977fb58bc34218c05a6982946",
          "transactionIndex": "0x115",
          "logIndex": "0x4d",
          "removed": false
        }
      ],
      "logsBloom": "0x0180100000000808828000000000000000000040000040000000000000082000400000a000000010000100000004004000040000002000000000000000240000000000000000000000000a0800000000000000020004000000000804000028000000000002000000000004000000080000000004000000000000101000000000200000008100000000000000000000000020004000000000000020000010004002000000010000080000c000000000000000000000000000000000102000010002008002000000000000002040008000000000000000020040000000200060000030000000000000000000000000000040000000000000000000400080000000",
      "type": "0x2",
      "transactionHash": "0xd767740d2d2f4e9929206ec36eca7465da956bb977fb58bc34218c05a6982946",
      "transactionIndex": "0x115",
      "blockHash": "0xc85acd4fec17a4d02be029093d43f8be593011be31e6dc761e097c858cad32e4",
      "blockNumber": "0x6d5358",
      "gasUsed": "0x7120e",
      "effectiveGasPrice": "0x103b446f0",
      "from": "0x30abf2e1ac3a52c8c3f99078d1d52667d656c84b",
      "to": "0x921bfc7bb73d4b28bd06d944072b7f4437c5daf7",
      "contractAddress": null
    }
  ],
  "libraries": [],
  "pending": [],
  "returns": {},
  "timestamp": 1732730978,
  "chain": 11155111,
  "commit": "446add2"
}