{
  "transactions": [
    {
      "hash": null,
      "transactionType": "CALL",
      "contractName": null,
      "contractAddress": "0xfe9723ab9dc30c0c960f7e104133bf2ae063a2e6",
      "function": "mint(address,uint256)",
      "arguments": [
        "0x30Abf2e1ac3A52c8c3F99078d1D52667d656C84B",
        "1000000000000000"
      ],
      "transaction": {
        "from": "0x30abf2e1ac3a52c8c3f99078d1d52667d656c84b",
        "to": "0xfe9723ab9dc30c0c960f7e104133bf2ae063a2e6",
        "gas": "0xc31f",
        "value": "0x0",
        "input": "0x40c10f1900000000000000000000000030abf2e1ac3a52c8c3f99078d1d52667d656c84b00000000000000000000000000000000000000000000000000038d7ea4c68000",
        "nonce": "0x4f",
        "chainId": "0xaa36a7"
      },
      "additionalContracts": [],
      "isFixedGasLimit": false
    },
    {
      "hash": null,
      "transactionType": "CALL",
      "contractName": null,
      "contractAddress": "0xfe9723ab9dc30c0c960f7e104133bf2ae063a2e6",
      "function": "approve(address,uint256)",
      "arguments": [
        "0xb5FAA226AE5227015dB79D874De4Fe92eeb590cA",
        "1000000000000000"
      ],
      "transaction": {
        "from": "0x30abf2e1ac3a52c8c3f99078d1d52667d656c84b",
        "to": "0xfe9723ab9dc30c0c960f7e104133bf2ae063a2e6",
        "gas": "0xf9e7",
        "value": "0x0",
        "input": "0x095ea7b3000000000000000000000000b5faa226ae5227015db79d874de4fe92eeb590ca00000000000000000000000000000000000000000000000000038d7ea4c68000",
        "nonce": "0x50",
        "chainId": "0xaa36a7"
      },
      "additionalContracts": [],
      "isFixedGasLimit": false
    },
    {
      "hash": null,
      "transactionType": "CALL",
      "contractName": null,
      "contractAddress": "0xb5faa226ae5227015db79d874de4fe92eeb590ca",
      "function": "deposit(uint96,uint256)",
      "arguments": [
        "1",
        "1000000000000000"
      ],
      "transaction": {
        "from": "0x30abf2e1ac3a52c8c3f99078d1d52667d656c84b",
        "to": "0xb5faa226ae5227015db79d874de4fe92eeb590ca",
        "gas": "0x15568",
        "value": "0x0",
        "input": "0x1a536800000000000000000000000000000000000000000000000000000000000000000100000000000000000000000000000000000000000000000000038d7ea4c68000",
        "nonce": "0x51",
        "chainId": "0xaa36a7"
      },
      "additionalContracts": [],
      "isFixedGasLimit": false
    },
    {
      "hash": null,
      "transactionType": "CALL",
      "contractName": null,
      "contractAddress": "0xb5faa226ae5227015db79d874de4fe92eeb590ca",
      "function": "mint(uint96,uint256)",
      "arguments": [
        "1",
        "1000000000000000000"
      ],
      "transaction": {
        "from": "0x30abf2e1ac3a52c8c3f99078d1d52667d656c84b",
        "to": "0xb5faa226ae5227015db79d874de4fe92eeb590ca",
        "gas": "0x2e992",
        "value": "0x0",
        "input": "0x1ffe7f2800000000000000000000000000000000000000000000000000000000000000010000000000000000000000000000000000000000000000000de0b6b3a7640000",
        "nonce": "0x52",
        "chainId": "0xaa36a7"
      },
      "additionalContracts": [],
      "isFixedGasLimit": false
    }
  ],
  "receipts": [],
  "libraries": [],
  "pending": [],
  "returns": {},
  "timestamp": 1731611067,
  "chain": 11155111,
  "commit": "07fbfcb"
}