{
  "transactions": [
    {
      "hash": "0x9936dd837ee56240f8fc138b991ad45eda85cb7bd7b979055c2b813d3516eac3",
      "transactionType": "CALL",
      "contractName": null,
      "contractAddress": "0x036cbd53842c5426634e7929541ec2318f3dcf7e",
      "function": "approve(address,uint256)",
      "arguments": [
        "0x62beb4f28f70cF7E4d5BCa54e86851b12AeF2d48",
        "1000000000000"
      ],
      "transaction": {
        "from": "0x30abf2e1ac3a52c8c3f99078d1d52667d656c84b",
        "to": "0x036cbd53842c5426634e7929541ec2318f3dcf7e",
        "gas": "0x13cc6",
        "value": "0x0",
        "input": "0x095ea7b300000000000000000000000062beb4f28f70cf7e4d5bca54e86851b12aef2d48000000000000000000000000000000000000000000000000000000e8d4a51000",
        "nonce": "0x3b",
        "chainId": "0x14a34"
      },
      "additionalContracts": [],
      "isFixedGasLimit": false
    },
    {
      "hash": "0xe35d4a0b924e60e48e85d84de8714dc4dc26613bd92792800af2b2a7051b0022",
      "transactionType": "CALL",
      "contractName": null,
      "contractAddress": "0x62beb4f28f70cf7e4d5bca54e86851b12aef2d48",
      "function": "multicall(bytes[])",
      "arguments": [
        "[0x1a536800000000000000000000000000000000000000000000000000000000000000000200000000000000000000000000000000000000000000000000000000004c4b40, 0x1ffe7f280000000000000000000000000000000000000000000000000000000000000002000000000000000000000000000000000000000000000000002386f26fc10000]"
      ],
      "transaction": {
        "from": "0x30abf2e1ac3a52c8c3f99078d1d52667d656c84b",
        "to": "0x62beb4f28f70cf7e4d5bca54e86851b12aef2d48",
        "gas": "0xa419e",
        "value": "0x0",
        "input": "0xac9650d800000000000000000000000000000000000000000000000000000000000000200000000000000000000000000000000000000000000000000000000000000002000000000000000000000000000000000000000000000000000000000000004000000000000000000000000000000000000000000000000000000000000000c000000000000000000000000000000000000000000000000000000000000000441a536800000000000000000000000000000000000000000000000000000000000000000200000000000000000000000000000000000000000000000000000000004c4b400000000000000000000000000000000000000000000000000000000000000000000000000000000000000000000000000000000000000000000000441ffe7f280000000000000000000000000000000000000000000000000000000000000002000000000000000000000000000000000000000000000000002386f26fc1000000000000000000000000000000000000000000000000000000000000",
        "nonce": "0x3c",
        "chainId": "0x14a34"
      },
      "additionalContracts": [],
      "isFixedGasLimit": false
    }
  ],
  "receipts": [
    {
      "status": "0x1",
      "cumulativeGasUsed": "0x26a418",
      "logs": [
        {
          "address": "0x036cbd53842c5426634e7929541ec2318f3dcf7e",
          "topics": [
            "0x8c5be1e5ebec7d5bd14f71427d1e84f3dd0314c0f7b2291e5b200ac8c7c3b925",
            "0x00000000000000000000000030abf2e1ac3a52c8c3f99078d1d52667d656c84b",
            "0x00000000000000000000000062beb4f28f70cf7e4d5bca54e86851b12aef2d48"
          ],
          "data": "0x000000000000000000000000000000000000000000000000000000e8d4a51000",
          "blockHash": "0x5854200b3087369479109a15a15b9e35b504cdde8b4b572c7a477ec738817d3c",
          "blockNumber": "0x138d14e",
          "transactionHash": "0x9936dd837ee56240f8fc138b991ad45eda85cb7bd7b979055c2b813d3516eac3",
          "transactionIndex": "0x19",
          "logIndex": "0x3c",
          "removed": false
        }
      ],
      "logsBloom": "0x00000000040000000000000000000000000000000000000000040000000000008000000000000000000000000000000000000000000000000000000000200000000000000000000000000000000000000000000000000000000000000000080800000000000000000000000000000000000000000001000000000000000000000000000000000000000000000000000000000000000000000000000000000000020000000000000000000000000000000000000000000000000000000000000000000000000000000000000000008000000000000000000000000000200000000010000000000000000000000020000000000000000000000000000000000000",
      "type": "0x2",
      "transactionHash": "0x9936dd837ee56240f8fc138b991ad45eda85cb7bd7b979055c2b813d3516eac3",
      "transactionIndex": "0x19",
      "blockHash": "0x5854200b3087369479109a15a15b9e35b504cdde8b4b572c7a477ec738817d3c",
      "blockNumber": "0x138d14e",
      "gasUsed": "0xd899",
      "effectiveGasPrice": "0x108a0d7b",
      "from": "0x30abf2e1ac3a52c8c3f99078d1d52667d656c84b",
      "to": "0x036cbd53842c5426634e7929541ec2318f3dcf7e",
      "contractAddress": null,
      "l1BaseFeeScalar": "0x44d",
      "l1BlobBaseFee": "0x278aaebf5",
      "l1BlobBaseFeeScalar": "0xa118b",
      "l1Fee": "0xa8e59ac2f9",
      "l1GasPrice": "0x34e5ebd92",
      "l1GasUsed": "0x640"
    },
    {
      "status": "0x1",
      "cumulativeGasUsed": "0x3410d0",
      "logs": [
        {
          "address": "0x036cbd53842c5426634e7929541ec2318f3dcf7e",
          "topics": [
            "0xddf252ad1be2c89b69c2b068fc378daa952ba7f163c4a11628f55a4df523b3ef",
            "0x00000000000000000000000030abf2e1ac3a52c8c3f99078d1d52667d656c84b",
            "0x000000000000000000000000af56c4266397d87ec2a04269484f50f42eb650cd"
          ],
          "data": "0x00000000000000000000000000000000000000000000000000000000004c4b40",
          "blockHash": "0x5854200b3087369479109a15a15b9e35b504cdde8b4b572c7a477ec738817d3c",
          "blockNumber": "0x138d14e",
          "transactionHash": "0xe35d4a0b924e60e48e85d84de8714dc4dc26613bd92792800af2b2a7051b0022",
          "transactionIndex": "0x1d",
          "logIndex": "0x48",
          "removed": false
        },
        {
          "address": "0x07ea79f68b2b3df564d0a34f8e19d9b1e339814b",
          "topics": [
            "0x804c9b842b2748a22bb64b345453a3de7ca54a6ca45ce00d415894979e22897a",
            "0x000000000000000000000000036cbd53842c5426634e7929541ec2318f3dcf7e"
          ],
          "data": "0x00000000000000000000000000000000000000000004014c3f562923183b7e8a000000000000000000000000000000000000000000499163c967aab9716087160000000000000000000000000000000000000000000faa502edba1bf6b60871600000000000000000000000000000000000000000346174c733a8b49b525bc230000000000000000000000000000000000000000034fc32e945d4d047cac4232",
          "blockHash": "0x5854200b3087369479109a15a15b9e35b504cdde8b4b572c7a477ec738817d3c",
          "blockNumber": "0x138d14e",
          "transactionHash": "0xe35d4a0b924e60e48e85d84de8714dc4dc26613bd92792800af2b2a7051b0022",
          "transactionIndex": "0x1d",
          "logIndex": "0x49",
          "removed": false
        },
        {
          "address": "0x036cbd53842c5426634e7929541ec2318f3dcf7e",
          "topics": [
            "0xddf252ad1be2c89b69c2b068fc378daa952ba7f163c4a11628f55a4df523b3ef",
            "0x000000000000000000000000af56c4266397d87ec2a04269484f50f42eb650cd",
            "0x000000000000000000000000f53b60f4006cab2b3c4688ce41fd5362427a2a66"
          ],
          "data": "0x00000000000000000000000000000000000000000000000000000000004c4b40",
          "blockHash": "0x5854200b3087369479109a15a15b9e35b504cdde8b4b572c7a477ec738817d3c",
          "blockNumber": "0x138d14e",
          "transactionHash": "0xe35d4a0b924e60e48e85d84de8714dc4dc26613bd92792800af2b2a7051b0022",
          "transactionIndex": "0x1d",
          "logIndex": "0x4a",
          "removed": false
        },
        {
          "address": "0xf53b60f4006cab2b3c4688ce41fd5362427a2a66",
          "topics": [
            "0xddf252ad1be2c89b69c2b068fc378daa952ba7f163c4a11628f55a4df523b3ef",
            "0x0000000000000000000000000000000000000000000000000000000000000000",
            "0x000000000000000000000000af56c4266397d87ec2a04269484f50f42eb650cd"
          ],
          "data": "0x00000000000000000000000000000000000000000000000000000000004c4b40",
          "blockHash": "0x5854200b3087369479109a15a15b9e35b504cdde8b4b572c7a477ec738817d3c",
          "blockNumber": "0x138d14e",
          "transactionHash": "0xe35d4a0b924e60e48e85d84de8714dc4dc26613bd92792800af2b2a7051b0022",
          "transactionIndex": "0x1d",
          "logIndex": "0x4b",
          "removed": false
        },
        {
          "address": "0xf53b60f4006cab2b3c4688ce41fd5362427a2a66",
          "topics": [
            "0x458f5fa412d0f69b08dd84872b0215675cc67bc1d5b6fd93300a1c3878b86196",
            "0x000000000000000000000000af56c4266397d87ec2a04269484f50f42eb650cd",
            "0x000000000000000000000000af56c4266397d87ec2a04269484f50f42eb650cd"
          ],
          "data": "0x00000000000000000000000000000000000000000000000000000000004c4b40000000000000000000000000000000000000000000000000000000000000000000000000000000000000000000000000000000000346174c733a8b49b525bc23",
          "blockHash": "0x5854200b3087369479109a15a15b9e35b504cdde8b4b572c7a477ec738817d3c",
          "blockNumber": "0x138d14e",
          "transactionHash": "0xe35d4a0b924e60e48e85d84de8714dc4dc26613bd92792800af2b2a7051b0022",
          "transactionIndex": "0x1d",
          "logIndex": "0x4c",
          "removed": false
        },
        {
          "address": "0x07ea79f68b2b3df564d0a34f8e19d9b1e339814b",
          "topics": [
            "0x00058a56ea94653cdf4f152d227ace22d4c00ad99e2a43f58cb7d9e3feb295f2",
            "0x000000000000000000000000036cbd53842c5426634e7929541ec2318f3dcf7e",
            "0x000000000000000000000000af56c4266397d87ec2a04269484f50f42eb650cd"
          ],
          "data": "0x",
          "blockHash": "0x5854200b3087369479109a15a15b9e35b504cdde8b4b572c7a477ec738817d3c",
          "blockNumber": "0x138d14e",
          "transactionHash": "0xe35d4a0b924e60e48e85d84de8714dc4dc26613bd92792800af2b2a7051b0022",
          "transactionIndex": "0x1d",
          "logIndex": "0x4d",
          "removed": false
        },
        {
          "address": "0x07ea79f68b2b3df564d0a34f8e19d9b1e339814b",
          "topics": [
            "0x2b627736bca15cd5381dcf80b0bf11fd197d01a037c52b927a881a10fb73ba61",
            "0x000000000000000000000000036cbd53842c5426634e7929541ec2318f3dcf7e",
            "0x000000000000000000000000af56c4266397d87ec2a04269484f50f42eb650cd",
            "0x0000000000000000000000000000000000000000000000000000000000000000"
          ],
          "data": "0x000000000000000000000000af56c4266397d87ec2a04269484f50f42eb650cd00000000000000000000000000000000000000000000000000000000004c4b40",
          "blockHash": "0x5854200b3087369479109a15a15b9e35b504cdde8b4b572c7a477ec738817d3c",
          "blockNumber": "0x138d14e",
          "transactionHash": "0xe35d4a0b924e60e48e85d84de8714dc4dc26613bd92792800af2b2a7051b0022",
          "transactionIndex": "0x1d",
          "logIndex": "0x4e",
          "removed": false
        },
        {
          "address": "0xaf56c4266397d87ec2a04269484f50f42eb650cd",
          "topics": [
            "0x36af321ec8d3c75236829c5317affd40ddb308863a1236d2d277a4025cccee1e",
            "0x00000000000000000000000030abf2e1ac3a52c8c3f99078d1d52667d656c84b"
          ],
          "data": "0x00000000000000000000000000000000000000000000000000000000004c4b4000000000000000000000000000000000000000000000000000000000004c4b400000000000000000000000000000000000000000000000000000048c27395000",
          "blockHash": "0x5854200b3087369479109a15a15b9e35b504cdde8b4b572c7a477ec738817d3c",
          "blockNumber": "0x138d14e",
          "transactionHash": "0xe35d4a0b924e60e48e85d84de8714dc4dc26613bd92792800af2b2a7051b0022",
          "transactionIndex": "0x1d",
          "logIndex": "0x4f",
          "removed": false
        },
        {
          "address": "0x62beb4f28f70cf7e4d5bca54e86851b12aef2d48",
          "topics": [
            "0xfa07395bf3306a65fff8d4c8ffd11ad7e4a35bd7c10e2e296da2085b63d8c1e9",
            "0x00000000000000000000000030abf2e1ac3a52c8c3f99078d1d52667d656c84b",
            "0x0000000000000000000000000000000000000000000000000000000000000002"
          ],
          "data": "0x00000000000000000000000000000000000000000000000000000000004c4b400000000000000000000000000000000000000000000000000000048c27395000",
          "blockHash": "0x5854200b3087369479109a15a15b9e35b504cdde8b4b572c7a477ec738817d3c",
          "blockNumber": "0x138d14e",
          "transactionHash": "0xe35d4a0b924e60e48e85d84de8714dc4dc26613bd92792800af2b2a7051b0022",
          "transactionIndex": "0x1d",
          "logIndex": "0x50",
          "removed": false
        },
        {
          "address": "0x18a849b56a97b52ca5f1b0f66f3cf7bc4bf0ece2",
          "topics": [
            "0xddf252ad1be2c89b69c2b068fc378daa952ba7f163c4a11628f55a4df523b3ef",
            "0x0000000000000000000000000000000000000000000000000000000000000000",
            "0x00000000000000000000000030abf2e1ac3a52c8c3f99078d1d52667d656c84b"
          ],
          "data": "0x000000000000000000000000000000000000000000000000002386f26fc10000",
          "blockHash": "0x5854200b3087369479109a15a15b9e35b504cdde8b4b572c7a477ec738817d3c",
          "blockNumber": "0x138d14e",
          "transactionHash": "0xe35d4a0b924e60e48e85d84de8714dc4dc26613bd92792800af2b2a7051b0022",
          "transactionIndex": "0x1d",
          "logIndex": "0x51",
          "removed": false
        },
        {
          "address": "0x18a849b56a97b52ca5f1b0f66f3cf7bc4bf0ece2",
          "topics": [
            "0x9d228d69b5fdb8d273a2336f8fb8612d039631024ea9bf09c424a9503aa078f0",
            "0x00000000000000000000000062beb4f28f70cf7e4d5bca54e86851b12aef2d48",
            "0x00000000000000000000000030abf2e1ac3a52c8c3f99078d1d52667d656c84b"
          ],
          "data": "0x000000000000000000000000000000000000000000000000002386f26fc10000",
          "blockHash": "0x5854200b3087369479109a15a15b9e35b504cdde8b4b572c7a477ec738817d3c",
          "blockNumber": "0x138d14e",
          "transactionHash": "0xe35d4a0b924e60e48e85d84de8714dc4dc26613bd92792800af2b2a7051b0022",
          "transactionIndex": "0x1d",
          "logIndex": "0x52",
          "removed": false
        },
        {
          "address": "0x62beb4f28f70cf7e4d5bca54e86851b12aef2d48",
          "topics": [
            "0xa686754bee56eb58efe4f09f95bd4509ce7e02f4e4bfe6e241ff5bdee8989b1a",
            "0x00000000000000000000000030abf2e1ac3a52c8c3f99078d1d52667d656c84b",
            "0x0000000000000000000000000000000000000000000000000000000000000002"
          ],
          "data": "0x000000000000000000000000000000000000000000000000002386f26fc10000",
          "blockHash": "0x5854200b3087369479109a15a15b9e35b504cdde8b4b572c7a477ec738817d3c",
          "blockNumber": "0x138d14e",
          "transactionHash": "0xe35d4a0b924e60e48e85d84de8714dc4dc26613bd92792800af2b2a7051b0022",
          "transactionIndex": "0x1d",
          "logIndex": "0x53",
          "removed": false
        }
      ],
      "logsBloom": "0x0480000004000800008000000000000000200000000000010004000000080000c000002000000010000000000804004000000000000010000000000000000000000000000000000000000209000000000000080200000000000000040000080a000000000200000002000020000008000000000000050000000000100000000020000000c0000000000100000000000000000040000000000200a020000000400100000000000000000001000000000000000000000000001000000000000100020000020000000000000020400080000008000000000000000000002020200000000000000400000000000000e0000040000000008000000000400080000000",
      "type": "0x2",
      "transactionHash": "0xe35d4a0b924e60e48e85d84de8714dc4dc26613bd92792800af2b2a7051b0022",
      "transactionIndex": "0x1d",
      "blockHash": "0x5854200b3087369479109a15a15b9e35b504cdde8b4b572c7a477ec738817d3c",
      "blockNumber": "0x138d14e",
      "gasUsed": "0x76ce7",
      "effectiveGasPrice": "0x108a0d7b",
      "from": "0x30abf2e1ac3a52c8c3f99078d1d52667d656c84b",
      "to": "0x62beb4f28f70cf7e4d5bca54e86851b12aef2d48",
      "contractAddress": null,
      "l1BaseFeeScalar": "0x44d",
      "l1BlobBaseFee": "0x278aaebf5",
      "l1BlobBaseFeeScalar": "0xa118b",
      "l1Fee": "0xd576e25ac1",
      "l1GasPrice": "0x34e5ebd92",
      "l1GasUsed": "0x7e6"
    }
  ],
  "libraries": [],
  "pending": [],
  "returns": {},
  "timestamp": 1736769918,
  "chain": 84532,
  "commit": "53cf683"
}