{
  "transactions": [
    {
      "hash": "0x8180b8a8efc4b518aefaaaa2c19f3e16a299dbfe914dab4986b051b99ea4813c",
      "transactionType": "CALL",
      "contractName": null,
      "contractAddress": "0x30a465f72ed6792e2f605d365f34d2ae21898ddf",
      "function": "grantRole(bytes32,address)",
      "arguments": [
        "0x7b6588f378264a748ba8c75a8b168bb7b5ddca703dafa393fd0b4579f5b784b0",
        "0x30Abf2e1ac3A52c8c3F99078d1D52667d656C84B"
      ],
      "transaction": {
        "from": "0x30abf2e1ac3a52c8c3f99078d1d52667d656c84b",
        "to": "0x30a465f72ed6792e2f605d365f34d2ae21898ddf",
        "gas": "0x12549",
        "value": "0x0",
        "input": "0x2f2ff15d7b6588f378264a748ba8c75a8b168bb7b5ddca703dafa393fd0b4579f5b784b000000000000000000000000030abf2e1ac3a52c8c3f99078d1d52667d656c84b",
        "nonce": "0x3f",
        "chainId": "0xaa36a7"
      },
      "additionalContracts": [],
      "isFixedGasLimit": false
    },
    {
      "hash": "0xdba45c46ff51f5d4f4c99edc1078c8a98e7c5f75e508cb04d54d59f51e17b756",
      "transactionType": "CALL",
      "contractName": null,
      "contractAddress": "0x30a465f72ed6792e2f605d365f34d2ae21898ddf",
      "function": "setOracle(address)",
      "arguments": [
        "0x1Af656428b505fDf6E923F833AC74445100ab56b"
      ],
      "transaction": {
        "from": "0x30abf2e1ac3a52c8c3f99078d1d52667d656c84b",
        "to": "0x30a465f72ed6792e2f605d365f34d2ae21898ddf",
        "gas": "0x110c9",
        "value": "0x0",
        "input": "0x7adbf9730000000000000000000000001af656428b505fdf6e923f833ac74445100ab56b",
        "nonce": "0x40",
        "chainId": "0xaa36a7"
      },
      "additionalContracts": [],
      "isFixedGasLimit": false
    },
    {
      "hash": "0xb1d002c55c6b3643c19710d7c90ef5cda1c351971840e1540259c2a3dcbca011",
      "transactionType": "CALL",
      "contractName": null,
      "contractAddress": "0x30a465f72ed6792e2f605d365f34d2ae21898ddf",
      "function": "grantRole(bytes32,address)",
      "arguments": [
        "0x31e0210044b4f6757ce6aa31f9c6e8d4896d24a755014887391a926c5224d959",
        "0xb5FAA226AE5227015dB79D874De4Fe92eeb590cA"
      ],
      "transaction": {
        "from": "0x30abf2e1ac3a52c8c3f99078d1d52667d656c84b",
        "to": "0x30a465f72ed6792e2f605d365f34d2ae21898ddf",
        "gas": "0x114ec",
        "value": "0x0",
        "input": "0x2f2ff15d31e0210044b4f6757ce6aa31f9c6e8d4896d24a755014887391a926c5224d959000000000000000000000000b5faa226ae5227015db79d874de4fe92eeb590ca",
        "nonce": "0x41",
        "chainId": "0xaa36a7"
      },
      "additionalContracts": [],
      "isFixedGasLimit": false
    },
    {
      "hash": "0x4357c23bc331866bc926528e68f6ab49d02b974b2c4eddcf2e91fc223da8f253",
      "transactionType": "CALL",
      "contractName": null,
      "contractAddress": "0xb5faa226ae5227015db79d874de4fe92eeb590ca",
      "function": "grantRole(bytes32,address)",
      "arguments": [
        "0xcbd69888d9fba90fe49a0c7a1d66c35e381e4ebf3a66968c85c5beacc25db59a",
        "0x30Abf2e1ac3A52c8c3F99078d1D52667d656C84B"
      ],
      "transaction": {
        "from": "0x30abf2e1ac3a52c8c3f99078d1d52667d656c84b",
        "to": "0xb5faa226ae5227015db79d874de4fe92eeb590ca",
        "gas": "0x11558",
        "value": "0x0",
        "input": "0x2f2ff15dcbd69888d9fba90fe49a0c7a1d66c35e381e4ebf3a66968c85c5beacc25db59a00000000000000000000000030abf2e1ac3a52c8c3f99078d1d52667d656c84b",
        "nonce": "0x42",
        "chainId": "0xaa36a7"
      },
      "additionalContracts": [],
      "isFixedGasLimit": false
    },
    {
      "hash": "0x13043a80c9a3209ad2e6ddcfdf22c8245cf75ab40373b6be3e707614019613b9",
      "transactionType": "CALL",
      "contractName": null,
      "contractAddress": "0xb5faa226ae5227015db79d874de4fe92eeb590ca",
      "function": "grantRole(bytes32,address)",
      "arguments": [
        "0xe6ad9a47fbda1dc18de1eb5eeb7d935e5e81b4748f3cfc61e233e64f88182060",
        "0x30Abf2e1ac3A52c8c3F99078d1D52667d656C84B"
      ],
      "transaction": {
        "from": "0x30abf2e1ac3a52c8c3f99078d1d52667d656c84b",
        "to": "0xb5faa226ae5227015db79d874de4fe92eeb590ca",
        "gas": "0x11558",
        "value": "0x0",
        "input": "0x2f2ff15de6ad9a47fbda1dc18de1eb5eeb7d935e5e81b4748f3cfc61e233e64f8818206000000000000000000000000030abf2e1ac3a52c8c3f99078d1d52667d656c84b",
        "nonce": "0x43",
        "chainId": "0xaa36a7"
      },
      "additionalContracts": [],
      "isFixedGasLimit": false
    },
    {
      "hash": "0xe6cc1b0e8663fa0c8098af341aa069477e1e918a084676161aa21e5a7bdd5c83",
      "transactionType": "CALL",
      "contractName": null,
      "contractAddress": "0xb5faa226ae5227015db79d874de4fe92eeb590ca",
      "function": "grantRole(bytes32,address)",
      "arguments": [
        "0x7b6588f378264a748ba8c75a8b168bb7b5ddca703dafa393fd0b4579f5b784b0",
        "0x30Abf2e1ac3A52c8c3F99078d1D52667d656C84B"
      ],
      "transaction": {
        "from": "0x30abf2e1ac3a52c8c3f99078d1d52667d656c84b",
        "to": "0xb5faa226ae5227015db79d874de4fe92eeb590ca",
        "gas": "0x11558",
        "value": "0x0",
        "input": "0x2f2ff15d7b6588f378264a748ba8c75a8b168bb7b5ddca703dafa393fd0b4579f5b784b000000000000000000000000030abf2e1ac3a52c8c3f99078d1d52667d656c84b",
        "nonce": "0x44",
        "chainId": "0xaa36a7"
      },
      "additionalContracts": [],
      "isFixedGasLimit": false
    },
    {
      "hash": "0xe898378c89403cc14eeef3a4d0ae067992624ce6c502973b4f2c277d861357fb",
      "transactionType": "CALL",
      "contractName": null,
      "contractAddress": "0xb5faa226ae5227015db79d874de4fe92eeb590ca",
      "function": "grantRole(bytes32,address)",
      "arguments": [
        "0xba474fc2b8347e255f10252fdae69399bac572751768da2e97a282acc34401ea",
        "0x30Abf2e1ac3A52c8c3F99078d1D52667d656C84B"
      ],
      "transaction": {
        "from": "0x30abf2e1ac3a52c8c3f99078d1d52667d656c84b",
        "to": "0xb5faa226ae5227015db79d874de4fe92eeb590ca",
        "gas": "0x11558",
        "value": "0x0",
        "input": "0x2f2ff15dba474fc2b8347e255f10252fdae69399bac572751768da2e97a282acc34401ea00000000000000000000000030abf2e1ac3a52c8c3f99078d1d52667d656c84b",
        "nonce": "0x45",
        "chainId": "0xaa36a7"
      },
      "additionalContracts": [],
      "isFixedGasLimit": false
    },
    {
      "hash": "0xb91e2bbf2acc2479b4881470547d511fcffac0bdc4511e46d07c10ffdda42c42",
      "transactionType": "CALL",
      "contractName": null,
      "contractAddress": "0xb5faa226ae5227015db79d874de4fe92eeb590ca",
      "function": "addPocket(address)",
      "arguments": [
        "0x6489641a0E14315103A87fEF87608FDd48da1631"
      ],
      "transaction": {
        "from": "0x30abf2e1ac3a52c8c3f99078d1d52667d656c84b",
        "to": "0xb5faa226ae5227015db79d874de4fe92eeb590ca",
        "gas": "0x1458d",
        "value": "0x0",
        "input": "0x120b4b860000000000000000000000006489641a0e14315103a87fef87608fdd48da1631",
        "nonce": "0x46",
        "chainId": "0xaa36a7"
      },
      "additionalContracts": [],
      "isFixedGasLimit": false
    }
  ],
  "receipts": [
    {
      "status": "0x1",
      "cumulativeGasUsed": "0xf2c753",
      "logs": [
        {
          "address": "0x30a465f72ed6792e2f605d365f34d2ae21898ddf",
          "topics": [
            "0x2f8788117e7eff1d82e926ec794901d17c78024a50270940304540a733656f0d",
            "0x7b6588f378264a748ba8c75a8b168bb7b5ddca703dafa393fd0b4579f5b784b0",
            "0x00000000000000000000000030abf2e1ac3a52c8c3f99078d1d52667d656c84b",
            "0x00000000000000000000000030abf2e1ac3a52c8c3f99078d1d52667d656c84b"
          ],
          "data": "0x",
          "blockHash": "0xa6105d916779e26651c64e0e087533eea5cf6909330613183b4ec667a85566cc",
          "blockNumber": "0x6bfc7e",
          "transactionHash": "0x8180b8a8efc4b518aefaaaa2c19f3e16a299dbfe914dab4986b051b99ea4813c",
          "transactionIndex": "0x4e",
          "logIndex": "0x8b",
          "removed": false
        }
      ],
      "logsBloom": "0x00000004000000000000008000080000000000000000000000000000000000000000000000000000800000000000000000000000000000000000000000000000000000000000000000000000000000000000000000000000000000000000080020000000000000000000000000000000000020000000000000000000000000000000000000000000000000000000000000000000000000000000000000000000000000000000000000000000000000000000000000000000001000000000000000000000000000000000000001008000000000000000000100000000200000000000000000000000000000000000000000000000000000000000000000000000",
      "type": "0x2",
      "transactionHash": "0x8180b8a8efc4b518aefaaaa2c19f3e16a299dbfe914dab4986b051b99ea4813c",
      "transactionIndex": "0x4e",
      "blockHash": "0xa6105d916779e26651c64e0e087533eea5cf6909330613183b4ec667a85566cc",
      "blockNumber": "0x6bfc7e",
      "gasUsed": "0xc88a",
      "effectiveGasPrice": "0x21f87612",
      "from": "0x30abf2e1ac3a52c8c3f99078d1d52667d656c84b",
      "to": "0x30a465f72ed6792e2f605d365f34d2ae21898ddf",
      "contractAddress": null
    },
    {
      "status": "0x1",
      "cumulativeGasUsed": "0xa847e0",
      "logs": [
        {
          "address": "0x30a465f72ed6792e2f605d365f34d2ae21898ddf",
          "topics": [
            "0x3df77beb5db05fcdd70a30fc8adf3f83f9501b68579455adbd100b8180940394",
            "0x0000000000000000000000001af656428b505fdf6e923f833ac74445100ab56b"
          ],
          "data": "0x",
          "blockHash": "0xe81b910ee7721cd63c06d5e30bf192fef45a87ceb35e1c748b2853dd44efe586",
          "blockNumber": "0x6bfc7f",
          "transactionHash": "0xdba45c46ff51f5d4f4c99edc1078c8a98e7c5f75e508cb04d54d59f51e17b756",
          "transactionIndex": "0x41",
          "logIndex": "0x62",
          "removed": false
        }
      ],
      "logsBloom": "0x00000000000000000000000000080000000000000000000000000000000020000000000000000000000000000000000000000000000000000000000000000004000000000000000000000000000000000000000000000020000000000000000020000000000000000000000000000000000000000000000000000000000000000000000000000000000000000000000000000000000000000000000000000000000000000000000000000000000000000000000000000000008000002400000000000000000000000000000001000000000000000000000000000000000000000000000000000000000000000000000000000000000000000000000000000000",
      "type": "0x2",
      "transactionHash": "0xdba45c46ff51f5d4f4c99edc1078c8a98e7c5f75e508cb04d54d59f51e17b756",
      "transactionIndex": "0x41",
      "blockHash": "0xe81b910ee7721cd63c06d5e30bf192fef45a87ceb35e1c748b2853dd44efe586",
      "blockNumber": "0x6bfc7f",
      "gasUsed": "0xc57f",
      "effectiveGasPrice": "0x22667bb3",
      "from": "0x30abf2e1ac3a52c8c3f99078d1d52667d656c84b",
      "to": "0x30a465f72ed6792e2f605d365f34d2ae21898ddf",
      "contractAddress": null
    },
    {
      "status": "0x1",
      "cumulativeGasUsed": "0xa9105e",
      "logs": [
        {
          "address": "0x30a465f72ed6792e2f605d365f34d2ae21898ddf",
          "topics": [
            "0x2f8788117e7eff1d82e926ec794901d17c78024a50270940304540a733656f0d",
            "0x31e0210044b4f6757ce6aa31f9c6e8d4896d24a755014887391a926c5224d959",
            "0x000000000000000000000000b5faa226ae5227015db79d874de4fe92eeb590ca",
            "0x00000000000000000000000030abf2e1ac3a52c8c3f99078d1d52667d656c84b"
          ],
          "data": "0x",
          "blockHash": "0xe81b910ee7721cd63c06d5e30bf192fef45a87ceb35e1c748b2853dd44efe586",
          "blockNumber": "0x6bfc7f",
          "transactionHash": "0xb1d002c55c6b3643c19710d7c90ef5cda1c351971840e1540259c2a3dcbca011",
          "transactionIndex": "0x42",
          "logIndex": "0x63",
          "removed": false
        }
      ],
      "logsBloom": "0x00000004000000000000000000080000000000000000000000000000000000000000000000000800000000000000000000000000000000000000000000000000000000000000000000400000000000000000000000000000000000000000080020000000000000000000000000000000000080000000000000000000000000000000000000000000000000000000000000000000000000000000000000000000000000000000000000000000008000000000000000000000001000000000000000000000000000000000000001028000000000000000000100000000200000000000000000080000000000000000000000000000000000000000000000000000",
      "type": "0x2",
      "transactionHash": "0xb1d002c55c6b3643c19710d7c90ef5cda1c351971840e1540259c2a3dcbca011",
      "transactionIndex": "0x42",
      "blockHash": "0xe81b910ee7721cd63c06d5e30bf192fef45a87ceb35e1c748b2853dd44efe586",
      "blockNumber": "0x6bfc7f",
      "gasUsed": "0xc87e",
      "effectiveGasPrice": "0x22667bb3",
      "from": "0x30abf2e1ac3a52c8c3f99078d1d52667d656c84b",
      "to": "0x30a465f72ed6792e2f605d365f34d2ae21898ddf",
      "contractAddress": null
    },
    {
      "status": "0x1",
      "cumulativeGasUsed": "0xa9d92a",
      "logs": [
        {
          "address": "0xb5faa226ae5227015db79d874de4fe92eeb590ca",
          "topics": [
            "0x2f8788117e7eff1d82e926ec794901d17c78024a50270940304540a733656f0d",
            "0xcbd69888d9fba90fe49a0c7a1d66c35e381e4ebf3a66968c85c5beacc25db59a",
            "0x00000000000000000000000030abf2e1ac3a52c8c3f99078d1d52667d656c84b",
            "0x00000000000000000000000030abf2e1ac3a52c8c3f99078d1d52667d656c84b"
          ],
          "data": "0x",
          "blockHash": "0xe81b910ee7721cd63c06d5e30bf192fef45a87ceb35e1c748b2853dd44efe586",
          "blockNumber": "0x6bfc7f",
          "transactionHash": "0x4357c23bc331866bc926528e68f6ab49d02b974b2c4eddcf2e91fc223da8f253",
          "transactionIndex": "0x43",
          "logIndex": "0x64",
          "removed": false
        }
      ],
      "logsBloom": "0x00000004000000000000000000000000000000000000000000000000000000000000000000080000000000000000000000000000000000000000000000000000000000000000000000000000000000000000000000000000000000000000080000000000000000000000000000000000000000000000000000000000000000000000000000000000000000000000000000000000000000000000008000000000000000000000000000000200000000000000000000000000001000000004000000000000000000000000000000008000000000000000000100000000200000000000000000000000000000000080000000000000000000000000000000000004",
      "type": "0x2",
      "transactionHash": "0x4357c23bc331866bc926528e68f6ab49d02b974b2c4eddcf2e91fc223da8f253",
      "transactionIndex": "0x43",
      "blockHash": "0xe81b910ee7721cd63c06d5e30bf192fef45a87ceb35e1c748b2853dd44efe586",
      "blockNumber": "0x6bfc7f",
      "gasUsed": "0xc8cc",
      "effectiveGasPrice": "0x22667bb3",
      "from": "0x30abf2e1ac3a52c8c3f99078d1d52667d656c84b",
      "to": "0xb5faa226ae5227015db79d874de4fe92eeb590ca",
      "contractAddress": null
    },
    {
      "status": "0x1",
      "cumulativeGasUsed": "0xaaa1f6",
      "logs": [
        {
          "address": "0xb5faa226ae5227015db79d874de4fe92eeb590ca",
          "topics": [
            "0x2f8788117e7eff1d82e926ec794901d17c78024a50270940304540a733656f0d",
            "0xe6ad9a47fbda1dc18de1eb5eeb7d935e5e81b4748f3cfc61e233e64f88182060",
            "0x00000000000000000000000030abf2e1ac3a52c8c3f99078d1d52667d656c84b",
            "0x00000000000000000000000030abf2e1ac3a52c8c3f99078d1d52667d656c84b"
          ],
          "data": "0x",
          "blockHash": "0xe81b910ee7721cd63c06d5e30bf192fef45a87ceb35e1c748b2853dd44efe586",
          "blockNumber": "0x6bfc7f",
          "transactionHash": "0x13043a80c9a3209ad2e6ddcfdf22c8245cf75ab40373b6be3e707614019613b9",
          "transactionIndex": "0x44",
          "logIndex": "0x65",
          "removed": false
        }
      ],
      "logsBloom": "0x00000004000000000000000000000000000000000000000000000000000000000000000000080000000000000000000000000000000000000000000000000000000000000000000000000000000000000000000000000000000000000000080000000000000000000000000000000000000000000000000000000000000000000000000000000000000000000000000000000000000000000000008000000000000000000000000000000000000000000000000000000000001000000004000000000000000000000000000000008000000000000000000100000000200000000008004000000000000000000000000000080000000000000000000000000000",
      "type": "0x2",
      "transactionHash": "0x13043a80c9a3209ad2e6ddcfdf22c8245cf75ab40373b6be3e707614019613b9",
      "transactionIndex": "0x44",
      "blockHash": "0xe81b910ee7721cd63c06d5e30bf192fef45a87ceb35e1c748b2853dd44efe586",
      "blockNumber": "0x6bfc7f",
      "gasUsed": "0xc8cc",
      "effectiveGasPrice": "0x22667bb3",
      "from": "0x30abf2e1ac3a52c8c3f99078d1d52667d656c84b",
      "to": "0xb5faa226ae5227015db79d874de4fe92eeb590ca",
      "contractAddress": null
    },
    {
      "status": "0x1",
      "cumulativeGasUsed": "0xab6ac2",
      "logs": [
        {
          "address": "0xb5faa226ae5227015db79d874de4fe92eeb590ca",
          "topics": [
            "0x2f8788117e7eff1d82e926ec794901d17c78024a50270940304540a733656f0d",
            "0x7b6588f378264a748ba8c75a8b168bb7b5ddca703dafa393fd0b4579f5b784b0",
            "0x00000000000000000000000030abf2e1ac3a52c8c3f99078d1d52667d656c84b",
            "0x00000000000000000000000030abf2e1ac3a52c8c3f99078d1d52667d656c84b"
          ],
          "data": "0x",
          "blockHash": "0xe81b910ee7721cd63c06d5e30bf192fef45a87ceb35e1c748b2853dd44efe586",
          "blockNumber": "0x6bfc7f",
          "transactionHash": "0xe6cc1b0e8663fa0c8098af341aa069477e1e918a084676161aa21e5a7bdd5c83",
          "transactionIndex": "0x45",
          "logIndex": "0x66",
          "removed": false
        }
      ],
      "logsBloom": "0x00000004000000000000008000000000000000000000000000000000000000000000000000080000800000000000000000000000000000000000000000000000000000000000000000000000000000000000000000000000000000000000080000000000000000000000000000000000000020000000000000000000000000000000000000000000000000000000000000000000000000000000008000000000000000000000000000000000000000000000000000000000001000000004000000000000000000000000000000008000000000000000000100000000200000000000000000000000000000000000000000000000000000000000000000000000",
      "type": "0x2",
      "transactionHash": "0xe6cc1b0e8663fa0c8098af341aa069477e1e918a084676161aa21e5a7bdd5c83",
      "transactionIndex": "0x45",
      "blockHash": "0xe81b910ee7721cd63c06d5e30bf192fef45a87ceb35e1c748b2853dd44efe586",
      "blockNumber": "0x6bfc7f",
      "gasUsed": "0xc8cc",
      "effectiveGasPrice": "0x22667bb3",
      "from": "0x30abf2e1ac3a52c8c3f99078d1d52667d656c84b",
      "to": "0xb5faa226ae5227015db79d874de4fe92eeb590ca",
      "contractAddress": null
    },
    {
      "status": "0x1",
      "cumulativeGasUsed": "0xac338e",
      "logs": [
        {
          "address": "0xb5faa226ae5227015db79d874de4fe92eeb590ca",
          "topics": [
            "0x2f8788117e7eff1d82e926ec794901d17c78024a50270940304540a733656f0d",
            "0xba474fc2b8347e255f10252fdae69399bac572751768da2e97a282acc34401ea",
            "0x00000000000000000000000030abf2e1ac3a52c8c3f99078d1d52667d656c84b",
            "0x00000000000000000000000030abf2e1ac3a52c8c3f99078d1d52667d656c84b"
          ],
          "data": "0x",
          "blockHash": "0xe81b910ee7721cd63c06d5e30bf192fef45a87ceb35e1c748b2853dd44efe586",
          "blockNumber": "0x6bfc7f",
          "transactionHash": "0xe898378c89403cc14eeef3a4d0ae067992624ce6c502973b4f2c277d861357fb",
          "transactionIndex": "0x46",
          "logIndex": "0x67",
          "removed": false
        }
      ],
      "logsBloom": "0x00000004000000000000000000000000400000000000000000000000000000000000000000080000000000000000000000000000000000000000000000000000000000000000000000000000000000000000000000000000000040000000080000000000000000000000000000000000000000000000000000000000000000000000000000000000000000000000000000000000100000000000008000000000000000000000000000000000000000000000000000000000001000000004000000000000000000000000000000008000000000000000000100000000200000000000000000000000000000000000000000000000000000000000000000000000",
      "type": "0x2",
      "transactionHash": "0xe898378c89403cc14eeef3a4d0ae067992624ce6c502973b4f2c277d861357fb",
      "transactionIndex": "0x46",
      "blockHash": "0xe81b910ee7721cd63c06d5e30bf192fef45a87ceb35e1c748b2853dd44efe586",
      "blockNumber": "0x6bfc7f",
      "gasUsed": "0xc8cc",
      "effectiveGasPrice": "0x22667bb3",
      "from": "0x30abf2e1ac3a52c8c3f99078d1d52667d656c84b",
      "to": "0xb5faa226ae5227015db79d874de4fe92eeb590ca",
      "contractAddress": null
    },
    {
      "status": "0x1",
      "cumulativeGasUsed": "0xad1228",
      "logs": [
        {
          "address": "0xb5faa226ae5227015db79d874de4fe92eeb590ca",
          "topics": [
            "0xdfbde0e8fc1c52ab3adee2eb2585df55ad05aa9c142896238a855d4544851ab9"
          ],
          "data": "0x00000000000000000000000000000000000000000000000000000000000000010000000000000000000000006489641a0e14315103a87fef87608fdd48da1631",
          "blockHash": "0xe81b910ee7721cd63c06d5e30bf192fef45a87ceb35e1c748b2853dd44efe586",
          "blockNumber": "0x6bfc7f",
          "transactionHash": "0xb91e2bbf2acc2479b4881470547d511fcffac0bdc4511e46d07c10ffdda42c42",
          "transactionIndex": "0x47",
          "logIndex": "0x68",
          "removed": false
        }
      ],
      "logsBloom": "0x00000000000000000000000000000000000000000000000000000000000000000000000000080000000000000000000000000000000000000000000000000000000000000000000000000000000000000000000000000000000000000000000001000000000000000000000000000000000000000000000000000000000000000000000000000000000000000000000000000000000000000000008000000000000000000000000000000000000000000000000000000000000000000005000000000000000000000000000000000000000000000000000000000000000000000000000000000000000000002000000000000000000000000000000000000000",
      "type": "0x2",
      "transactionHash": "0xb91e2bbf2acc2479b4881470547d511fcffac0bdc4511e46d07c10ffdda42c42",
      "transactionIndex": "0x47",
      "blockHash": "0xe81b910ee7721cd63c06d5e30bf192fef45a87ceb35e1c748b2853dd44efe586",
      "blockNumber": "0x6bfc7f",
      "gasUsed": "0xde9a",
      "effectiveGasPrice": "0x22667bb3",
      "from": "0x30abf2e1ac3a52c8c3f99078d1d52667d656c84b",
      "to": "0xb5faa226ae5227015db79d874de4fe92eeb590ca",
      "contractAddress": null
    }
  ],
  "libraries": [],
  "pending": [],
  "returns": {},
  "timestamp": 1731609796,
  "chain": 11155111,
  "commit": "19cff44"
}