{
  "transactions": [
    {
      "hash": "0x3b312d59115e5b10764d9f70a9c12069346759f222a5d64c807fd3896e2957b8",
      "transactionType": "CALL",
      "contractName": null,
      "contractAddress": "0x4444238f07ca5d8a0efe67b1e9ad6231a258f5e4",
      "function": "grantRole(bytes32,address)",
      "arguments": [
        "0x7b6588f378264a748ba8c75a8b168bb7b5ddca703dafa393fd0b4579f5b784b0",
        "0x30Abf2e1ac3A52c8c3F99078d1D52667d656C84B"
      ],
      "transaction": {
        "from": "0x30abf2e1ac3a52c8c3f99078d1d52667d656c84b",
        "to": "0x4444238f07ca5d8a0efe67b1e9ad6231a258f5e4",
        "gas": "0x9d39",
        "value": "0x0",
        "input": "0x2f2ff15d7b6588f378264a748ba8c75a8b168bb7b5ddca703dafa393fd0b4579f5b784b000000000000000000000000030abf2e1ac3a52c8c3f99078d1d52667d656c84b",
        "nonce": "0x7a",
        "chainId": "0xaa36a7"
      },
      "additionalContracts": [],
      "isFixedGasLimit": false
    },
    {
      "hash": "0x63a2b62391e8e5c07e5872b9d6814357d78a212638d4d17830b9071f06b534db",
      "transactionType": "CALL",
      "contractName": null,
      "contractAddress": "0x4444238f07ca5d8a0efe67b1e9ad6231a258f5e4",
      "function": "setOracle(address)",
      "arguments": [
        "0x44e9D3A83e94346e10C10Bf17e7E0c43aDf74458"
      ],
      "transaction": {
        "from": "0x30abf2e1ac3a52c8c3f99078d1d52667d656c84b",
        "to": "0x4444238f07ca5d8a0efe67b1e9ad6231a258f5e4",
        "gas": "0xaf26",
        "value": "0x0",
        "input": "0x7adbf97300000000000000000000000044e9d3a83e94346e10c10bf17e7e0c43adf74458",
        "nonce": "0x7b",
        "chainId": "0xaa36a7"
      },
      "additionalContracts": [],
      "isFixedGasLimit": false
    },
    {
      "hash": "0xc2fd7f28918854d8bbe40783acc8a0597f072c7ccf27f9a47faf7b7d4ee8c13f",
      "transactionType": "CALL",
      "contractName": null,
      "contractAddress": "0x4444238f07ca5d8a0efe67b1e9ad6231a258f5e4",
      "function": "grantRole(bytes32,address)",
      "arguments": [
        "0x31e0210044b4f6757ce6aa31f9c6e8d4896d24a755014887391a926c5224d959",
        "0x921BFC7bb73D4B28bD06D944072B7F4437c5DAF7"
      ],
      "transaction": {
        "from": "0x30abf2e1ac3a52c8c3f99078d1d52667d656c84b",
        "to": "0x4444238f07ca5d8a0efe67b1e9ad6231a258f5e4",
        "gas": "0x9d28",
        "value": "0x0",
        "input": "0x2f2ff15d31e0210044b4f6757ce6aa31f9c6e8d4896d24a755014887391a926c5224d959000000000000000000000000921bfc7bb73d4b28bd06d944072b7f4437c5daf7",
        "nonce": "0x7c",
        "chainId": "0xaa36a7"
      },
      "additionalContracts": [],
      "isFixedGasLimit": false
    },
    {
      "hash": "0x11ff5c3cfb10d060d163a90c957058cc2a8a85662160c28d808ae863bc025bba",
      "transactionType": "CALL",
      "contractName": null,
      "contractAddress": "0x921bfc7bb73d4b28bd06d944072b7f4437c5daf7",
      "function": "grantRole(bytes32,address)",
      "arguments": [
        "0xcbd69888d9fba90fe49a0c7a1d66c35e381e4ebf3a66968c85c5beacc25db59a",
        "0x30Abf2e1ac3A52c8c3F99078d1D52667d656C84B"
      ],
      "transaction": {
        "from": "0x30abf2e1ac3a52c8c3f99078d1d52667d656c84b",
        "to": "0x921bfc7bb73d4b28bd06d944072b7f4437c5daf7",
        "gas": "0x9d94",
        "value": "0x0",
        "input": "0x2f2ff15dcbd69888d9fba90fe49a0c7a1d66c35e381e4ebf3a66968c85c5beacc25db59a00000000000000000000000030abf2e1ac3a52c8c3f99078d1d52667d656c84b",
        "nonce": "0x7d",
        "chainId": "0xaa36a7"
      },
      "additionalContracts": [],
      "isFixedGasLimit": false
    },
    {
      "hash": "0x228f58767d6b13d5d3864775991a354272735bda6f778385d8995920fa1ef1fa",
      "transactionType": "CALL",
      "contractName": null,
      "contractAddress": "0x921bfc7bb73d4b28bd06d944072b7f4437c5daf7",
      "function": "grantRole(bytes32,address)",
      "arguments": [
        "0xe6ad9a47fbda1dc18de1eb5eeb7d935e5e81b4748f3cfc61e233e64f88182060",
        "0x30Abf2e1ac3A52c8c3F99078d1D52667d656C84B"
      ],
      "transaction": {
        "from": "0x30abf2e1ac3a52c8c3f99078d1d52667d656c84b",
        "to": "0x921bfc7bb73d4b28bd06d944072b7f4437c5daf7",
        "gas": "0x9d94",
        "value": "0x0",
        "input": "0x2f2ff15de6ad9a47fbda1dc18de1eb5eeb7d935e5e81b4748f3cfc61e233e64f8818206000000000000000000000000030abf2e1ac3a52c8c3f99078d1d52667d656c84b",
        "nonce": "0x7e",
        "chainId": "0xaa36a7"
      },
      "additionalContracts": [],
      "isFixedGasLimit": false
    },
    {
      "hash": "0xf9fd4a9c683e257214593fe889b52e62927c152439d93e710a4774945b8d3d07",
      "transactionType": "CALL",
      "contractName": null,
      "contractAddress": "0x921bfc7bb73d4b28bd06d944072b7f4437c5daf7",
      "function": "grantRole(bytes32,address)",
      "arguments": [
        "0x7b6588f378264a748ba8c75a8b168bb7b5ddca703dafa393fd0b4579f5b784b0",
        "0x30Abf2e1ac3A52c8c3F99078d1D52667d656C84B"
      ],
      "transaction": {
        "from": "0x30abf2e1ac3a52c8c3f99078d1d52667d656c84b",
        "to": "0x921bfc7bb73d4b28bd06d944072b7f4437c5daf7",
        "gas": "0x9d94",
        "value": "0x0",
        "input": "0x2f2ff15d7b6588f378264a748ba8c75a8b168bb7b5ddca703dafa393fd0b4579f5b784b000000000000000000000000030abf2e1ac3a52c8c3f99078d1d52667d656c84b",
        "nonce": "0x7f",
        "chainId": "0xaa36a7"
      },
      "additionalContracts": [],
      "isFixedGasLimit": false
    },
    {
      "hash": "0x20affe8e98c35681588252ae70f85f82e549026215557cd9634321cf678d7013",
      "transactionType": "CALL",
      "contractName": null,
      "contractAddress": "0x921bfc7bb73d4b28bd06d944072b7f4437c5daf7",
      "function": "grantRole(bytes32,address)",
      "arguments": [
        "0xba474fc2b8347e255f10252fdae69399bac572751768da2e97a282acc34401ea",
        "0x30Abf2e1ac3A52c8c3F99078d1D52667d656C84B"
      ],
      "transaction": {
        "from": "0x30abf2e1ac3a52c8c3f99078d1d52667d656c84b",
        "to": "0x921bfc7bb73d4b28bd06d944072b7f4437c5daf7",
        "gas": "0x9d94",
        "value": "0x0",
        "input": "0x2f2ff15dba474fc2b8347e255f10252fdae69399bac572751768da2e97a282acc34401ea00000000000000000000000030abf2e1ac3a52c8c3f99078d1d52667d656c84b",
        "nonce": "0x80",
        "chainId": "0xaa36a7"
      },
      "additionalContracts": [],
      "isFixedGasLimit": false
    },
    {
      "hash": "0xf4114960884699f3917a14395cf981c0734f3150e6582abd732aa856a45f69d8",
      "transactionType": "CALL",
      "contractName": null,
      "contractAddress": "0x921bfc7bb73d4b28bd06d944072b7f4437c5daf7",
      "function": "addPocket(address)",
      "arguments": [
        "0x09bE3D91CB4DD9Ca5a24Ffd13f3dB7A9f059C2D5"
      ],
      "transaction": {
        "from": "0x30abf2e1ac3a52c8c3f99078d1d52667d656c84b",
        "to": "0x921bfc7bb73d4b28bd06d944072b7f4437c5daf7",
        "gas": "0x1458d",
        "value": "0x0",
        "input": "0x120b4b8600000000000000000000000009be3d91cb4dd9ca5a24ffd13f3db7a9f059c2d5",
        "nonce": "0x81",
        "chainId": "0xaa36a7"
      },
      "additionalContracts": [],
      "isFixedGasLimit": false
    },
    {
      "hash": "0xfce8af6f34b19052b5375d76ea877337f785308f10e2adfe3f91c3b7b58032b1",
      "transactionType": "CALL",
      "contractName": null,
      "contractAddress": "0x921bfc7bb73d4b28bd06d944072b7f4437c5daf7",
      "function": "addPocket(address)",
      "arguments": [
        "0xf69834897e3617a87ecd58a7999e422FF0E3915C"
      ],
      "transaction": {
        "from": "0x30abf2e1ac3a52c8c3f99078d1d52667d656c84b",
        "to": "0x921bfc7bb73d4b28bd06d944072b7f4437c5daf7",
        "gas": "0x13359",
        "value": "0x0",
        "input": "0x120b4b86000000000000000000000000f69834897e3617a87ecd58a7999e422ff0e3915c",
        "nonce": "0x82",
        "chainId": "0xaa36a7"
      },
      "additionalContracts": [],
      "isFixedGasLimit": false
    }
  ],
  "receipts": [
    {
      "status": "0x1",
      "cumulativeGasUsed": "0x7d87f6",
      "logs": [],
      "logsBloom": "0x00000000000000000000000000000000000000000000000000000000000000000000000000000000000000000000000000000000000000000000000000000000000000000000000000000000000000000000000000000000000000000000000000000000000000000000000000000000000000000000000000000000000000000000000000000000000000000000000000000000000000000000000000000000000000000000000000000000000000000000000000000000000000000000000000000000000000000000000000000000000000000000000000000000000000000000000000000000000000000000000000000000000000000000000000000000",
      "type": "0x2",
      "transactionHash": "0x3b312d59115e5b10764d9f70a9c12069346759f222a5d64c807fd3896e2957b8",
      "transactionIndex": "0x4a",
      "blockHash": "0xe8b210c9b7fae4fdf4ca0374f16acb197b2c3d1eb8fa177be565ada73fc3da06",
      "blockNumber": "0x6d5378",
      "gasUsed": "0x71d4",
      "effectiveGasPrice": "0x1133fd99e",
      "from": "0x30abf2e1ac3a52c8c3f99078d1d52667d656c84b",
      "to": "0x4444238f07ca5d8a0efe67b1e9ad6231a258f5e4",
      "contractAddress": null
    },
    {
      "status": "0x1",
      "cumulativeGasUsed": "0xd28482",
      "logs": [
        {
          "address": "0x4444238f07ca5d8a0efe67b1e9ad6231a258f5e4",
          "topics": [
            "0x3df77beb5db05fcdd70a30fc8adf3f83f9501b68579455adbd100b8180940394",
            "0x00000000000000000000000044e9d3a83e94346e10c10bf17e7e0c43adf74458"
          ],
          "data": "0x",
          "blockHash": "0xe8b210c9b7fae4fdf4ca0374f16acb197b2c3d1eb8fa177be565ada73fc3da06",
          "blockNumber": "0x6d5378",
          "transactionHash": "0x63a2b62391e8e5c07e5872b9d6814357d78a212638d4d17830b9071f06b534db",
          "transactionIndex": "0x65",
          "logIndex": "0x3a",
          "removed": false
        }
      ],
      "logsBloom": "0x00000000000000000000000000000000000000000000000080000000000020000000000000000000000000000000000000000000000000000000000000000004000000000000000000000800000000000000000000000020000000000000000000000000000000000000040000000000000000000000000000000000000000000800000000000000000000000000000000000000000000002000000000100000000000000000000000000000000000000000000000000000000000000000000000000000000000000000000000000000000000000000000000000000000000000000000000000000000000000000000000000000000000000000000000000000",
      "type": "0x2",
      "transactionHash": "0x63a2b62391e8e5c07e5872b9d6814357d78a212638d4d17830b9071f06b534db",
      "transactionIndex": "0x65",
      "blockHash": "0xe8b210c9b7fae4fdf4ca0374f16acb197b2c3d1eb8fa177be565ada73fc3da06",
      "blockNumber": "0x6d5378",
      "gasUsed": "0x77c3",
      "effectiveGasPrice": "0x1133fd99e",
      "from": "0x30abf2e1ac3a52c8c3f99078d1d52667d656c84b",
      "to": "0x4444238f07ca5d8a0efe67b1e9ad6231a258f5e4",
      "contractAddress": null
    },
    {
      "status": "0x1",
      "cumulativeGasUsed": "0xd2f64a",
      "logs": [],
      "logsBloom": "0x00000000000000000000000000000000000000000000000000000000000000000000000000000000000000000000000000000000000000000000000000000000000000000000000000000000000000000000000000000000000000000000000000000000000000000000000000000000000000000000000000000000000000000000000000000000000000000000000000000000000000000000000000000000000000000000000000000000000000000000000000000000000000000000000000000000000000000000000000000000000000000000000000000000000000000000000000000000000000000000000000000000000000000000000000000000",
      "type": "0x2",
      "transactionHash": "0xc2fd7f28918854d8bbe40783acc8a0597f072c7ccf27f9a47faf7b7d4ee8c13f",
      "transactionIndex": "0x66",
      "blockHash": "0xe8b210c9b7fae4fdf4ca0374f16acb197b2c3d1eb8fa177be565ada73fc3da06",
      "blockNumber": "0x6d5378",
      "gasUsed": "0x71c8",
      "effectiveGasPrice": "0x1133fd99e",
      "from": "0x30abf2e1ac3a52c8c3f99078d1d52667d656c84b",
      "to": "0x4444238f07ca5d8a0efe67b1e9ad6231a258f5e4",
      "contractAddress": null
    },
    {
      "status": "0x1",
      "cumulativeGasUsed": "0xde3478",
      "logs": [],
      "logsBloom": "0x00000000000000000000000000000000000000000000000000000000000000000000000000000000000000000000000000000000000000000000000000000000000000000000000000000000000000000000000000000000000000000000000000000000000000000000000000000000000000000000000000000000000000000000000000000000000000000000000000000000000000000000000000000000000000000000000000000000000000000000000000000000000000000000000000000000000000000000000000000000000000000000000000000000000000000000000000000000000000000000000000000000000000000000000000000000",
      "type": "0x2",
      "transactionHash": "0x11ff5c3cfb10d060d163a90c957058cc2a8a85662160c28d808ae863bc025bba",
      "transactionIndex": "0x86",
      "blockHash": "0xe8b210c9b7fae4fdf4ca0374f16acb197b2c3d1eb8fa177be565ada73fc3da06",
      "blockNumber": "0x6d5378",
      "gasUsed": "0x7216",
      "effectiveGasPrice": "0x1133fd99e",
      "from": "0x30abf2e1ac3a52c8c3f99078d1d52667d656c84b",
      "to": "0x921bfc7bb73d4b28bd06d944072b7f4437c5daf7",
      "contractAddress": null
    },
    {
      "status": "0x1",
      "cumulativeGasUsed": "0xdea68e",
      "logs": [],
      "logsBloom": "0x00000000000000000000000000000000000000000000000000000000000000000000000000000000000000000000000000000000000000000000000000000000000000000000000000000000000000000000000000000000000000000000000000000000000000000000000000000000000000000000000000000000000000000000000000000000000000000000000000000000000000000000000000000000000000000000000000000000000000000000000000000000000000000000000000000000000000000000000000000000000000000000000000000000000000000000000000000000000000000000000000000000000000000000000000000000",
      "type": "0x2",
      "transactionHash": "0x228f58767d6b13d5d3864775991a354272735bda6f778385d8995920fa1ef1fa",
      "transactionIndex": "0x87",
      "blockHash": "0xe8b210c9b7fae4fdf4ca0374f16acb197b2c3d1eb8fa177be565ada73fc3da06",
      "blockNumber": "0x6d5378",
      "gasUsed": "0x7216",
      "effectiveGasPrice": "0x1133fd99e",
      "from": "0x30abf2e1ac3a52c8c3f99078d1d52667d656c84b",
      "to": "0x921bfc7bb73d4b28bd06d944072b7f4437c5daf7",
      "contractAddress": null
    },
    {
      "status": "0x1",
      "cumulativeGasUsed": "0xdf18a4",
      "logs": [],
      "logsBloom": "0x00000000000000000000000000000000000000000000000000000000000000000000000000000000000000000000000000000000000000000000000000000000000000000000000000000000000000000000000000000000000000000000000000000000000000000000000000000000000000000000000000000000000000000000000000000000000000000000000000000000000000000000000000000000000000000000000000000000000000000000000000000000000000000000000000000000000000000000000000000000000000000000000000000000000000000000000000000000000000000000000000000000000000000000000000000000",
      "type": "0x2",
      "transactionHash": "0xf9fd4a9c683e257214593fe889b52e62927c152439d93e710a4774945b8d3d07",
      "transactionIndex": "0x88",
      "blockHash": "0xe8b210c9b7fae4fdf4ca0374f16acb197b2c3d1eb8fa177be565ada73fc3da06",
      "blockNumber": "0x6d5378",
      "gasUsed": "0x7216",
      "effectiveGasPrice": "0x1133fd99e",
      "from": "0x30abf2e1ac3a52c8c3f99078d1d52667d656c84b",
      "to": "0x921bfc7bb73d4b28bd06d944072b7f4437c5daf7",
      "contractAddress": null
    },
    {
      "status": "0x1",
      "cumulativeGasUsed": "0xdf8aba",
      "logs": [],
      "logsBloom": "0x00000000000000000000000000000000000000000000000000000000000000000000000000000000000000000000000000000000000000000000000000000000000000000000000000000000000000000000000000000000000000000000000000000000000000000000000000000000000000000000000000000000000000000000000000000000000000000000000000000000000000000000000000000000000000000000000000000000000000000000000000000000000000000000000000000000000000000000000000000000000000000000000000000000000000000000000000000000000000000000000000000000000000000000000000000000",
      "type": "0x2",
      "transactionHash": "0x20affe8e98c35681588252ae70f85f82e549026215557cd9634321cf678d7013",
      "transactionIndex": "0x89",
      "blockHash": "0xe8b210c9b7fae4fdf4ca0374f16acb197b2c3d1eb8fa177be565ada73fc3da06",
      "blockNumber": "0x6d5378",
      "gasUsed": "0x7216",
      "effectiveGasPrice": "0x1133fd99e",
      "from": "0x30abf2e1ac3a52c8c3f99078d1d52667d656c84b",
      "to": "0x921bfc7bb73d4b28bd06d944072b7f4437c5daf7",
      "contractAddress": null
    },
    {
      "status": "0x1",
      "cumulativeGasUsed": "0xe06954",
      "logs": [
        {
          "address": "0x921bfc7bb73d4b28bd06d944072b7f4437c5daf7",
          "topics": [
            "0xdfbde0e8fc1c52ab3adee2eb2585df55ad05aa9c142896238a855d4544851ab9"
          ],
          "data": "0x000000000000000000000000000000000000000000000000000000000000000400000000000000000000000009be3d91cb4dd9ca5a24ffd13f3db7a9f059c2d5",
          "blockHash": "0xe8b210c9b7fae4fdf4ca0374f16acb197b2c3d1eb8fa177be565ada73fc3da06",
          "blockNumber": "0x6d5378",
          "transactionHash": "0xf4114960884699f3917a14395cf981c0734f3150e6582abd732aa856a45f69d8",
          "transactionIndex": "0x8a",
          "logIndex": "0x3b",
          "removed": false
        }
      ],
      "logsBloom": "0x00001000000000080000000000000000000000000000000000000000000000000000000000000000000000000000000000000000000000000000000000000000000000000000000000000000000000000000000000000000000000000000000001000000000000000000000000000000000000000000000000000000000000000000000000000000000000000000000000000000000000000000000000000000000000000000000000000000000000000000000000000000000000000001000000000000000000000000000000000000000000000000000000000000000000000020000000000000000000002000000000000000000000000000000000000000",
      "type": "0x2",
      "transactionHash": "0xf4114960884699f3917a14395cf981c0734f3150e6582abd732aa856a45f69d8",
      "transactionIndex": "0x8a",
      "blockHash": "0xe8b210c9b7fae4fdf4ca0374f16acb197b2c3d1eb8fa177be565ada73fc3da06",
      "blockNumber": "0x6d5378",
      "gasUsed": "0xde9a",
      "effectiveGasPrice": "0x1133fd99e",
      "from": "0x30abf2e1ac3a52c8c3f99078d1d52667d656c84b",
      "to": "0x921bfc7bb73d4b28bd06d944072b7f4437c5daf7",
      "contractAddress": null
    },
    {
      "status": "0x1",
      "cumulativeGasUsed": "0xe147d8",
      "logs": [
        {
          "address": "0x921bfc7bb73d4b28bd06d944072b7f4437c5daf7",
          "topics": [
            "0xdfbde0e8fc1c52ab3adee2eb2585df55ad05aa9c142896238a855d4544851ab9"
          ],
          "data": "0x0000000000000000000000000000000000000000000000000000000000000005000000000000000000000000f69834897e3617a87ecd58a7999e422ff0e3915c",
          "blockHash": "0xe8b210c9b7fae4fdf4ca0374f16acb197b2c3d1eb8fa177be565ada73fc3da06",
          "blockNumber": "0x6d5378",
          "transactionHash": "0xfce8af6f34b19052b5375d76ea877337f785308f10e2adfe3f91c3b7b58032b1",
          "transactionIndex": "0x8b",
          "logIndex": "0x3c",
          "removed": false
        }
      ],
      "logsBloom": "0x00001000000000080000000000000000000000000000000000000000000000000000000000000000000000000000000000000000000000000000000000000000000000000000000000000000000000000000000000000000000000000000000001000000000000000000000000000000000000000000000000000000000000000000000000000000000000000000000000000000000000000000000000000000000000000000000000000000000000000000000000000000000000000001000000000000000000000000000000000000000000000000000000000000000000000020000000000000000000002000000000000000000000000000000000000000",
      "type": "0x2",
      "transactionHash": "0xfce8af6f34b19052b5375d76ea877337f785308f10e2adfe3f91c3b7b58032b1",
      "transactionIndex": "0x8b",
      "blockHash": "0xe8b210c9b7fae4fdf4ca0374f16acb197b2c3d1eb8fa177be565ada73fc3da06",
      "blockNumber": "0x6d5378",
      "gasUsed": "0xde84",
      "effectiveGasPrice": "0x1133fd99e",
      "from": "0x30abf2e1ac3a52c8c3f99078d1d52667d656c84b",
      "to": "0x921bfc7bb73d4b28bd06d944072b7f4437c5daf7",
      "contractAddress": null
    }
  ],
  "libraries": [],
  "pending": [],
  "returns": {},
  "timestamp": 1732731375,
  "chain": 11155111,
  "commit": "446add2"
}