{
  "transactions": [
    {
      "hash": "0x128faf34c16c3c845d0969965953013b23983416d91363116e71ade8424ad1df",
      "transactionType": "CALL",
      "contractName": null,
      "contractAddress": "0x4444238f07ca5d8a0efe67b1e9ad6231a258f5e4",
      "function": "grantRole(bytes32,address)",
      "arguments": [
        "0x7b6588f378264a748ba8c75a8b168bb7b5ddca703dafa393fd0b4579f5b784b0",
        "0x30Abf2e1ac3A52c8c3F99078d1D52667d656C84B"
      ],
      "transaction": {
        "from": "0x30abf2e1ac3a52c8c3f99078d1d52667d656c84b",
        "to": "0x4444238f07ca5d8a0efe67b1e9ad6231a258f5e4",
        "gas": "0x9d39",
        "value": "0x0",
        "input": "0x2f2ff15d7b6588f378264a748ba8c75a8b168bb7b5ddca703dafa393fd0b4579f5b784b000000000000000000000000030abf2e1ac3a52c8c3f99078d1d52667d656c84b",
        "nonce": "0x6e",
        "chainId": "0xaa36a7"
      },
      "additionalContracts": [],
      "isFixedGasLimit": false
    },
    {
      "hash": "0x2b7ae66216b368950c663f59aabed82c4ca4f1682128212abd006a07632537c9",
      "transactionType": "CALL",
      "contractName": null,
      "contractAddress": "0x4444238f07ca5d8a0efe67b1e9ad6231a258f5e4",
      "function": "setOracle(address)",
      "arguments": [
        "0x44e9D3A83e94346e10C10Bf17e7E0c43aDf74458"
      ],
      "transaction": {
        "from": "0x30abf2e1ac3a52c8c3f99078d1d52667d656c84b",
        "to": "0x4444238f07ca5d8a0efe67b1e9ad6231a258f5e4",
        "gas": "0xaf26",
        "value": "0x0",
        "input": "0x7adbf97300000000000000000000000044e9d3a83e94346e10c10bf17e7e0c43adf74458",
        "nonce": "0x6f",
        "chainId": "0xaa36a7"
      },
      "additionalContracts": [],
      "isFixedGasLimit": false
    },
    {
      "hash": "0xc408a58152d3d68436d37591cd0d2676487e986de46acf5cbcddd63db5713c0f",
      "transactionType": "CALL",
      "contractName": null,
      "contractAddress": "0x4444238f07ca5d8a0efe67b1e9ad6231a258f5e4",
      "function": "grantRole(bytes32,address)",
      "arguments": [
        "0x31e0210044b4f6757ce6aa31f9c6e8d4896d24a755014887391a926c5224d959",
        "0x921BFC7bb73D4B28bD06D944072B7F4437c5DAF7"
      ],
      "transaction": {
        "from": "0x30abf2e1ac3a52c8c3f99078d1d52667d656c84b",
        "to": "0x4444238f07ca5d8a0efe67b1e9ad6231a258f5e4",
        "gas": "0x9d28",
        "value": "0x0",
        "input": "0x2f2ff15d31e0210044b4f6757ce6aa31f9c6e8d4896d24a755014887391a926c5224d959000000000000000000000000921bfc7bb73d4b28bd06d944072b7f4437c5daf7",
        "nonce": "0x70",
        "chainId": "0xaa36a7"
      },
      "additionalContracts": [],
      "isFixedGasLimit": false
    },
    {
      "hash": "0xeafc24333d68b162fe366e1fb7b4c932d4ee2e9af8681a911426e0d767aa0feb",
      "transactionType": "CALL",
      "contractName": null,
      "contractAddress": "0x921bfc7bb73d4b28bd06d944072b7f4437c5daf7",
      "function": "grantRole(bytes32,address)",
      "arguments": [
        "0xcbd69888d9fba90fe49a0c7a1d66c35e381e4ebf3a66968c85c5beacc25db59a",
        "0x30Abf2e1ac3A52c8c3F99078d1D52667d656C84B"
      ],
      "transaction": {
        "from": "0x30abf2e1ac3a52c8c3f99078d1d52667d656c84b",
        "to": "0x921bfc7bb73d4b28bd06d944072b7f4437c5daf7",
        "gas": "0x9d94",
        "value": "0x0",
        "input": "0x2f2ff15dcbd69888d9fba90fe49a0c7a1d66c35e381e4ebf3a66968c85c5beacc25db59a00000000000000000000000030abf2e1ac3a52c8c3f99078d1d52667d656c84b",
        "nonce": "0x71",
        "chainId": "0xaa36a7"
      },
      "additionalContracts": [],
      "isFixedGasLimit": false
    },
    {
      "hash": "0xe7377af6ee762b39f2dd50152c2c0790c984b07f61dbf35e6278888725576b2d",
      "transactionType": "CALL",
      "contractName": null,
      "contractAddress": "0x921bfc7bb73d4b28bd06d944072b7f4437c5daf7",
      "function": "grantRole(bytes32,address)",
      "arguments": [
        "0xe6ad9a47fbda1dc18de1eb5eeb7d935e5e81b4748f3cfc61e233e64f88182060",
        "0x30Abf2e1ac3A52c8c3F99078d1D52667d656C84B"
      ],
      "transaction": {
        "from": "0x30abf2e1ac3a52c8c3f99078d1d52667d656c84b",
        "to": "0x921bfc7bb73d4b28bd06d944072b7f4437c5daf7",
        "gas": "0x11558",
        "value": "0x0",
        "input": "0x2f2ff15de6ad9a47fbda1dc18de1eb5eeb7d935e5e81b4748f3cfc61e233e64f8818206000000000000000000000000030abf2e1ac3a52c8c3f99078d1d52667d656c84b",
        "nonce": "0x72",
        "chainId": "0xaa36a7"
      },
      "additionalContracts": [],
      "isFixedGasLimit": false
    },
    {
      "hash": "0xd0da194d332592f22f103154addf2a7913a8a79c892378d1b0d1bd7d79a0bac2",
      "transactionType": "CALL",
      "contractName": null,
      "contractAddress": "0x921bfc7bb73d4b28bd06d944072b7f4437c5daf7",
      "function": "grantRole(bytes32,address)",
      "arguments": [
        "0x7b6588f378264a748ba8c75a8b168bb7b5ddca703dafa393fd0b4579f5b784b0",
        "0x30Abf2e1ac3A52c8c3F99078d1D52667d656C84B"
      ],
      "transaction": {
        "from": "0x30abf2e1ac3a52c8c3f99078d1d52667d656c84b",
        "to": "0x921bfc7bb73d4b28bd06d944072b7f4437c5daf7",
        "gas": "0x9d94",
        "value": "0x0",
        "input": "0x2f2ff15d7b6588f378264a748ba8c75a8b168bb7b5ddca703dafa393fd0b4579f5b784b000000000000000000000000030abf2e1ac3a52c8c3f99078d1d52667d656c84b",
        "nonce": "0x73",
        "chainId": "0xaa36a7"
      },
      "additionalContracts": [],
      "isFixedGasLimit": false
    },
    {
      "hash": "0xdd107078a73295c89cfb735d12dfad1a3c67c37910ad7dd7a64672723496ec6d",
      "transactionType": "CALL",
      "contractName": null,
      "contractAddress": "0x921bfc7bb73d4b28bd06d944072b7f4437c5daf7",
      "function": "grantRole(bytes32,address)",
      "arguments": [
        "0xba474fc2b8347e255f10252fdae69399bac572751768da2e97a282acc34401ea",
        "0x30Abf2e1ac3A52c8c3F99078d1D52667d656C84B"
      ],
      "transaction": {
        "from": "0x30abf2e1ac3a52c8c3f99078d1d52667d656c84b",
        "to": "0x921bfc7bb73d4b28bd06d944072b7f4437c5daf7",
        "gas": "0x9d94",
        "value": "0x0",
        "input": "0x2f2ff15dba474fc2b8347e255f10252fdae69399bac572751768da2e97a282acc34401ea00000000000000000000000030abf2e1ac3a52c8c3f99078d1d52667d656c84b",
        "nonce": "0x74",
        "chainId": "0xaa36a7"
      },
      "additionalContracts": [],
      "isFixedGasLimit": false
    },
    {
      "hash": "0x78b23fa57bcd028346da9ca3fccd16e3c39abc109e0f09324cbce3fa8f7f6a79",
      "transactionType": "CALL",
      "contractName": null,
      "contractAddress": "0x921bfc7bb73d4b28bd06d944072b7f4437c5daf7",
      "function": "addPocket(address)",
      "arguments": [
        "0x09bE3D91CB4DD9Ca5a24Ffd13f3dB7A9f059C2D5"
      ],
      "transaction": {
        "from": "0x30abf2e1ac3a52c8c3f99078d1d52667d656c84b",
        "to": "0x921bfc7bb73d4b28bd06d944072b7f4437c5daf7",
        "gas": "0x1458d",
        "value": "0x0",
        "input": "0x120b4b8600000000000000000000000009be3d91cb4dd9ca5a24ffd13f3db7a9f059c2d5",
        "nonce": "0x75",
        "chainId": "0xaa36a7"
      },
      "additionalContracts": [],
      "isFixedGasLimit": false
    },
    {
      "hash": "0x0c15dc6623880d4e59f9f0ef7581cfc0ff4e452b1814cb0caa94a1b4a921e1fe",
      "transactionType": "CALL",
      "contractName": null,
      "contractAddress": "0x921bfc7bb73d4b28bd06d944072b7f4437c5daf7",
      "function": "addPocket(address)",
      "arguments": [
        "0xf69834897e3617a87ecd58a7999e422FF0E3915C"
      ],
      "transaction": {
        "from": "0x30abf2e1ac3a52c8c3f99078d1d52667d656c84b",
        "to": "0x921bfc7bb73d4b28bd06d944072b7f4437c5daf7",
        "gas": "0x13359",
        "value": "0x0",
        "input": "0x120b4b86000000000000000000000000f69834897e3617a87ecd58a7999e422ff0e3915c",
        "nonce": "0x76",
        "chainId": "0xaa36a7"
      },
      "additionalContracts": [],
      "isFixedGasLimit": false
    }
  ],
  "receipts": [
    {
      "status": "0x1",
      "cumulativeGasUsed": "0x7bdd99",
      "logs": [],
      "logsBloom": "0x00000000000000000000000000000000000000000000000000000000000000000000000000000000000000000000000000000000000000000000000000000000000000000000000000000000000000000000000000000000000000000000000000000000000000000000000000000000000000000000000000000000000000000000000000000000000000000000000000000000000000000000000000000000000000000000000000000000000000000000000000000000000000000000000000000000000000000000000000000000000000000000000000000000000000000000000000000000000000000000000000000000000000000000000000000000",
      "type": "0x2",
      "transactionHash": "0x128faf34c16c3c845d0969965953013b23983416d91363116e71ade8424ad1df",
      "transactionIndex": "0x77",
      "blockHash": "0xd894bea07e9990b4b2f9781265828d3e39c2788857569e22c35eb9934c6c93d9",
      "blockNumber": "0x6d5335",
      "gasUsed": "0x71d4",
      "effectiveGasPrice": "0x14bb484a9",
      "from": "0x30abf2e1ac3a52c8c3f99078d1d52667d656c84b",
      "to": "0x4444238f07ca5d8a0efe67b1e9ad6231a258f5e4",
      "contractAddress": null
    },
    {
      "status": "0x1",
      "cumulativeGasUsed": "0xa70966",
      "logs": [
        {
          "address": "0x4444238f07ca5d8a0efe67b1e9ad6231a258f5e4",
          "topics": [
            "0x3df77beb5db05fcdd70a30fc8adf3f83f9501b68579455adbd100b8180940394",
            "0x00000000000000000000000044e9d3a83e94346e10c10bf17e7e0c43adf74458"
          ],
          "data": "0x",
          "blockHash": "0xd894bea07e9990b4b2f9781265828d3e39c2788857569e22c35eb9934c6c93d9",
          "blockNumber": "0x6d5335",
          "transactionHash": "0x2b7ae66216b368950c663f59aabed82c4ca4f1682128212abd006a07632537c9",
          "transactionIndex": "0xc0",
          "logIndex": "0x4e",
          "removed": false
        }
      ],
      "logsBloom": "0x00000000000000000000000000000000000000000000000080000000000020000000000000000000000000000000000000000000000000000000000000000004000000000000000000000800000000000000000000000020000000000000000000000000000000000000040000000000000000000000000000000000000000000800000000000000000000000000000000000000000000002000000000100000000000000000000000000000000000000000000000000000000000000000000000000000000000000000000000000000000000000000000000000000000000000000000000000000000000000000000000000000000000000000000000000000",
      "type": "0x2",
      "transactionHash": "0x2b7ae66216b368950c663f59aabed82c4ca4f1682128212abd006a07632537c9",
      "transactionIndex": "0xc0",
      "blockHash": "0xd894bea07e9990b4b2f9781265828d3e39c2788857569e22c35eb9934c6c93d9",
      "blockNumber": "0x6d5335",
      "gasUsed": "0x77c3",
      "effectiveGasPrice": "0x14bb484a9",
      "from": "0x30abf2e1ac3a52c8c3f99078d1d52667d656c84b",
      "to": "0x4444238f07ca5d8a0efe67b1e9ad6231a258f5e4",
      "contractAddress": null
    },
    {
      "status": "0x1",
      "cumulativeGasUsed": "0xb5d716",
      "logs": [],
      "logsBloom": "0x00000000000000000000000000000000000000000000000000000000000000000000000000000000000000000000000000000000000000000000000000000000000000000000000000000000000000000000000000000000000000000000000000000000000000000000000000000000000000000000000000000000000000000000000000000000000000000000000000000000000000000000000000000000000000000000000000000000000000000000000000000000000000000000000000000000000000000000000000000000000000000000000000000000000000000000000000000000000000000000000000000000000000000000000000000000",
      "type": "0x2",
      "transactionHash": "0xc408a58152d3d68436d37591cd0d2676487e986de46acf5cbcddd63db5713c0f",
      "transactionIndex": "0xea",
      "blockHash": "0xd894bea07e9990b4b2f9781265828d3e39c2788857569e22c35eb9934c6c93d9",
      "blockNumber": "0x6d5335",
      "gasUsed": "0x71c8",
      "effectiveGasPrice": "0x14bb484a9",
      "from": "0x30abf2e1ac3a52c8c3f99078d1d52667d656c84b",
      "to": "0x4444238f07ca5d8a0efe67b1e9ad6231a258f5e4",
      "contractAddress": null
    },
    {
      "status": "0x1",
      "cumulativeGasUsed": "0xbcf0a4",
      "logs": [],
      "logsBloom": "0x00000000000000000000000000000000000000000000000000000000000000000000000000000000000000000000000000000000000000000000000000000000000000000000000000000000000000000000000000000000000000000000000000000000000000000000000000000000000000000000000000000000000000000000000000000000000000000000000000000000000000000000000000000000000000000000000000000000000000000000000000000000000000000000000000000000000000000000000000000000000000000000000000000000000000000000000000000000000000000000000000000000000000000000000000000000",
      "type": "0x2",
      "transactionHash": "0xeafc24333d68b162fe366e1fb7b4c932d4ee2e9af8681a911426e0d767aa0feb",
      "transactionIndex": "0xfe",
      "blockHash": "0xd894bea07e9990b4b2f9781265828d3e39c2788857569e22c35eb9934c6c93d9",
      "blockNumber": "0x6d5335",
      "gasUsed": "0x7216",
      "effectiveGasPrice": "0x14bb484a9",
      "from": "0x30abf2e1ac3a52c8c3f99078d1d52667d656c84b",
      "to": "0x921bfc7bb73d4b28bd06d944072b7f4437c5daf7",
      "contractAddress": null
    },
    {
      "status": "0x1",
      "cumulativeGasUsed": "0xc13a00",
      "logs": [
        {
          "address": "0x921bfc7bb73d4b28bd06d944072b7f4437c5daf7",
          "topics": [
            "0x2f8788117e7eff1d82e926ec794901d17c78024a50270940304540a733656f0d",
            "0xe6ad9a47fbda1dc18de1eb5eeb7d935e5e81b4748f3cfc61e233e64f88182060",
            "0x00000000000000000000000030abf2e1ac3a52c8c3f99078d1d52667d656c84b",
            "0x00000000000000000000000030abf2e1ac3a52c8c3f99078d1d52667d656c84b"
          ],
          "data": "0x",
          "blockHash": "0xd894bea07e9990b4b2f9781265828d3e39c2788857569e22c35eb9934c6c93d9",
          "blockNumber": "0x6d5335",
          "transactionHash": "0xe7377af6ee762b39f2dd50152c2c0790c984b07f61dbf35e6278888725576b2d",
          "transactionIndex": "0x109",
          "logIndex": "0x4f",
          "removed": false
        }
      ],
      "logsBloom": "0x00001004000000080000000000000000000000000000000000000000000000000000000000000000000000000000000000000000000000000000000000000000000000000000000000000000000000000000000000000000000000000000080000000000000000000000000000000000000000000000000000000000000000000000000000000000000000000000000000000000000000000000000000000000000000000000000000000000000000000000000000000000001000000000000000000000000000000000000000008000000000000000000100000000200000000028004000000000000000000000000000080000000000000000000000000000",
      "type": "0x2",
      "transactionHash": "0xe7377af6ee762b39f2dd50152c2c0790c984b07f61dbf35e6278888725576b2d",
      "transactionIndex": "0x109",
      "blockHash": "0xd894bea07e9990b4b2f9781265828d3e39c2788857569e22c35eb9934c6c93d9",
      "blockNumber": "0x6d5335",
      "gasUsed": "0xc8cc",
      "effectiveGasPrice": "0x14bb484a9",
      "from": "0x30abf2e1ac3a52c8c3f99078d1d52667d656c84b",
      "to": "0x921bfc7bb73d4b28bd06d944072b7f4437c5daf7",
      "contractAddress": null
    },
    {
      "status": "0x1",
      "cumulativeGasUsed": "0xc47956",
      "logs": [],
      "logsBloom": "0x00000000000000000000000000000000000000000000000000000000000000000000000000000000000000000000000000000000000000000000000000000000000000000000000000000000000000000000000000000000000000000000000000000000000000000000000000000000000000000000000000000000000000000000000000000000000000000000000000000000000000000000000000000000000000000000000000000000000000000000000000000000000000000000000000000000000000000000000000000000000000000000000000000000000000000000000000000000000000000000000000000000000000000000000000000000",
      "type": "0x2",
      "transactionHash": "0xd0da194d332592f22f103154addf2a7913a8a79c892378d1b0d1bd7d79a0bac2",
      "transactionIndex": "0x112",
      "blockHash": "0xd894bea07e9990b4b2f9781265828d3e39c2788857569e22c35eb9934c6c93d9",
      "blockNumber": "0x6d5335",
      "gasUsed": "0x7216",
      "effectiveGasPrice": "0x14bb484a9",
      "from": "0x30abf2e1ac3a52c8c3f99078d1d52667d656c84b",
      "to": "0x921bfc7bb73d4b28bd06d944072b7f4437c5daf7",
      "contractAddress": null
    },
    {
      "status": "0x1",
      "cumulativeGasUsed": "0xc59ebc",
      "logs": [],
      "logsBloom": "0x00000000000000000000000000000000000000000000000000000000000000000000000000000000000000000000000000000000000000000000000000000000000000000000000000000000000000000000000000000000000000000000000000000000000000000000000000000000000000000000000000000000000000000000000000000000000000000000000000000000000000000000000000000000000000000000000000000000000000000000000000000000000000000000000000000000000000000000000000000000000000000000000000000000000000000000000000000000000000000000000000000000000000000000000000000000",
      "type": "0x2",
      "transactionHash": "0xdd107078a73295c89cfb735d12dfad1a3c67c37910ad7dd7a64672723496ec6d",
      "transactionIndex": "0x115",
      "blockHash": "0xd894bea07e9990b4b2f9781265828d3e39c2788857569e22c35eb9934c6c93d9",
      "blockNumber": "0x6d5335",
      "gasUsed": "0x7216",
      "effectiveGasPrice": "0x14bb484a9",
      "from": "0x30abf2e1ac3a52c8c3f99078d1d52667d656c84b",
      "to": "0x921bfc7bb73d4b28bd06d944072b7f4437c5daf7",
      "contractAddress": null
    },
    {
      "status": "0x1",
      "cumulativeGasUsed": "0xc67d56",
      "logs": [
        {
          "address": "0x921bfc7bb73d4b28bd06d944072b7f4437c5daf7",
          "topics": [
            "0xdfbde0e8fc1c52ab3adee2eb2585df55ad05aa9c142896238a855d4544851ab9"
          ],
          "data": "0x000000000000000000000000000000000000000000000000000000000000000200000000000000000000000009be3d91cb4dd9ca5a24ffd13f3db7a9f059c2d5",
          "blockHash": "0xd894bea07e9990b4b2f9781265828d3e39c2788857569e22c35eb9934c6c93d9",
          "blockNumber": "0x6d5335",
          "transactionHash": "0x78b23fa57bcd028346da9ca3fccd16e3c39abc109e0f09324cbce3fa8f7f6a79",
          "transactionIndex": "0x116",
          "logIndex": "0x50",
          "removed": false
        }
      ],
      "logsBloom": "0x00001000000000080000000000000000000000000000000000000000000000000000000000000000000000000000000000000000000000000000000000000000000000000000000000000000000000000000000000000000000000000000000001000000000000000000000000000000000000000000000000000000000000000000000000000000000000000000000000000000000000000000000000000000000000000000000000000000000000000000000000000000000000000001000000000000000000000000000000000000000000000000000000000000000000000020000000000000000000002000000000000000000000000000000000000000",
      "type": "0x2",
      "transactionHash": "0x78b23fa57bcd028346da9ca3fccd16e3c39abc109e0f09324cbce3fa8f7f6a79",
      "transactionIndex": "0x116",
      "blockHash": "0xd894bea07e9990b4b2f9781265828d3e39c2788857569e22c35eb9934c6c93d9",
      "blockNumber": "0x6d5335",
      "gasUsed": "0xde9a",
      "effectiveGasPrice": "0x14bb484a9",
      "from": "0x30abf2e1ac3a52c8c3f99078d1d52667d656c84b",
      "to": "0x921bfc7bb73d4b28bd06d944072b7f4437c5daf7",
      "contractAddress": null
    },
    {
      "status": "0x1",
      "cumulativeGasUsed": "0xc75bda",
      "logs": [
        {
          "address": "0x921bfc7bb73d4b28bd06d944072b7f4437c5daf7",
          "topics": [
            "0xdfbde0e8fc1c52ab3adee2eb2585df55ad05aa9c142896238a855d4544851ab9"
          ],
          "data": "0x0000000000000000000000000000000000000000000000000000000000000003000000000000000000000000f69834897e3617a87ecd58a7999e422ff0e3915c",
          "blockHash": "0xd894bea07e9990b4b2f9781265828d3e39c2788857569e22c35eb9934c6c93d9",
          "blockNumber": "0x6d5335",
          "transactionHash": "0x0c15dc6623880d4e59f9f0ef7581cfc0ff4e452b1814cb0caa94a1b4a921e1fe",
          "transactionIndex": "0x117",
          "logIndex": "0x51",
          "removed": false
        }
      ],
      "logsBloom": "0x00001000000000080000000000000000000000000000000000000000000000000000000000000000000000000000000000000000000000000000000000000000000000000000000000000000000000000000000000000000000000000000000001000000000000000000000000000000000000000000000000000000000000000000000000000000000000000000000000000000000000000000000000000000000000000000000000000000000000000000000000000000000000000001000000000000000000000000000000000000000000000000000000000000000000000020000000000000000000002000000000000000000000000000000000000000",
      "type": "0x2",
      "transactionHash": "0x0c15dc6623880d4e59f9f0ef7581cfc0ff4e452b1814cb0caa94a1b4a921e1fe",
      "transactionIndex": "0x117",
      "blockHash": "0xd894bea07e9990b4b2f9781265828d3e39c2788857569e22c35eb9934c6c93d9",
      "blockNumber": "0x6d5335",
      "gasUsed": "0xde84",
      "effectiveGasPrice": "0x14bb484a9",
      "from": "0x30abf2e1ac3a52c8c3f99078d1d52667d656c84b",
      "to": "0x921bfc7bb73d4b28bd06d944072b7f4437c5daf7",
      "contractAddress": null
    }
  ],
  "libraries": [],
  "pending": [],
  "returns": {},
  "timestamp": 1732730546,
  "chain": 11155111,
  "commit": "446add2"
}