{
  "transactions": [
    {
      "hash": "0x9d16e6c11cd77f9a98c33654562e347a6aad37829bb7c219f0c624d557643f29",
      "transactionType": "CALL",
      "contractName": null,
      "contractAddress": "0x18a849b56a97b52ca5f1b0f66f3cf7bc4bf0ece2",
      "function": "grantRole(bytes32,address)",
      "arguments": [
        "0x31e0210044b4f6757ce6aa31f9c6e8d4896d24a755014887391a926c5224d959",
        "0x678295F27e8523cd437326DB9D2875aD7B6B991d"
      ],
      "transaction": {
        "from": "0x30abf2e1ac3a52c8c3f99078d1d52667d656c84b",
        "to": "0x18a849b56a97b52ca5f1b0f66f3cf7bc4bf0ece2",
        "gas": "0x12f76",
        "value": "0x0",
        "input": "0x2f2ff15d31e0210044b4f6757ce6aa31f9c6e8d4896d24a755014887391a926c5224d959000000000000000000000000678295f27e8523cd437326db9d2875ad7b6b991d",
        "nonce": "0x2f",
        "chainId": "0x14a34"
      },
      "additionalContracts": [],
      "isFixedGasLimit": false
    },
    {
      "hash": "0x92b571ccd0f77a245bccea121d70db15ac5172cf181fc6aad5ad38c505f49b6b",
      "transactionType": "CALL",
      "contractName": null,
      "contractAddress": "0x18a849b56a97b52ca5f1b0f66f3cf7bc4bf0ece2",
      "function": "grantRole(bytes32,address)",
      "arguments": [
        "0x31e0210044b4f6757ce6aa31f9c6e8d4896d24a755014887391a926c5224d959",
        "0x62beb4f28f70cF7E4d5BCa54e86851b12AeF2d48"
      ],
      "transaction": {
        "from": "0x30abf2e1ac3a52c8c3f99078d1d52667d656c84b",
        "to": "0x18a849b56a97b52ca5f1b0f66f3cf7bc4bf0ece2",
        "gas": "0x12f76",
        "value": "0x0",
        "input": "0x2f2ff15d31e0210044b4f6757ce6aa31f9c6e8d4896d24a755014887391a926c5224d95900000000000000000000000062beb4f28f70cf7e4d5bca54e86851b12aef2d48",
        "nonce": "0x30",
        "chainId": "0x14a34"
      },
      "additionalContracts": [],
      "isFixedGasLimit": false
    },
    {
      "hash": "0x44db23259a19b36cf2c7b02b74e3d80577b8098a842be99ad5682aa118de6883",
      "transactionType": "CALL",
      "contractName": null,
      "contractAddress": "0x678295f27e8523cd437326db9d2875ad7b6b991d",
      "function": "grantRole(bytes32,address)",
      "arguments": [
        "0xcbd69888d9fba90fe49a0c7a1d66c35e381e4ebf3a66968c85c5beacc25db59a",
        "0x30Abf2e1ac3A52c8c3F99078d1D52667d656C84B"
      ],
      "transaction": {
        "from": "0x30abf2e1ac3a52c8c3f99078d1d52667d656c84b",
        "to": "0x678295f27e8523cd437326db9d2875ad7b6b991d",
        "gas": "0x141c2",
        "value": "0x0",
        "input": "0x2f2ff15dcbd69888d9fba90fe49a0c7a1d66c35e381e4ebf3a66968c85c5beacc25db59a00000000000000000000000030abf2e1ac3a52c8c3f99078d1d52667d656c84b",
        "nonce": "0x31",
        "chainId": "0x14a34"
      },
      "additionalContracts": [],
      "isFixedGasLimit": false
    },
    {
      "hash": "0x91b23f0bb8b3d8549b8d01e21383a93def24f21fdaf9ffcce2b6ad3eb7f75492",
      "transactionType": "CALL",
      "contractName": null,
      "contractAddress": "0x678295f27e8523cd437326db9d2875ad7b6b991d",
      "function": "grantRole(bytes32,address)",
      "arguments": [
        "0xe6ad9a47fbda1dc18de1eb5eeb7d935e5e81b4748f3cfc61e233e64f88182060",
        "0x30Abf2e1ac3A52c8c3F99078d1D52667d656C84B"
      ],
      "transaction": {
        "from": "0x30abf2e1ac3a52c8c3f99078d1d52667d656c84b",
        "to": "0x678295f27e8523cd437326db9d2875ad7b6b991d",
        "gas": "0x141c2",
        "value": "0x0",
        "input": "0x2f2ff15de6ad9a47fbda1dc18de1eb5eeb7d935e5e81b4748f3cfc61e233e64f8818206000000000000000000000000030abf2e1ac3a52c8c3f99078d1d52667d656c84b",
        "nonce": "0x32",
        "chainId": "0x14a34"
      },
      "additionalContracts": [],
      "isFixedGasLimit": false
    },
    {
      "hash": "0x7c3c374a37ffbf1e8e55305ea529cdd9815126ea0af2c97234b7ac8285d49903",
      "transactionType": "CALL",
      "contractName": null,
      "contractAddress": "0x678295f27e8523cd437326db9d2875ad7b6b991d",
      "function": "grantRole(bytes32,address)",
      "arguments": [
        "0xba474fc2b8347e255f10252fdae69399bac572751768da2e97a282acc34401ea",
        "0x30Abf2e1ac3A52c8c3F99078d1D52667d656C84B"
      ],
      "transaction": {
        "from": "0x30abf2e1ac3a52c8c3f99078d1d52667d656c84b",
        "to": "0x678295f27e8523cd437326db9d2875ad7b6b991d",
        "gas": "0x141c2",
        "value": "0x0",
        "input": "0x2f2ff15dba474fc2b8347e255f10252fdae69399bac572751768da2e97a282acc34401ea00000000000000000000000030abf2e1ac3a52c8c3f99078d1d52667d656c84b",
        "nonce": "0x33",
        "chainId": "0x14a34"
      },
      "additionalContracts": [],
      "isFixedGasLimit": false
    },
    {
      "hash": "0xb5155fea1bf232a4a1d5529a4c1951f5a72de060741a356aa3db9b51da531b29",
      "transactionType": "CALL",
      "contractName": null,
      "contractAddress": "0x62beb4f28f70cf7e4d5bca54e86851b12aef2d48",
      "function": "grantRole(bytes32,address)",
      "arguments": [
        "0xcbd69888d9fba90fe49a0c7a1d66c35e381e4ebf3a66968c85c5beacc25db59a",
        "0x30Abf2e1ac3A52c8c3F99078d1D52667d656C84B"
      ],
      "transaction": {
        "from": "0x30abf2e1ac3a52c8c3f99078d1d52667d656c84b",
        "to": "0x62beb4f28f70cf7e4d5bca54e86851b12aef2d48",
        "gas": "0x141c2",
        "value": "0x0",
        "input": "0x2f2ff15dcbd69888d9fba90fe49a0c7a1d66c35e381e4ebf3a66968c85c5beacc25db59a00000000000000000000000030abf2e1ac3a52c8c3f99078d1d52667d656c84b",
        "nonce": "0x34",
        "chainId": "0x14a34"
      },
      "additionalContracts": [],
      "isFixedGasLimit": false
    },
    {
      "hash": "0x52d3e6d6affe45a03012f0694470ac393071b02d33fe512276167042e28af364",
      "transactionType": "CALL",
      "contractName": null,
      "contractAddress": "0x62beb4f28f70cf7e4d5bca54e86851b12aef2d48",
      "function": "grantRole(bytes32,address)",
      "arguments": [
        "0xe6ad9a47fbda1dc18de1eb5eeb7d935e5e81b4748f3cfc61e233e64f88182060",
        "0x30Abf2e1ac3A52c8c3F99078d1D52667d656C84B"
      ],
      "transaction": {
        "from": "0x30abf2e1ac3a52c8c3f99078d1d52667d656c84b",
        "to": "0x62beb4f28f70cf7e4d5bca54e86851b12aef2d48",
        "gas": "0x141c2",
        "value": "0x0",
        "input": "0x2f2ff15de6ad9a47fbda1dc18de1eb5eeb7d935e5e81b4748f3cfc61e233e64f8818206000000000000000000000000030abf2e1ac3a52c8c3f99078d1d52667d656c84b",
        "nonce": "0x35",
        "chainId": "0x14a34"
      },
      "additionalContracts": [],
      "isFixedGasLimit": false
    },
    {
      "hash": "0x91735bc032a51437027a961819460369042e8a53553b2e10ba09882165ca33d9",
      "transactionType": "CALL",
      "contractName": null,
      "contractAddress": "0x62beb4f28f70cf7e4d5bca54e86851b12aef2d48",
      "function": "grantRole(bytes32,address)",
      "arguments": [
        "0xba474fc2b8347e255f10252fdae69399bac572751768da2e97a282acc34401ea",
        "0x30Abf2e1ac3A52c8c3F99078d1D52667d656C84B"
      ],
      "transaction": {
        "from": "0x30abf2e1ac3a52c8c3f99078d1d52667d656c84b",
        "to": "0x62beb4f28f70cf7e4d5bca54e86851b12aef2d48",
        "gas": "0x141c2",
        "value": "0x0",
        "input": "0x2f2ff15dba474fc2b8347e255f10252fdae69399bac572751768da2e97a282acc34401ea00000000000000000000000030abf2e1ac3a52c8c3f99078d1d52667d656c84b",
        "nonce": "0x36",
        "chainId": "0x14a34"
      },
      "additionalContracts": [],
      "isFixedGasLimit": false
    },
    {
      "hash": "0xc3535f9398a19fddf89effa0c3d7273614b8e808e1cd4c78c5a0395e53cf3f5f",
      "transactionType": "CALL",
      "contractName": null,
      "contractAddress": "0x678295f27e8523cd437326db9d2875ad7b6b991d",
      "function": "addPocket(address)",
      "arguments": [
        "0x8E89Ac6a61C3945f60a17a1B03c77c3F5e0fcaAE"
      ],
      "transaction": {
        "from": "0x30abf2e1ac3a52c8c3f99078d1d52667d656c84b",
        "to": "0x678295f27e8523cd437326db9d2875ad7b6b991d",
        "gas": "0x18019",
        "value": "0x0",
        "input": "0x120b4b860000000000000000000000008e89ac6a61c3945f60a17a1b03c77c3f5e0fcaae",
        "nonce": "0x37",
        "chainId": "0x14a34"
      },
      "additionalContracts": [],
      "isFixedGasLimit": false
    },
    {
      "hash": "0x67f8c26d3fa64ed82ef6c630f227f08df2b07cb5966934cdd50dae546b424283",
      "transactionType": "CALL",
      "contractName": null,
      "contractAddress": "0x678295f27e8523cd437326db9d2875ad7b6b991d",
      "function": "addPocket(address)",
      "arguments": [
        "0x415A187e741564d3EE4aCa4E31a003064c0a4b9f"
      ],
      "transaction": {
        "from": "0x30abf2e1ac3a52c8c3f99078d1d52667d656c84b",
        "to": "0x678295f27e8523cd437326db9d2875ad7b6b991d",
        "gas": "0x16aa3",
        "value": "0x0",
        "input": "0x120b4b86000000000000000000000000415a187e741564d3ee4aca4e31a003064c0a4b9f",
        "nonce": "0x38",
        "chainId": "0x14a34"
      },
      "additionalContracts": [],
      "isFixedGasLimit": false
    },
    {
      "hash": "0x9c4e75612bfdd57f9b70f57a9705662361e02dd6435b2d034e538645a31031b0",
      "transactionType": "CALL",
      "contractName": null,
      "contractAddress": "0x62beb4f28f70cf7e4d5bca54e86851b12aef2d48",
      "function": "addPocket(address)",
      "arguments": [
        "0x57285063Bf804df7f163805D97FcE91Bac52f5E2"
      ],
      "transaction": {
        "from": "0x30abf2e1ac3a52c8c3f99078d1d52667d656c84b",
        "to": "0x62beb4f28f70cf7e4d5bca54e86851b12aef2d48",
        "gas": "0x18019",
        "value": "0x0",
        "input": "0x120b4b8600000000000000000000000057285063bf804df7f163805d97fce91bac52f5e2",
        "nonce": "0x39",
        "chainId": "0x14a34"
      },
      "additionalContracts": [],
      "isFixedGasLimit": false
    },
    {
      "hash": "0xa522699acef5acc8a563cf564c2078389adaccbfa3cf320b026fe311b77ed4a3",
      "transactionType": "CALL",
      "contractName": null,
      "contractAddress": "0x62beb4f28f70cf7e4d5bca54e86851b12aef2d48",
      "function": "addPocket(address)",
      "arguments": [
        "0xAF56c4266397d87EC2A04269484f50F42EB650CD"
      ],
      "transaction": {
        "from": "0x30abf2e1ac3a52c8c3f99078d1d52667d656c84b",
        "to": "0x62beb4f28f70cf7e4d5bca54e86851b12aef2d48",
        "gas": "0x16aa3",
        "value": "0x0",
        "input": "0x120b4b86000000000000000000000000af56c4266397d87ec2a04269484f50f42eb650cd",
        "nonce": "0x3a",
        "chainId": "0x14a34"
      },
      "additionalContracts": [],
      "isFixedGasLimit": false
    }
  ],
  "receipts": [
    {
      "status": "0x1",
      "cumulativeGasUsed": "0xbe7f26",
      "logs": [
        {
          "address": "0x18a849b56a97b52ca5f1b0f66f3cf7bc4bf0ece2",
          "topics": [
            "0x2f8788117e7eff1d82e926ec794901d17c78024a50270940304540a733656f0d",
            "0x31e0210044b4f6757ce6aa31f9c6e8d4896d24a755014887391a926c5224d959",
            "0x000000000000000000000000678295f27e8523cd437326db9d2875ad7b6b991d",
            "0x00000000000000000000000030abf2e1ac3a52c8c3f99078d1d52667d656c84b"
          ],
          "data": "0x",
          "blockHash": "0x3abe71d00590c64c65c1fbd80cb25f1d17af18d1e53116e0ab4cc3cecdf3511c",
          "blockNumber": "0x138cffe",
          "transactionHash": "0x9d16e6c11cd77f9a98c33654562e347a6aad37829bb7c219f0c624d557643f29",
          "transactionIndex": "0x1e",
          "logIndex": "0x41",
          "removed": false
        }
      ],
      "logsBloom": "0x000000040000000000000000000000000000000000000000000000000000000000000000000000000000000000000000000000000010100000000000000000000000000000000000000000080000000000000000000000000000000000000802000000000000000000000000000000000000800000000000000000000000000000000000000000000000000000000000000000000000000000000000000000000000000000000000000000000000000000000000000000000010000000000000000000000000000000000000000280800000000000000001000000002000000000000000000c0000000000000000000000000000000000000000000000000000",
      "type": "0x2",
      "transactionHash": "0x9d16e6c11cd77f9a98c33654562e347a6aad37829bb7c219f0c624d557643f29",
      "transactionIndex": "0x1e",
      "blockHash": "0x3abe71d00590c64c65c1fbd80cb25f1d17af18d1e53116e0ab4cc3cecdf3511c",
      "blockNumber": "0x138cffe",
      "gasUsed": "0xdbb4",
      "effectiveGasPrice": "0x13684851",
      "from": "0x30abf2e1ac3a52c8c3f99078d1d52667d656c84b",
      "to": "0x18a849b56a97b52ca5f1b0f66f3cf7bc4bf0ece2",
      "contractAddress": null,
      "l1BaseFeeScalar": "0x44d",
      "l1BlobBaseFee": "0x2e4404225",
      "l1BlobBaseFeeScalar": "0xa118b",
      "l1Fee": "0xd4baf713e5",
      "l1GasPrice": "0x4643a209a",
      "l1GasUsed": "0x6b2"
    },
    {
      "status": "0x1",
      "cumulativeGasUsed": "0x12058d",
      "logs": [
        {
          "address": "0x18a849b56a97b52ca5f1b0f66f3cf7bc4bf0ece2",
          "topics": [
            "0x2f8788117e7eff1d82e926ec794901d17c78024a50270940304540a733656f0d",
            "0x31e0210044b4f6757ce6aa31f9c6e8d4896d24a755014887391a926c5224d959",
            "0x00000000000000000000000062beb4f28f70cf7e4d5bca54e86851b12aef2d48",
            "0x00000000000000000000000030abf2e1ac3a52c8c3f99078d1d52667d656c84b"
          ],
          "data": "0x",
          "blockHash": "0x05373384d8f4063482114ae2b6a267757b38da2b8c6db24a93bce8381538b638",
          "blockNumber": "0x138cfff",
          "transactionHash": "0x92b571ccd0f77a245bccea121d70db15ac5172cf181fc6aad5ad38c505f49b6b",
          "transactionIndex": "0xa",
          "logIndex": "0x16",
          "removed": false
        }
      ],
      "logsBloom": "0x000000040000000000000000000000000000000000000000000400000000000080000000000000000000000000000000000000000000100000000000000000000000000000000000000000000000000000000000000000000000000000000802000000000000000000000000000000000000800000010000000000000000000000000000000000000000000000000000000000000000000000000000000000000000000000000000000000000000000000000000000000000010000000000000000000000000000000000000000280000000000000000001000000002000000000000000000c0000000000000000000000000000000000000000000000000000",
      "type": "0x2",
      "transactionHash": "0x92b571ccd0f77a245bccea121d70db15ac5172cf181fc6aad5ad38c505f49b6b",
      "transactionIndex": "0xa",
      "blockHash": "0x05373384d8f4063482114ae2b6a267757b38da2b8c6db24a93bce8381538b638",
      "blockNumber": "0x138cfff",
      "gasUsed": "0xdbb4",
      "effectiveGasPrice": "0x137e2569",
      "from": "0x30abf2e1ac3a52c8c3f99078d1d52667d656c84b",
      "to": "0x18a849b56a97b52ca5f1b0f66f3cf7bc4bf0ece2",
      "contractAddress": null,
      "l1BaseFeeScalar": "0x44d",
      "l1BlobBaseFee": "0x2e4404225",
      "l1BlobBaseFeeScalar": "0xa118b",
      "l1Fee": "0xd4baf713e5",
      "l1GasPrice": "0x4643a209a",
      "l1GasUsed": "0x6b2"
    },
    {
      "status": "0x1",
      "cumulativeGasUsed": "0x12e18f",
      "logs": [
        {
          "address": "0x678295f27e8523cd437326db9d2875ad7b6b991d",
          "topics": [
            "0x2f8788117e7eff1d82e926ec794901d17c78024a50270940304540a733656f0d",
            "0xcbd69888d9fba90fe49a0c7a1d66c35e381e4ebf3a66968c85c5beacc25db59a",
            "0x00000000000000000000000030abf2e1ac3a52c8c3f99078d1d52667d656c84b",
            "0x00000000000000000000000030abf2e1ac3a52c8c3f99078d1d52667d656c84b"
          ],
          "data": "0x",
          "blockHash": "0x05373384d8f4063482114ae2b6a267757b38da2b8c6db24a93bce8381538b638",
          "blockNumber": "0x138cfff",
          "transactionHash": "0x44db23259a19b36cf2c7b02b74e3d80577b8098a842be99ad5682aa118de6883",
          "transactionIndex": "0xb",
          "logIndex": "0x17",
          "removed": false
        }
      ],
      "logsBloom": "0x00000004000000000000000000000000000000000000000000000000000000000000000000000010000000000000000000000000000000000000000000000000000000000000000000000000000000000000000000000000000000000000080000000000000000000000000000000000000000000400000000000000000000000000000000000000000000000000000000000000000000000000000000000000000000000000000000000200000000000000000000000000001000000000000000000000000000000000000000008000000000000000000100000000200000000000000000040000000000000080000000000000000000000000000000000004",
      "type": "0x2",
      "transactionHash": "0x44db23259a19b36cf2c7b02b74e3d80577b8098a842be99ad5682aa118de6883",
      "transactionIndex": "0xb",
      "blockHash": "0x05373384d8f4063482114ae2b6a267757b38da2b8c6db24a93bce8381538b638",
      "blockNumber": "0x138cfff",
      "gasUsed": "0xdc02",
      "effectiveGasPrice": "0x137e2569",
      "from": "0x30abf2e1ac3a52c8c3f99078d1d52667d656c84b",
      "to": "0x678295f27e8523cd437326db9d2875ad7b6b991d",
      "contractAddress": null,
      "l1BaseFeeScalar": "0x44d",
      "l1BlobBaseFee": "0x2e4404225",
      "l1BlobBaseFeeScalar": "0xa118b",
      "l1Fee": "0xd4baf713e5",
      "l1GasPrice": "0x4643a209a",
      "l1GasUsed": "0x6b2"
    },
    {
      "status": "0x1",
      "cumulativeGasUsed": "0x13bd91",
      "logs": [
        {
          "address": "0x678295f27e8523cd437326db9d2875ad7b6b991d",
          "topics": [
            "0x2f8788117e7eff1d82e926ec794901d17c78024a50270940304540a733656f0d",
            "0xe6ad9a47fbda1dc18de1eb5eeb7d935e5e81b4748f3cfc61e233e64f88182060",
            "0x00000000000000000000000030abf2e1ac3a52c8c3f99078d1d52667d656c84b",
            "0x00000000000000000000000030abf2e1ac3a52c8c3f99078d1d52667d656c84b"
          ],
          "data": "0x",
          "blockHash": "0x05373384d8f4063482114ae2b6a267757b38da2b8c6db24a93bce8381538b638",
          "blockNumber": "0x138cfff",
          "transactionHash": "0x91b23f0bb8b3d8549b8d01e21383a93def24f21fdaf9ffcce2b6ad3eb7f75492",
          "transactionIndex": "0xc",
          "logIndex": "0x18",
          "removed": false
        }
      ],
      "logsBloom": "0x00000004000000000000000000000000000000000000000000000000000000000000000000000010000000000000000000000000000000000000000000000000000000000000000000000000000000000000000000000000000000000000080000000000000000000000000000000000000000000400000000000000000000000000000000000000000000000000000000000000000000000000000000000000000000000000000000000000000000000000000000000000001000000000000000000000000000000000000000008000000000000000000100000000200000000008004000040000000000000000000000080000000000000000000000000000",
      "type": "0x2",
      "transactionHash": "0x91b23f0bb8b3d8549b8d01e21383a93def24f21fdaf9ffcce2b6ad3eb7f75492",
      "transactionIndex": "0xc",
      "blockHash": "0x05373384d8f4063482114ae2b6a267757b38da2b8c6db24a93bce8381538b638",
      "blockNumber": "0x138cfff",
      "gasUsed": "0xdc02",
      "effectiveGasPrice": "0x137e2569",
      "from": "0x30abf2e1ac3a52c8c3f99078d1d52667d656c84b",
      "to": "0x678295f27e8523cd437326db9d2875ad7b6b991d",
      "contractAddress": null,
      "l1BaseFeeScalar": "0x44d",
      "l1BlobBaseFee": "0x2e4404225",
      "l1BlobBaseFeeScalar": "0xa118b",
      "l1Fee": "0xd4baf713e5",
      "l1GasPrice": "0x4643a209a",
      "l1GasUsed": "0x6b2"
    },
    {
      "status": "0x1",
      "cumulativeGasUsed": "0x149993",
      "logs": [
        {
          "address": "0x678295f27e8523cd437326db9d2875ad7b6b991d",
          "topics": [
            "0x2f8788117e7eff1d82e926ec794901d17c78024a50270940304540a733656f0d",
            "0xba474fc2b8347e255f10252fdae69399bac572751768da2e97a282acc34401ea",
            "0x00000000000000000000000030abf2e1ac3a52c8c3f99078d1d52667d656c84b",
            "0x00000000000000000000000030abf2e1ac3a52c8c3f99078d1d52667d656c84b"
          ],
          "data": "0x",
          "blockHash": "0x05373384d8f4063482114ae2b6a267757b38da2b8c6db24a93bce8381538b638",
          "blockNumber": "0x138cfff",
          "transactionHash": "0x7c3c374a37ffbf1e8e55305ea529cdd9815126ea0af2c97234b7ac8285d49903",
          "transactionIndex": "0xd",
          "logIndex": "0x19",
          "removed": false
        }
      ],
      "logsBloom": "0x00000004000000000000000000000000400000000000000000000000000000000000000000000010000000000000000000000000000000000000000000000000000000000000000000000000000000000000000000000000000040000000080000000000000000000000000000000000000000000400000000000000000000000000000000000000000000000000000000000000100000000000000000000000000000000000000000000000000000000000000000000000001000000000000000000000000000000000000000008000000000000000000100000000200000000000000000040000000000000000000000000000000000000000000000000000",
      "type": "0x2",
      "transactionHash": "0x7c3c374a37ffbf1e8e55305ea529cdd9815126ea0af2c97234b7ac8285d49903",
      "transactionIndex": "0xd",
      "blockHash": "0x05373384d8f4063482114ae2b6a267757b38da2b8c6db24a93bce8381538b638",
      "blockNumber": "0x138cfff",
      "gasUsed": "0xdc02",
      "effectiveGasPrice": "0x137e2569",
      "from": "0x30abf2e1ac3a52c8c3f99078d1d52667d656c84b",
      "to": "0x678295f27e8523cd437326db9d2875ad7b6b991d",
      "contractAddress": null,
      "l1BaseFeeScalar": "0x44d",
      "l1BlobBaseFee": "0x2e4404225",
      "l1BlobBaseFeeScalar": "0xa118b",
      "l1Fee": "0xd4baf713e5",
      "l1GasPrice": "0x4643a209a",
      "l1GasUsed": "0x6b2"
    },
    {
      "status": "0x1",
      "cumulativeGasUsed": "0x157595",
      "logs": [
        {
          "address": "0x62beb4f28f70cf7e4d5bca54e86851b12aef2d48",
          "topics": [
            "0x2f8788117e7eff1d82e926ec794901d17c78024a50270940304540a733656f0d",
            "0xcbd69888d9fba90fe49a0c7a1d66c35e381e4ebf3a66968c85c5beacc25db59a",
            "0x00000000000000000000000030abf2e1ac3a52c8c3f99078d1d52667d656c84b",
            "0x00000000000000000000000030abf2e1ac3a52c8c3f99078d1d52667d656c84b"
          ],
          "data": "0x",
          "blockHash": "0x05373384d8f4063482114ae2b6a267757b38da2b8c6db24a93bce8381538b638",
          "blockNumber": "0x138cfff",
          "transactionHash": "0xb5155fea1bf232a4a1d5529a4c1951f5a72de060741a356aa3db9b51da531b29",
          "transactionIndex": "0xe",
          "logIndex": "0x1a",
          "removed": false
        }
      ],
      "logsBloom": "0x00000004000000000000000000000000000000000000000000000000000000000000000000000000000000000000000000000000000000000000000000000000000000000000000000000000000000000000080000000000000000000000080000000000000000000000002000000000000000000000000000000000000000002000000000000000000000000000000000000000000000000000000000000000000000000000000000000200000000000000000000000000001000000000000000000000000000000000000000008000000000000000000100000000200000000000000000000000000000000080000000000000000000000000000000000004",
      "type": "0x2",
      "transactionHash": "0xb5155fea1bf232a4a1d5529a4c1951f5a72de060741a356aa3db9b51da531b29",
      "transactionIndex": "0xe",
      "blockHash": "0x05373384d8f4063482114ae2b6a267757b38da2b8c6db24a93bce8381538b638",
      "blockNumber": "0x138cfff",
      "gasUsed": "0xdc02",
      "effectiveGasPrice": "0x137e2569",
      "from": "0x30abf2e1ac3a52c8c3f99078d1d52667d656c84b",
      "to": "0x62beb4f28f70cf7e4d5bca54e86851b12aef2d48",
      "contractAddress": null,
      "l1BaseFeeScalar": "0x44d",
      "l1BlobBaseFee": "0x2e4404225",
      "l1BlobBaseFeeScalar": "0xa118b",
      "l1Fee": "0xd4baf713e5",
      "l1GasPrice": "0x4643a209a",
      "l1GasUsed": "0x6b2"
    },
    {
      "status": "0x1",
      "cumulativeGasUsed": "0x165197",
      "logs": [
        {
          "address": "0x62beb4f28f70cf7e4d5bca54e86851b12aef2d48",
          "topics": [
            "0x2f8788117e7eff1d82e926ec794901d17c78024a50270940304540a733656f0d",
            "0xe6ad9a47fbda1dc18de1eb5eeb7d935e5e81b4748f3cfc61e233e64f88182060",
            "0x00000000000000000000000030abf2e1ac3a52c8c3f99078d1d52667d656c84b",
            "0x00000000000000000000000030abf2e1ac3a52c8c3f99078d1d52667d656c84b"
          ],
          "data": "0x",
          "blockHash": "0x05373384d8f4063482114ae2b6a267757b38da2b8c6db24a93bce8381538b638",
          "blockNumber": "0x138cfff",
          "transactionHash": "0x52d3e6d6affe45a03012f0694470ac393071b02d33fe512276167042e28af364",
          "transactionIndex": "0xf",
          "logIndex": "0x1b",
          "removed": false
        }
      ],
      "logsBloom": "0x00000004000000000000000000000000000000000000000000000000000000000000000000000000000000000000000000000000000000000000000000000000000000000000000000000000000000000000080000000000000000000000080000000000000000000000002000000000000000000000000000000000000000002000000000000000000000000000000000000000000000000000000000000000000000000000000000000000000000000000000000000000001000000000000000000000000000000000000000008000000000000000000100000000200000000008004000000000000000000000000000080000000000000000000000000000",
      "type": "0x2",
      "transactionHash": "0x52d3e6d6affe45a03012f0694470ac393071b02d33fe512276167042e28af364",
      "transactionIndex": "0xf",
      "blockHash": "0x05373384d8f4063482114ae2b6a267757b38da2b8c6db24a93bce8381538b638",
      "blockNumber": "0x138cfff",
      "gasUsed": "0xdc02",
      "effectiveGasPrice": "0x137e2569",
      "from": "0x30abf2e1ac3a52c8c3f99078d1d52667d656c84b",
      "to": "0x62beb4f28f70cf7e4d5bca54e86851b12aef2d48",
      "contractAddress": null,
      "l1BaseFeeScalar": "0x44d",
      "l1BlobBaseFee": "0x2e4404225",
      "l1BlobBaseFeeScalar": "0xa118b",
      "l1Fee": "0xd4baf713e5",
      "l1GasPrice": "0x4643a209a",
      "l1GasUsed": "0x6b2"
    },
    {
      "status": "0x1",
      "cumulativeGasUsed": "0x172d99",
      "logs": [
        {
          "address": "0x62beb4f28f70cf7e4d5bca54e86851b12aef2d48",
          "topics": [
            "0x2f8788117e7eff1d82e926ec794901d17c78024a50270940304540a733656f0d",
            "0xba474fc2b8347e255f10252fdae69399bac572751768da2e97a282acc34401ea",
            "0x00000000000000000000000030abf2e1ac3a52c8c3f99078d1d52667d656c84b",
            "0x00000000000000000000000030abf2e1ac3a52c8c3f99078d1d52667d656c84b"
          ],
          "data": "0x",
          "blockHash": "0x05373384d8f4063482114ae2b6a267757b38da2b8c6db24a93bce8381538b638",
          "blockNumber": "0x138cfff",
          "transactionHash": "0x91735bc032a51437027a961819460369042e8a53553b2e10ba09882165ca33d9",
          "transactionIndex": "0x10",
          "logIndex": "0x1c",
          "removed": false
        }
      ],
      "logsBloom": "0x00000004000000000000000000000000400000000000000000000000000000000000000000000000000000000000000000000000000000000000000000000000000000000000000000000000000000000000080000000000000040000000080000000000000000000000002000000000000000000000000000000000000000002000000000000000000000000000000000000000100000000000000000000000000000000000000000000000000000000000000000000000001000000000000000000000000000000000000000008000000000000000000100000000200000000000000000000000000000000000000000000000000000000000000000000000",
      "type": "0x2",
      "transactionHash": "0x91735bc032a51437027a961819460369042e8a53553b2e10ba09882165ca33d9",
      "transactionIndex": "0x10",
      "blockHash": "0x05373384d8f4063482114ae2b6a267757b38da2b8c6db24a93bce8381538b638",
      "blockNumber": "0x138cfff",
      "gasUsed": "0xdc02",
      "effectiveGasPrice": "0x137e2569",
      "from": "0x30abf2e1ac3a52c8c3f99078d1d52667d656c84b",
      "to": "0x62beb4f28f70cf7e4d5bca54e86851b12aef2d48",
      "contractAddress": null,
      "l1BaseFeeScalar": "0x44d",
      "l1BlobBaseFee": "0x2e4404225",
      "l1BlobBaseFeeScalar": "0xa118b",
      "l1Fee": "0xd4baf713e5",
      "l1GasPrice": "0x4643a209a",
      "l1GasUsed": "0x6b2"
    },
    {
      "status": "0x1",
      "cumulativeGasUsed": "0x1a3848",
      "logs": [
        {
          "address": "0x678295f27e8523cd437326db9d2875ad7b6b991d",
          "topics": [
            "0xdfbde0e8fc1c52ab3adee2eb2585df55ad05aa9c142896238a855d4544851ab9"
          ],
          "data": "0x00000000000000000000000000000000000000000000000000000000000000010000000000000000000000008e89ac6a61c3945f60a17a1b03c77c3f5e0fcaae",
          "blockHash": "0x05373384d8f4063482114ae2b6a267757b38da2b8c6db24a93bce8381538b638",
          "blockNumber": "0x138cfff",
          "transactionHash": "0xc3535f9398a19fddf89effa0c3d7273614b8e808e1cd4c78c5a0395e53cf3f5f",
          "transactionIndex": "0x12",
          "logIndex": "0x21",
          "removed": false
        }
      ],
      "logsBloom": "0x00000000000000000000000000000000000000000000000000000000000000000000000000000010000000000000000000000000000000000000000000000000000000000000000000000000000000000000000000000000000000000000000001000000000000000000000000000000000000000400000000000000000000000000000000000000000000000000000000000000000000000000000000000000000000000000000000000000000000000000000000000000000000000001000000000000000000000000000000000000000000000000000000000000000000000000000000040000000000002000000000000000000000000000000000000000",
      "type": "0x2",
      "transactionHash": "0xc3535f9398a19fddf89effa0c3d7273614b8e808e1cd4c78c5a0395e53cf3f5f",
      "transactionIndex": "0x12",
      "blockHash": "0x05373384d8f4063482114ae2b6a267757b38da2b8c6db24a93bce8381538b638",
      "blockNumber": "0x138cfff",
      "gasUsed": "0x106a2",
      "effectiveGasPrice": "0x137e2569",
      "from": "0x30abf2e1ac3a52c8c3f99078d1d52667d656c84b",
      "to": "0x678295f27e8523cd437326db9d2875ad7b6b991d",
      "contractAddress": null,
      "l1BaseFeeScalar": "0x44d",
      "l1BlobBaseFee": "0x2e4404225",
      "l1BlobBaseFeeScalar": "0xa118b",
      "l1Fee": "0xc689f9aabe",
      "l1GasPrice": "0x4643a209a",
      "l1GasUsed": "0x640"
    },
    {
      "status": "0x1",
      "cumulativeGasUsed": "0x1b3ed4",
      "logs": [
        {
          "address": "0x678295f27e8523cd437326db9d2875ad7b6b991d",
          "topics": [
            "0xdfbde0e8fc1c52ab3adee2eb2585df55ad05aa9c142896238a855d4544851ab9"
          ],
          "data": "0x0000000000000000000000000000000000000000000000000000000000000002000000000000000000000000415a187e741564d3ee4aca4e31a003064c0a4b9f",
          "blockHash": "0x05373384d8f4063482114ae2b6a267757b38da2b8c6db24a93bce8381538b638",
          "blockNumber": "0x138cfff",
          "transactionHash": "0x67f8c26d3fa64ed82ef6c630f227f08df2b07cb5966934cdd50dae546b424283",
          "transactionIndex": "0x13",
          "logIndex": "0x22",
          "removed": false
        }
      ],
      "logsBloom": "0x00000000000000000000000000000000000000000000000000000000000000000000000000000010000000000000000000000000000000000000000000000000000000000000000000000000000000000000000000000000000000000000000001000000000000000000000000000000000000000400000000000000000000000000000000000000000000000000000000000000000000000000000000000000000000000000000000000000000000000000000000000000000000000001000000000000000000000000000000000000000000000000000000000000000000000000000000040000000000002000000000000000000000000000000000000000",
      "type": "0x2",
      "transactionHash": "0x67f8c26d3fa64ed82ef6c630f227f08df2b07cb5966934cdd50dae546b424283",
      "transactionIndex": "0x13",
      "blockHash": "0x05373384d8f4063482114ae2b6a267757b38da2b8c6db24a93bce8381538b638",
      "blockNumber": "0x138cfff",
      "gasUsed": "0x1068c",
      "effectiveGasPrice": "0x137e2569",
      "from": "0x30abf2e1ac3a52c8c3f99078d1d52667d656c84b",
      "to": "0x678295f27e8523cd437326db9d2875ad7b6b991d",
      "contractAddress": null,
      "l1BaseFeeScalar": "0x44d",
      "l1BlobBaseFee": "0x2e4404225",
      "l1BlobBaseFeeScalar": "0xa118b",
      "l1Fee": "0xc689f9aabe",
      "l1GasPrice": "0x4643a209a",
      "l1GasUsed": "0x640"
    },
    {
      "status": "0x1",
      "cumulativeGasUsed": "0x1c4576",
      "logs": [
        {
          "address": "0x62beb4f28f70cf7e4d5bca54e86851b12aef2d48",
          "topics": [
            "0xdfbde0e8fc1c52ab3adee2eb2585df55ad05aa9c142896238a855d4544851ab9"
          ],
          "data": "0x000000000000000000000000000000000000000000000000000000000000000100000000000000000000000057285063bf804df7f163805d97fce91bac52f5e2",
          "blockHash": "0x05373384d8f4063482114ae2b6a267757b38da2b8c6db24a93bce8381538b638",
          "blockNumber": "0x138cfff",
          "transactionHash": "0x9c4e75612bfdd57f9b70f57a9705662361e02dd6435b2d034e538645a31031b0",
          "transactionIndex": "0x14",
          "logIndex": "0x23",
          "removed": false
        }
      ],
      "logsBloom": "0x00000000000000000000000000000000000000000000000000000000000000000000000000000000000000000000000000000000000000000000000000000000000000000000000000000000000000000000080000000000000000000000000001000000000000000000002000000000000000000000000000000000000000002000000000000000000000000000000000000000000000000000000000000000000000000000000000000000000000000000000000000000000000000001000000000000000000000000000000000000000000000000000000000000000000000000000000000000000000002000000000000000000000000000000000000000",
      "type": "0x2",
      "transactionHash": "0x9c4e75612bfdd57f9b70f57a9705662361e02dd6435b2d034e538645a31031b0",
      "transactionIndex": "0x14",
      "blockHash": "0x05373384d8f4063482114ae2b6a267757b38da2b8c6db24a93bce8381538b638",
      "blockNumber": "0x138cfff",
      "gasUsed": "0x106a2",
      "effectiveGasPrice": "0x137e2569",
      "from": "0x30abf2e1ac3a52c8c3f99078d1d52667d656c84b",
      "to": "0x62beb4f28f70cf7e4d5bca54e86851b12aef2d48",
      "contractAddress": null,
      "l1BaseFeeScalar": "0x44d",
      "l1BlobBaseFee": "0x2e4404225",
      "l1BlobBaseFeeScalar": "0xa118b",
      "l1Fee": "0xc689f9aabe",
      "l1GasPrice": "0x4643a209a",
      "l1GasUsed": "0x640"
    },
    {
      "status": "0x1",
      "cumulativeGasUsed": "0x1d4c02",
      "logs": [
        {
          "address": "0x62beb4f28f70cf7e4d5bca54e86851b12aef2d48",
          "topics": [
            "0xdfbde0e8fc1c52ab3adee2eb2585df55ad05aa9c142896238a855d4544851ab9"
          ],
          "data": "0x0000000000000000000000000000000000000000000000000000000000000002000000000000000000000000af56c4266397d87ec2a04269484f50f42eb650cd",
          "blockHash": "0x05373384d8f4063482114ae2b6a267757b38da2b8c6db24a93bce8381538b638",
          "blockNumber": "0x138cfff",
          "transactionHash": "0xa522699acef5acc8a563cf564c2078389adaccbfa3cf320b026fe311b77ed4a3",
          "transactionIndex": "0x15",
          "logIndex": "0x24",
          "removed": false
        }
      ],
      "logsBloom": "0x00000000000000000000000000000000000000000000000000000000000000000000000000000000000000000000000000000000000000000000000000000000000000000000000000000000000000000000080000000000000000000000000001000000000000000000002000000000000000000000000000000000000000002000000000000000000000000000000000000000000000000000000000000000000000000000000000000000000000000000000000000000000000000001000000000000000000000000000000000000000000000000000000000000000000000000000000000000000000002000000000000000000000000000000000000000",
      "type": "0x2",
      "transactionHash": "0xa522699acef5acc8a563cf564c2078389adaccbfa3cf320b026fe311b77ed4a3",
      "transactionIndex": "0x15",
      "blockHash": "0x05373384d8f4063482114ae2b6a267757b38da2b8c6db24a93bce8381538b638",
      "blockNumber": "0x138cfff",
      "gasUsed": "0x1068c",
      "effectiveGasPrice": "0x137e2569",
      "from": "0x30abf2e1ac3a52c8c3f99078d1d52667d656c84b",
      "to": "0x62beb4f28f70cf7e4d5bca54e86851b12aef2d48",
      "contractAddress": null,
      "l1BaseFeeScalar": "0x44d",
      "l1BlobBaseFee": "0x2e4404225",
      "l1BlobBaseFeeScalar": "0xa118b",
      "l1Fee": "0xc689f9aabe",
      "l1GasPrice": "0x4643a209a",
      "l1GasUsed": "0x640"
    }
  ],
  "libraries": [],
  "pending": [],
  "returns": {},
  "timestamp": 1736769248,
  "chain": 84532,
  "commit": "53cf683"
}